{
	"data": {
		"bytecode": {
			"linkReferences": {},
			"object": "60a060405234801561000f575f80fd5b5060405161001c9061006e565b604051809103905ff080158015610035573d5f803e3d5ffd5b5073ffffffffffffffffffffffffffffffffffffffff1660808173ffffffffffffffffffffffffffffffffffffffff168152505061007b565b614e0580610ecd83390190565b608051610e2c6100a15f395f818161013e0152818161031101526103830152610e2c5ff3fe608060405234801561000f575f80fd5b5060043610610055575f3560e01c806302a7202b1461005957806394e69ef514610089578063c5160b76146100b9578063ce656c74146100e9578063ffc4992f14610119575b5f80fd5b610073600480360381019061006e919061066b565b610137565b604051610080919061076b565b60405180910390f35b6100a3600480360381019061009e9190610784565b610276565b6040516100b0919061076b565b60405180910390f35b6100d360048036038101906100ce9190610889565b610308565b6040516100e0919061076b565b60405180910390f35b61010360048036038101906100fe919061098e565b61035f565b604051610110919061076b565b60405180910390f35b610121610381565b60405161012e919061076b565b60405180910390f35b5f806101757f0000000000000000000000000000000000000000000000000000000000000000610170338f8f8f8f8f8f8f8f8f8f6103a5565b6103f2565b90508073ffffffffffffffffffffffffffffffffffffffff1663060b88598d8d8d8d8d8d8d8d8d6040518a63ffffffff1660e01b81526004016101c099989796959493929190610ae2565b5f604051808303815f87803b1580156101d7575f80fd5b505af11580156101e9573d5f803e3d5ffd5b505050508b73ffffffffffffffffffffffffffffffffffffffff163373ffffffffffffffffffffffffffffffffffffffff167fb23586e1f178d2847fcc6e1dbfa72000dd28ffeb0a687f53821c7ea3b698e20d8d8d8d8d8d8d8d8d8d8c60405161025c9a99989796959493929190610b61565b60405180910390a3809150509a9950505050505050505050565b5f6102898c8c8c8c8c8c8c8c8c8c610137565b90508173ffffffffffffffffffffffffffffffffffffffff168173ffffffffffffffffffffffffffffffffffffffff16146102f9576040517f08c379a00000000000000000000000000000000000000000000000000000000081526004016102f090610c5f565b60405180910390fd5b9b9a5050505050505050505050565b5f61034e6103357f0000000000000000000000000000000000000000000000000000000000000000610406565b6103488e8e8e8e8e8e8e8e8e8e8e6103a5565b3061047e565b90509b9a5050505050505050505050565b5f6103728a8a8a8a8a8a8a8a8a5f610137565b90509998505050505050505050565b7f000000000000000000000000000000000000000000000000000000000000000081565b5f8b8b8b8b8b8b8b8b8b8b8b6040516020016103cb9b9a99989796959493929190610d58565b6040516020818303038152906040528051906020012090509b9a5050505050505050505050565b5f6103fe5f84846104a3565b905092915050565b5f6040517fcc3735a920a3ca505d382bbc545af43d6000803e6038573d6000fd5b3d6000f36060527f5155f3363d3d373d3d363d7f360894a13ba1a3210667c828492db98dca3e207660405261600960205282601e5268603d3d8160223d3973600a52605f6021209150806040525f60605250919050565b5f60ff5f53836035528160601b6001528260155260555f2090505f6035529392505050565b5f6040517fcc3735a920a3ca505d382bbc545af43d6000803e6038573d6000fd5b3d6000f36060527f5155f3363d3d373d3d363d7f360894a13ba1a3210667c828492db98dca3e207660405261600960205283601e5268603d3d8160223d3973600a5282605f602187f59150816105215763301164255f526004601cfd5b806040525f606052509392505050565b5f80fd5b5f80fd5b5f73ffffffffffffffffffffffffffffffffffffffff82169050919050565b5f61056282610539565b9050919050565b61057281610558565b811461057c575f80fd5b50565b5f8135905061058d81610569565b92915050565b5f80fd5b5f80fd5b5f80fd5b5f8083601f8401126105b4576105b3610593565b5b8235905067ffffffffffffffff8111156105d1576105d0610597565b5b6020830191508360018202830111156105ed576105ec61059b565b5b9250929050565b5f60ff82169050919050565b610609816105f4565b8114610613575f80fd5b50565b5f8135905061062481610600565b92915050565b5f6bffffffffffffffffffffffff82169050919050565b61064a8161062a565b8114610654575f80fd5b50565b5f8135905061066581610641565b92915050565b5f805f805f805f805f806101008b8d03121561068a57610689610531565b5b5f6106978d828e0161057f565b9a505060208b013567ffffffffffffffff8111156106b8576106b7610535565b5b6106c48d828e0161059f565b995099505060408b013567ffffffffffffffff8111156106e7576106e6610535565b5b6106f38d828e0161059f565b975097505060606107068d828e01610616565b95505060806107178d828e0161057f565b94505060a06107288d828e01610657565b93505060c06107398d828e0161057f565b92505060e061074a8d828e01610616565b9150509295989b9194979a5092959850565b61076581610558565b82525050565b5f60208201905061077e5f83018461075c565b92915050565b5f805f805f805f805f805f6101208c8e0312156107a4576107a3610531565b5b5f6107b18e828f0161057f565b9b505060208c013567ffffffffffffffff8111156107d2576107d1610535565b5b6107de8e828f0161059f565b9a509a505060408c013567ffffffffffffffff81111561080157610800610535565b5b61080d8e828f0161059f565b985098505060606108208e828f01610616565b96505060806108318e828f0161057f565b95505060a06108428e828f01610657565b94505060c06108538e828f0161057f565b93505060e06108648e828f01610616565b9250506101006108768e828f0161057f565b9150509295989b509295989b9093969950565b5f805f805f805f805f805f6101208c8e0312156108a9576108a8610531565b5b5f6108b68e828f0161057f565b9b505060206108c78e828f0161057f565b9a505060408c013567ffffffffffffffff8111156108e8576108e7610535565b5b6108f48e828f0161059f565b995099505060608c013567ffffffffffffffff81111561091757610916610535565b5b6109238e828f0161059f565b975097505060806109368e828f01610616565b95505060a06109478e828f0161057f565b94505060c06109588e828f01610657565b93505060e06109698e828f0161057f565b92505061010061097b8e828f01610616565b9150509295989b509295989b9093969950565b5f805f805f805f805f60e08a8c0312156109ab576109aa610531565b5b5f6109b88c828d0161057f565b99505060208a013567ffffffffffffffff8111156109d9576109d8610535565b5b6109e58c828d0161059f565b985098505060408a013567ffffffffffffffff811115610a0857610a07610535565b5b610a148c828d0161059f565b96509650506060610a278c828d01610616565b9450506080610a388c828d0161057f565b93505060a0610a498c828d01610657565b92505060c0610a5a8c828d0161057f565b9150509295985092959850929598565b5f82825260208201905092915050565b828183375f83830152505050565b5f601f19601f8301169050919050565b5f610aa38385610a6a565b9350610ab0838584610a7a565b610ab983610a88565b840190509392505050565b610acd816105f4565b82525050565b610adc8161062a565b82525050565b5f60e082019050610af55f83018c61075c565b8181036020830152610b08818a8c610a98565b90508181036040830152610b1d81888a610a98565b9050610b2c6060830187610ac4565b610b39608083018661075c565b610b4660a0830185610ad3565b610b5360c083018461075c565b9a9950505050505050505050565b5f610100820190508181035f830152610b7b818c8e610a98565b90508181036020830152610b90818a8c610a98565b9050610b9f6040830189610ac4565b610bac606083018861075c565b610bb96080830187610ad3565b610bc660a083018661075c565b610bd360c0830185610ac4565b610be060e083018461075c565b9b9a5050505050505050505050565b7f746f6b656e206164647265737320646f6573206e6f74206d61746368207072655f8201527f6469637465642061646472657373000000000000000000000000000000000000602082015250565b5f610c49602e83610a6a565b9150610c5482610bef565b604082019050919050565b5f6020820190508181035f830152610c7681610c3d565b9050919050565b5f8160601b9050919050565b5f610c9382610c7d565b9050919050565b5f610ca482610c89565b9050919050565b610cbc610cb782610558565b610c9a565b82525050565b5f81905092915050565b5f610cd78385610cc2565b9350610ce4838584610a7a565b82840190509392505050565b5f8160f81b9050919050565b5f610d0682610cf0565b9050919050565b610d1e610d19826105f4565b610cfc565b82525050565b5f8160a01b9050919050565b5f610d3a82610d24565b9050919050565b610d52610d4d8261062a565b610d30565b82525050565b5f610d63828e610cab565b601482019150610d73828d610cab565b601482019150610d84828b8d610ccc565b9150610d9182898b610ccc565b9150610d9d8288610d0d565b600182019150610dad8287610cab565b601482019150610dbd8286610d41565b600c82019150610dcd8285610cab565b601482019150610ddd8284610d0d565b6001820191508190509c9b50505050505050505050505056fea26469706673582212207a9d4207c2c04a1a1b0bea9fe93edb21fb78632df5b4754eaea42f920ab5ae4564736f6c6343000814003360a06040523073ffffffffffffffffffffffffffffffffffffffff1660809073ffffffffffffffffffffffffffffffffffffffff1681525034801562000043575f80fd5b505f62000055620001cf60201b60201c565b90505f815f0160089054906101000a900460ff161590505f825f015f9054906101000a900467ffffffffffffffff1690505f808267ffffffffffffffff161480156200009e5750825b90505f60018367ffffffffffffffff16148015620000d257505f3073ffffffffffffffffffffffffffffffffffffffff163b145b905081158015620000e1575080155b1562000119576040517ff92ee8a900000000000000000000000000000000000000000000000000000000815260040160405180910390fd5b6001855f015f6101000a81548167ffffffffffffffff021916908367ffffffffffffffff160217905550831562000167576001855f0160086101000a81548160ff0219169083151502179055505b8315620001c4575f855f0160086101000a81548160ff0219169083151502179055507fc7f505b2f371ae2175ee4913f4499e1f2633a7b5936321eed1cdaeb6115181d26001604051620001bb919062000253565b60405180910390a15b50505050506200026e565b5f7ff0c57e16840df040f15088dc2f81fe391c3923bec73e23a9662efc9c229c6a00905090565b5f819050919050565b5f67ffffffffffffffff82169050919050565b5f819050919050565b5f6200023b620002356200022f84620001f6565b62000212565b620001ff565b9050919050565b6200024d816200021b565b82525050565b5f602082019050620002685f83018462000242565b92915050565b608051614b70620002955f395f818161209f015281816120f4015261230c0152614b705ff3fe6080604052600436106101f8575f3560e01c806370a082311161010c578063a9059cbb1161009f578063ec6690361161006e578063ec669036146106ee578063f2fde38b14610704578063f851a4401461072c578063f9afb26a14610756578063f9b278c014610792576101f8565b8063a9059cbb14610624578063ad3cb1cc14610660578063d505accf1461068a578063dd62ed3e146106b2576101f8565b806384b0196e116100db57806384b0196e146105765780638da5cb5b146105a657806395d89b41146105d0578063986b048a146105fa576101f8565b806370a08231146104d2578063715018a61461050e5780637ecebe00146105245780638456cb5914610560576101f8565b80633644e5151161018f57806352d1902d1161015e57806352d1902d146103de578063598b8e71146104085780635c975abb14610444578063684cbf681461046e578063704b6c02146104aa576101f8565b80633644e515146103585780633f4ba83a1461038257806347ccca02146103985780634f1ef286146103c2576101f8565b806312d5ede6116101cb57806312d5ede6146102b257806318160ddd146102c857806323b872dd146102f2578063313ce5671461032e576101f8565b8063060b8859146101fc57806306fdde0314610224578063095ea7b31461024e5780630a3cb72e1461028a575b5f80fd5b348015610207575f80fd5b50610222600480360381019061021d9190613753565b6107bc565b005b34801561022f575f80fd5b50610238610ba6565b60405161024591906138b9565b60405180910390f35b348015610259575f80fd5b50610274600480360381019061026f919061390c565b610c44565b6040516102819190613964565b60405180910390f35b348015610295575f80fd5b506102b060048036038101906102ab91906139d2565b610c66565b005b3480156102bd575f80fd5b506102c6610ea4565b005b3480156102d3575f80fd5b506102dc610ffa565b6040516102e99190613a5f565b60405180910390f35b3480156102fd575f80fd5b5061031860048036038101906103139190613a78565b611011565b6040516103259190613964565b60405180910390f35b348015610339575f80fd5b5061034261103f565b60405161034f9190613ad7565b60405180910390f35b348015610363575f80fd5b5061036c611063565b6040516103799190613b08565b60405180910390f35b34801561038d575f80fd5b50610396611071565b005b3480156103a3575f80fd5b506103ac611155565b6040516103b99190613b7c565b60405180910390f35b6103dc60048036038101906103d79190613cbd565b61118a565b005b3480156103e9575f80fd5b506103f26111a9565b6040516103ff9190613b08565b60405180910390f35b348015610413575f80fd5b5061042e60048036038101906104299190613d17565b6111da565b60405161043b9190613a5f565b60405180910390f35b34801561044f575f80fd5b50610458611352565b6040516104659190613964565b60405180910390f35b348015610479575f80fd5b50610494600480360381019061048f9190613d62565b611374565b6040516104a19190613a5f565b60405180910390f35b3480156104b5575f80fd5b506104d060048036038101906104cb9190613d62565b6113c5565b005b3480156104dd575f80fd5b506104f860048036038101906104f39190613d62565b611533565b6040516105059190613a5f565b60405180910390f35b348015610519575f80fd5b50610522611586565b005b34801561052f575f80fd5b5061054a60048036038101906105459190613d62565b611599565b6040516105579190613a5f565b60405180910390f35b34801561056b575f80fd5b506105746115aa565b005b348015610581575f80fd5b5061058a611651565b60405161059d9796959493929190613e8d565b60405180910390f35b3480156105b1575f80fd5b506105ba61175a565b6040516105c79190613f0f565b60405180910390f35b3480156105db575f80fd5b506105e461178f565b6040516105f191906138b9565b60405180910390f35b348015610605575f80fd5b5061060e61182d565b60405161061b9190613f37565b60405180910390f35b34801561062f575f80fd5b5061064a6004803603810190610645919061390c565b61185b565b6040516106579190613964565b60405180910390f35b34801561066b575f80fd5b5061067461187d565b60405161068191906138b9565b60405180910390f35b348015610695575f80fd5b506106b060048036038101906106ab9190613f7a565b6118b6565b005b3480156106bd575f80fd5b506106d860048036038101906106d39190614017565b6119fb565b6040516106e59190613a5f565b60405180910390f35b3480156106f9575f80fd5b50610702611a8b565b005b34801561070f575f80fd5b5061072a60048036038101906107259190613d62565b611aea565b005b348015610737575f80fd5b50610740611b6e565b60405161074d9190613f0f565b60405180910390f35b348015610761575f80fd5b5061077c60048036038101906107779190613d17565b611ba4565b6040516107899190613a5f565b60405180910390f35b34801561079d575f80fd5b506107a6611d1c565b6040516107b39190613964565b60405180910390f35b5f6107c5611d40565b90505f815f0160089054906101000a900460ff161590505f825f015f9054906101000a900467ffffffffffffffff1690505f808267ffffffffffffffff1614801561080d5750825b90505f60018367ffffffffffffffff1614801561084057505f3073ffffffffffffffffffffffffffffffffffffffff163b145b90508115801561084e575080155b15610885576040517ff92ee8a900000000000000000000000000000000000000000000000000000000815260040160405180910390fd5b6001855f015f6101000a81548167ffffffffffffffff021916908367ffffffffffffffff16021790555083156108d2576001855f0160086101000a81548160ff0219169083151502179055505b6108db8e611d67565b61096b8d8d8080601f0160208091040260200160405190810160405280939291908181526020018383808284375f81840152601f19601f820116905080830192505050505050508c8c8080601f0160208091040260200160405190810160405280939291908181526020018383808284375f81840152601f19601f82011690508083019250505050505050611d7b565b6109b78d8d8080601f0160208091040260200160405190810160405280939291908181526020018383808284375f81840152601f19601f82011690508083019250505050505050611d91565b6109bf611ddb565b6109c7611ded565b5f876bffffffffffffffffffffffff1611610a17576040517f08c379a0000000000000000000000000000000000000000000000000000000008152600401610a0e906140c5565b60405180910390fd5b5f610a20611df7565b9050898160010160146101000a81548160ff021916908360ff16021790555088815f015f6101000a81548173ffffffffffffffffffffffffffffffffffffffff021916908373ffffffffffffffffffffffffffffffffffffffff16021790555087815f0160146101000a8154816bffffffffffffffffffffffff02191690836bffffffffffffffffffffffff16021790555086816001015f6101000a81548173ffffffffffffffffffffffffffffffffffffffff021916908373ffffffffffffffffffffffffffffffffffffffff1602179055507f7e60f975a7089493230d155fdbd29862d69342b7057e190d24cbbba6d45119508f8f8f8f8f8f8f8f8f604051610b339998979695949392919061410f565b60405180910390a1508315610b96575f855f0160086101000a81548160ff0219169083151502179055507fc7f505b2f371ae2175ee4913f4499e1f2633a7b5936321eed1cdaeb6115181d26001604051610b8d91906141da565b60405180910390a15b5050505050505050505050505050565b60605f610bb1611e1e565b9050806003018054610bc290614220565b80601f0160208091040260200160405190810160405280929190818152602001828054610bee90614220565b8015610c395780601f10610c1057610100808354040283529160200191610c39565b820191905f5260205f20905b815481529060010190602001808311610c1c57829003601f168201915b505050505091505090565b5f80610c4e611e45565b9050610c5b818585611e4c565b600191505092915050565b610c6e611e5e565b818190508484905014610cb6576040517f08c379a0000000000000000000000000000000000000000000000000000000008152600401610cad9061429a565b60405180910390fd5b5f610cbf611df7565b90505f5b85859050811015610d8457815f015f9054906101000a900473ffffffffffffffffffffffffffffffffffffffff1673ffffffffffffffffffffffffffffffffffffffff166323b872dd3330898986818110610d2157610d206142b8565b5b905060200201356040518463ffffffff1660e01b8152600401610d46939291906142e5565b5f604051808303815f87803b158015610d5d575f80fd5b505af1158015610d6f573d5f803e3d5ffd5b5050505080610d7d90614347565b9050610cc3565b505f5b83839050811015610e4857815f015f9054906101000a900473ffffffffffffffffffffffffffffffffffffffff1673ffffffffffffffffffffffffffffffffffffffff166323b872dd3033878786818110610de557610de46142b8565b5b905060200201356040518463ffffffff1660e01b8152600401610e0a939291906142e5565b5f604051808303815f87803b158015610e21575f80fd5b505af1158015610e33573d5f803e3d5ffd5b5050505080610e4190614347565b9050610d87565b503373ffffffffffffffffffffffffffffffffffffffff167f0482325a8e0d87a795f1b932f4864348776133a209264b40b05b9a428dcd799b86868686604051610e9594939291906143f6565b60405180910390a25050505050565b5f610ead611df7565b9050806001015f9054906101000a900473ffffffffffffffffffffffffffffffffffffffff1673ffffffffffffffffffffffffffffffffffffffff163373ffffffffffffffffffffffffffffffffffffffff161480610f3e5750610f0f61175a565b73ffffffffffffffffffffffffffffffffffffffff163373ffffffffffffffffffffffffffffffffffffffff16145b610f7d576040517f08c379a0000000000000000000000000000000000000000000000000000000008152600401610f7490614479565b60405180910390fd5b5f610f86611df7565b90505f816001015f6101000a81548173ffffffffffffffffffffffffffffffffffffffff021916908373ffffffffffffffffffffffffffffffffffffffff1602179055507f73a1cb870742e52ee7a674a09b86381d3b018c1b4bc6ac0e20acb0ad0d5a580760405160405180910390a15050565b5f80611004611e1e565b9050806002015491505090565b5f8061101b611e45565b9050611028858285611e9f565b611033858585611f31565b60019150509392505050565b5f80611049611df7565b90508060010160149054906101000a900460ff1691505090565b5f61106c612021565b905090565b5f61107a611df7565b9050806001015f9054906101000a900473ffffffffffffffffffffffffffffffffffffffff1673ffffffffffffffffffffffffffffffffffffffff163373ffffffffffffffffffffffffffffffffffffffff16148061110b57506110dc61175a565b73ffffffffffffffffffffffffffffffffffffffff163373ffffffffffffffffffffffffffffffffffffffff16145b61114a576040517f08c379a000000000000000000000000000000000000000000000000000000000815260040161114190614479565b60405180910390fd5b61115261202f565b50565b5f8061115f611df7565b9050805f015f9054906101000a900473ffffffffffffffffffffffffffffffffffffffff1691505090565b61119261209d565b61119b82612183565b6111a582826121ec565b5050565b5f6111b261230a565b7f360894a13ba1a3210667c828492db98dca3e2076cc3735a920a3ca505d382bbc5f1b905090565b5f6111e3611e5e565b5f6111ec611df7565b90505f5b848490508110156112b157815f015f9054906101000a900473ffffffffffffffffffffffffffffffffffffffff1673ffffffffffffffffffffffffffffffffffffffff166323b872dd333088888681811061124e5761124d6142b8565b5b905060200201356040518463ffffffff1660e01b8152600401611273939291906142e5565b5f604051808303815f87803b15801561128a575f80fd5b505af115801561129c573d5f803e3d5ffd5b50505050806112aa90614347565b90506111f0565b505f84849050825f0160149054906101000a90046bffffffffffffffffffffffff166bffffffffffffffffffffffff166112eb9190614497565b90506112f73382612391565b3373ffffffffffffffffffffffffffffffffffffffff167f42b71104669d6b9b0ed0596b13bf72373d2139566545df2b53b72931c6965715868660405161133f9291906144d8565b60405180910390a2809250505092915050565b5f8061135c612410565b9050805f015f9054906101000a900460ff1691505090565b5f8061137e611df7565b9050805f0160149054906101000a90046bffffffffffffffffffffffff166bffffffffffffffffffffffff166113b384611533565b6113bd9190614527565b915050919050565b5f6113ce611df7565b9050806001015f9054906101000a900473ffffffffffffffffffffffffffffffffffffffff1673ffffffffffffffffffffffffffffffffffffffff163373ffffffffffffffffffffffffffffffffffffffff16148061145f575061143061175a565b73ffffffffffffffffffffffffffffffffffffffff163373ffffffffffffffffffffffffffffffffffffffff16145b61149e576040517f08c379a000000000000000000000000000000000000000000000000000000000815260040161149590614479565b60405180910390fd5b5f6114a7611df7565b905082816001015f6101000a81548173ffffffffffffffffffffffffffffffffffffffff021916908373ffffffffffffffffffffffffffffffffffffffff1602179055508273ffffffffffffffffffffffffffffffffffffffff167f8fe72c3e0020beb3234e76ae6676fa576fbfcae600af1c4fea44784cf0db329c60405160405180910390a2505050565b5f8061153d611e1e565b9050805f015f8473ffffffffffffffffffffffffffffffffffffffff1673ffffffffffffffffffffffffffffffffffffffff1681526020019081526020015f2054915050919050565b61158e612437565b6115975f6124be565b565b5f6115a38261258f565b9050919050565b5f6115b3611df7565b9050806001015f9054906101000a900473ffffffffffffffffffffffffffffffffffffffff1673ffffffffffffffffffffffffffffffffffffffff163373ffffffffffffffffffffffffffffffffffffffff1614611646576040517f08c379a000000000000000000000000000000000000000000000000000000000815260040161163d906145a1565b60405180910390fd5b61164e6125e2565b50565b5f6060805f805f60605f611663612651565b90505f801b815f015414801561167e57505f801b8160010154145b6116bd576040517f08c379a00000000000000000000000000000000000000000000000000000000081526004016116b490614609565b60405180910390fd5b6116c5612678565b6116cd612716565b46305f801b5f67ffffffffffffffff8111156116ec576116eb613b99565b5b60405190808252806020026020018201604052801561171a5781602001602082028036833780820191505090505b507f0f0000000000000000000000000000000000000000000000000000000000000095949392919097509750975097509750975097505090919293949596565b5f806117646127b4565b9050805f015f9054906101000a900473ffffffffffffffffffffffffffffffffffffffff1691505090565b60605f61179a611e1e565b90508060040180546117ab90614220565b80601f01602080910402602001604051908101604052809291908181526020018280546117d790614220565b80156118225780601f106117f957610100808354040283529160200191611822565b820191905f5260205f20905b81548152906001019060200180831161180557829003601f168201915b505050505091505090565b5f80611837611df7565b9050805f0160149054906101000a90046bffffffffffffffffffffffff1691505090565b5f80611865611e45565b9050611872818585611f31565b600191505092915050565b6040518060400160405280600581526020017f352e302e3000000000000000000000000000000000000000000000000000000081525081565b834211156118fb57836040517f627913020000000000000000000000000000000000000000000000000000000081526004016118f29190613a5f565b60405180910390fd5b5f7f6e71edae12b1b97f4d1f60370fef10105fa2faae0126114a169c64845d6126c98888886119298c6127db565b8960405160200161193f96959493929190614627565b6040516020818303038152906040528051906020012090505f6119618261283b565b90505f61197082878787612854565b90508973ffffffffffffffffffffffffffffffffffffffff168173ffffffffffffffffffffffffffffffffffffffff16146119e457808a6040517f4b800e460000000000000000000000000000000000000000000000000000000081526004016119db929190614686565b60405180910390fd5b6119ef8a8a8a611e4c565b50505050505050505050565b5f80611a05611e1e565b9050806001015f8573ffffffffffffffffffffffffffffffffffffffff1673ffffffffffffffffffffffffffffffffffffffff1681526020019081526020015f205f8473ffffffffffffffffffffffffffffffffffffffff1673ffffffffffffffffffffffffffffffffffffffff1681526020019081526020015f205491505092915050565b611a93612437565b5f611a9c611df7565b905060018160010160156101000a81548160ff0219169083151502179055507f0e5daa943fcd7e7182d0e893d180695c2ea9f6f1b4a1c5432faf14cf17b774e860405160405180910390a150565b611af2612437565b5f73ffffffffffffffffffffffffffffffffffffffff168173ffffffffffffffffffffffffffffffffffffffff1603611b62575f6040517f1e4fbdf7000000000000000000000000000000000000000000000000000000008152600401611b599190613f0f565b60405180910390fd5b611b6b816124be565b50565b5f80611b78611df7565b9050806001015f9054906101000a900473ffffffffffffffffffffffffffffffffffffffff1691505090565b5f611bad611e5e565b5f611bb6611df7565b90505f5b84849050811015611c7b57815f015f9054906101000a900473ffffffffffffffffffffffffffffffffffffffff1673ffffffffffffffffffffffffffffffffffffffff166323b872dd3033888886818110611c1857611c176142b8565b5b905060200201356040518463ffffffff1660e01b8152600401611c3d939291906142e5565b5f604051808303815f87803b158015611c54575f80fd5b505af1158015611c66573d5f803e3d5ffd5b5050505080611c7490614347565b9050611bba565b505f84849050825f0160149054906101000a90046bffffffffffffffffffffffff166bffffffffffffffffffffffff16611cb59190614497565b9050611cc13382612882565b3373ffffffffffffffffffffffffffffffffffffffff167f37b61d4ad848b88e12400720902b770c20d100ba950eabbfa4f37ee7b47302ca8686604051611d099291906144d8565b60405180910390a2809250505092915050565b5f80611d26611df7565b90508060010160159054906101000a900460ff1691505090565b5f7ff0c57e16840df040f15088dc2f81fe391c3923bec73e23a9662efc9c229c6a00905090565b611d6f612901565b611d7881612941565b50565b611d83612901565b611d8d82826129c5565b5050565b611d99612901565b611dd8816040518060400160405280600181526020017f3100000000000000000000000000000000000000000000000000000000000000815250612a01565b50565b611de3612901565b611deb612a52565b565b611df5612901565b565b5f7faad48c25d976bddae43806613caf4683472e13f174a999da79654799a1b85f00905090565b5f7f52c63247e1f47db19d5ce0460030c497f067ca4cebf71ba98eeadabe20bace00905090565b5f33905090565b611e598383836001612a82565b505050565b611e66611352565b15611e9d576040517fd93c066500000000000000000000000000000000000000000000000000000000815260040160405180910390fd5b565b5f611eaa84846119fb565b90507fffffffffffffffffffffffffffffffffffffffffffffffffffffffffffffffff8114611f2b5781811015611f1c578281836040517ffb8f41b2000000000000000000000000000000000000000000000000000000008152600401611f13939291906146ad565b60405180910390fd5b611f2a84848484035f612a82565b5b50505050565b5f73ffffffffffffffffffffffffffffffffffffffff168373ffffffffffffffffffffffffffffffffffffffff1603611fa1575f6040517f96c6fd1e000000000000000000000000000000000000000000000000000000008152600401611f989190613f0f565b60405180910390fd5b5f73ffffffffffffffffffffffffffffffffffffffff168273ffffffffffffffffffffffffffffffffffffffff1603612011575f6040517fec442f050000000000000000000000000000000000000000000000000000000081526004016120089190613f0f565b60405180910390fd5b61201c838383612c5f565b505050565b5f61202a612e8e565b905090565b612037612ef1565b5f612040612410565b90505f815f015f6101000a81548160ff0219169083151502179055507f5db9ee0a495bf2e6ff9c91a7834c1ba4fdd244a5e8aa4e537bd38aeae4b073aa612085611e45565b6040516120929190613f0f565b60405180910390a150565b7f000000000000000000000000000000000000000000000000000000000000000073ffffffffffffffffffffffffffffffffffffffff163073ffffffffffffffffffffffffffffffffffffffff16148061214a57507f000000000000000000000000000000000000000000000000000000000000000073ffffffffffffffffffffffffffffffffffffffff16612131612f31565b73ffffffffffffffffffffffffffffffffffffffff1614155b15612181576040517fe07c8dba00000000000000000000000000000000000000000000000000000000815260040160405180910390fd5b565b61218b612437565b5f612194611df7565b90508060010160159054906101000a900460ff16156121e8576040517f08c379a00000000000000000000000000000000000000000000000000000000081526004016121df9061472c565b60405180910390fd5b5050565b8173ffffffffffffffffffffffffffffffffffffffff166352d1902d6040518163ffffffff1660e01b8152600401602060405180830381865afa92505050801561225457506040513d601f19601f82011682018060405250810190612251919061475e565b60015b61229557816040517f4c9c8ce300000000000000000000000000000000000000000000000000000000815260040161228c9190613f0f565b60405180910390fd5b7f360894a13ba1a3210667c828492db98dca3e2076cc3735a920a3ca505d382bbc5f1b81146122fb57806040517faa1d49a40000000000000000000000000000000000000000000000000000000081526004016122f29190613b08565b60405180910390fd5b6123058383612f84565b505050565b7f000000000000000000000000000000000000000000000000000000000000000073ffffffffffffffffffffffffffffffffffffffff163073ffffffffffffffffffffffffffffffffffffffff161461238f576040517fe07c8dba00000000000000000000000000000000000000000000000000000000815260040160405180910390fd5b565b5f73ffffffffffffffffffffffffffffffffffffffff168273ffffffffffffffffffffffffffffffffffffffff1603612401575f6040517fec442f050000000000000000000000000000000000000000000000000000000081526004016123f89190613f0f565b60405180910390fd5b61240c5f8383612c5f565b5050565b5f7fcd5ed15c6e187e77e9aee88184c21f4f2182ab5827cb3b7e07fbedcd63f03300905090565b61243f611e45565b73ffffffffffffffffffffffffffffffffffffffff1661245d61175a565b73ffffffffffffffffffffffffffffffffffffffff16146124bc57612480611e45565b6040517f118cdaa70000000000000000000000000000000000000000000000000000000081526004016124b39190613f0f565b60405180910390fd5b565b5f6124c76127b4565b90505f815f015f9054906101000a900473ffffffffffffffffffffffffffffffffffffffff16905082825f015f6101000a81548173ffffffffffffffffffffffffffffffffffffffff021916908373ffffffffffffffffffffffffffffffffffffffff1602179055508273ffffffffffffffffffffffffffffffffffffffff168173ffffffffffffffffffffffffffffffffffffffff167f8be0079c531659141344cd1fd0a4f28419497f9722a3daafe3b4186f6b6457e060405160405180910390a3505050565b5f80612599612ff6565b9050805f015f8473ffffffffffffffffffffffffffffffffffffffff1673ffffffffffffffffffffffffffffffffffffffff1681526020019081526020015f2054915050919050565b6125ea611e5e565b5f6125f3612410565b90506001815f015f6101000a81548160ff0219169083151502179055507f62e78cea01bee320cd4e420270b5ea74000d11b0c9f74754ebdbfc544b05a258612639611e45565b6040516126469190613f0f565b60405180910390a150565b5f7fa16a46d94261c7517cc8ff89f61c0ce93598e3c849801011dee649a6a557d100905090565b60605f612683612651565b905080600201805461269490614220565b80601f01602080910402602001604051908101604052809291908181526020018280546126c090614220565b801561270b5780601f106126e25761010080835404028352916020019161270b565b820191905f5260205f20905b8154815290600101906020018083116126ee57829003601f168201915b505050505091505090565b60605f612721612651565b905080600301805461273290614220565b80601f016020809104026020016040519081016040528092919081815260200182805461275e90614220565b80156127a95780601f10612780576101008083540402835291602001916127a9565b820191905f5260205f20905b81548152906001019060200180831161278c57829003601f168201915b505050505091505090565b5f7f9016d09d72d40fdae2fd8ceac6b6234c7706214fd39c1cd1e609a0528c199300905090565b5f806127e5612ff6565b9050805f015f8473ffffffffffffffffffffffffffffffffffffffff1673ffffffffffffffffffffffffffffffffffffffff1681526020019081526020015f205f81548092919060010191905055915050919050565b5f61284d612847612021565b8361301d565b9050919050565b5f805f806128648888888861305d565b9250925092506128748282613144565b829350505050949350505050565b5f73ffffffffffffffffffffffffffffffffffffffff168273ffffffffffffffffffffffffffffffffffffffff16036128f2575f6040517f96c6fd1e0000000000000000000000000000000000000000000000000000000081526004016128e99190613f0f565b60405180910390fd5b6128fd825f83612c5f565b5050565b6129096132a6565b61293f576040517fd7e6bcf800000000000000000000000000000000000000000000000000000000815260040160405180910390fd5b565b612949612901565b5f73ffffffffffffffffffffffffffffffffffffffff168173ffffffffffffffffffffffffffffffffffffffff16036129b9575f6040517f1e4fbdf70000000000000000000000000000000000000000000000000000000081526004016129b09190613f0f565b60405180910390fd5b6129c2816124be565b50565b6129cd612901565b5f6129d6611e1e565b9050828160030190816129e9919061491d565b50818160040190816129fb919061491d565b50505050565b612a09612901565b5f612a12612651565b905082816002019081612a25919061491d565b5081816003019081612a37919061491d565b505f801b815f01819055505f801b8160010181905550505050565b612a5a612901565b5f612a63612410565b90505f815f015f6101000a81548160ff02191690831515021790555050565b5f612a8b611e1e565b90505f73ffffffffffffffffffffffffffffffffffffffff168573ffffffffffffffffffffffffffffffffffffffff1603612afd575f6040517fe602df05000000000000000000000000000000000000000000000000000000008152600401612af49190613f0f565b60405180910390fd5b5f73ffffffffffffffffffffffffffffffffffffffff168473ffffffffffffffffffffffffffffffffffffffff1603612b6d575f6040517f94280d62000000000000000000000000000000000000000000000000000000008152600401612b649190613f0f565b60405180910390fd5b82816001015f8773ffffffffffffffffffffffffffffffffffffffff1673ffffffffffffffffffffffffffffffffffffffff1681526020019081526020015f205f8673ffffffffffffffffffffffffffffffffffffffff1673ffffffffffffffffffffffffffffffffffffffff1681526020019081526020015f20819055508115612c58578373ffffffffffffffffffffffffffffffffffffffff168573ffffffffffffffffffffffffffffffffffffffff167f8c5be1e5ebec7d5bd14f71427d1e84f3dd0314c0f7b2291e5b200ac8c7c3b92585604051612c4f9190613a5f565b60405180910390a35b5050505050565b5f612c68611e1e565b90505f73ffffffffffffffffffffffffffffffffffffffff168473ffffffffffffffffffffffffffffffffffffffff1603612cbc5781816002015f828254612cb091906149ec565b92505081905550612d8e565b5f815f015f8673ffffffffffffffffffffffffffffffffffffffff1673ffffffffffffffffffffffffffffffffffffffff1681526020019081526020015f2054905082811015612d47578481846040517fe450d38c000000000000000000000000000000000000000000000000000000008152600401612d3e939291906146ad565b60405180910390fd5b828103825f015f8773ffffffffffffffffffffffffffffffffffffffff1673ffffffffffffffffffffffffffffffffffffffff1681526020019081526020015f2081905550505b5f73ffffffffffffffffffffffffffffffffffffffff168373ffffffffffffffffffffffffffffffffffffffff1603612dd75781816002015f8282540392505081905550612e23565b81815f015f8573ffffffffffffffffffffffffffffffffffffffff1673ffffffffffffffffffffffffffffffffffffffff1681526020019081526020015f205f82825401925050819055505b8273ffffffffffffffffffffffffffffffffffffffff168473ffffffffffffffffffffffffffffffffffffffff167fddf252ad1be2c89b69c2b068fc378daa952ba7f163c4a11628f55a4df523b3ef84604051612e809190613a5f565b60405180910390a350505050565b5f7f8b73c3c69bb8fe3d512ecc4cf759cc79239f7b179b0ffacaa9a75d522b39400f612eb86132c4565b612ec061333a565b4630604051602001612ed6959493929190614a1f565b60405160208183030381529060405280519060200120905090565b612ef9611352565b612f2f576040517f8dfc202b00000000000000000000000000000000000000000000000000000000815260040160405180910390fd5b565b5f612f5d7f360894a13ba1a3210667c828492db98dca3e2076cc3735a920a3ca505d382bbc5f1b6133b1565b5f015f9054906101000a900473ffffffffffffffffffffffffffffffffffffffff16905090565b612f8d826133ba565b8173ffffffffffffffffffffffffffffffffffffffff167fbc7cd75a20ee27fd9adebab32041f755214dbc6bffa90cc0225b39da2e5c2d3b60405160405180910390a25f81511115612fe957612fe38282613483565b50612ff2565b612ff1613503565b5b5050565b5f7f5ab42ced628888259c08ac98db1eb0cf702fc1501344311d8b100cd1bfe4bb00905090565b5f6040517f190100000000000000000000000000000000000000000000000000000000000081528360028201528260228201526042812091505092915050565b5f805f7f7fffffffffffffffffffffffffffffff5d576e7357a4501ddfe92f46681b20a0845f1c1115613099575f60038592509250925061313a565b5f6001888888886040515f81526020016040526040516130bc9493929190614a70565b6020604051602081039080840390855afa1580156130dc573d5f803e3d5ffd5b5050506020604051035190505f73ffffffffffffffffffffffffffffffffffffffff168173ffffffffffffffffffffffffffffffffffffffff160361312d575f60015f801b9350935093505061313a565b805f805f1b935093509350505b9450945094915050565b5f600381111561315757613156614ab3565b5b82600381111561316a57613169614ab3565b5b03156132a2576001600381111561318457613183614ab3565b5b82600381111561319757613196614ab3565b5b036131ce576040517ff645eedf00000000000000000000000000000000000000000000000000000000815260040160405180910390fd5b600260038111156131e2576131e1614ab3565b5b8260038111156131f5576131f4614ab3565b5b0361323957805f1c6040517ffce698f70000000000000000000000000000000000000000000000000000000081526004016132309190613a5f565b60405180910390fd5b60038081111561324c5761324b614ab3565b5b82600381111561325f5761325e614ab3565b5b036132a157806040517fd78bce0c0000000000000000000000000000000000000000000000000000000081526004016132989190613b08565b60405180910390fd5b5b5050565b5f6132af611d40565b5f0160089054906101000a900460ff16905090565b5f806132ce612651565b90505f6132d9612678565b90505f815111156132f557808051906020012092505050613337565b5f825f015490505f801b811461331057809350505050613337565b7fc5d2460186f7233c927e7db2dcc703c0e500b653ca82273b7bfad8045d85a47093505050505b90565b5f80613344612651565b90505f61334f612716565b90505f8151111561336b578080519060200120925050506133ae565b5f826001015490505f801b8114613387578093505050506133ae565b7fc5d2460186f7233c927e7db2dcc703c0e500b653ca82273b7bfad8045d85a47093505050505b90565b5f819050919050565b5f8173ffffffffffffffffffffffffffffffffffffffff163b0361341557806040517f4c9c8ce300000000000000000000000000000000000000000000000000000000815260040161340c9190613f0f565b60405180910390fd5b806134417f360894a13ba1a3210667c828492db98dca3e2076cc3735a920a3ca505d382bbc5f1b6133b1565b5f015f6101000a81548173ffffffffffffffffffffffffffffffffffffffff021916908373ffffffffffffffffffffffffffffffffffffffff16021790555050565b60605f808473ffffffffffffffffffffffffffffffffffffffff16846040516134ac9190614b24565b5f60405180830381855af49150503d805f81146134e4576040519150601f19603f3d011682016040523d82523d5f602084013e6134e9565b606091505b50915091506134f985838361353f565b9250505092915050565b5f34111561353d576040517fb398979f00000000000000000000000000000000000000000000000000000000815260040160405180910390fd5b565b6060826135545761354f826135cc565b6135c4565b5f825114801561357a57505f8473ffffffffffffffffffffffffffffffffffffffff163b145b156135bc57836040517f9996b3150000000000000000000000000000000000000000000000000000000081526004016135b39190613f0f565b60405180910390fd5b8190506135c5565b5b9392505050565b5f815111156135de5780518082602001fd5b6040517f1425ea4200000000000000000000000000000000000000000000000000000000815260040160405180910390fd5b5f604051905090565b5f80fd5b5f80fd5b5f73ffffffffffffffffffffffffffffffffffffffff82169050919050565b5f61364a82613621565b9050919050565b61365a81613640565b8114613664575f80fd5b50565b5f8135905061367581613651565b92915050565b5f80fd5b5f80fd5b5f80fd5b5f8083601f84011261369c5761369b61367b565b5b8235905067ffffffffffffffff8111156136b9576136b861367f565b5b6020830191508360018202830111156136d5576136d4613683565b5b9250929050565b5f60ff82169050919050565b6136f1816136dc565b81146136fb575f80fd5b50565b5f8135905061370c816136e8565b92915050565b5f6bffffffffffffffffffffffff82169050919050565b61373281613712565b811461373c575f80fd5b50565b5f8135905061374d81613729565b92915050565b5f805f805f805f805f60e08a8c0312156137705761376f613619565b5b5f61377d8c828d01613667565b99505060208a013567ffffffffffffffff81111561379e5761379d61361d565b5b6137aa8c828d01613687565b985098505060408a013567ffffffffffffffff8111156137cd576137cc61361d565b5b6137d98c828d01613687565b965096505060606137ec8c828d016136fe565b94505060806137fd8c828d01613667565b93505060a061380e8c828d0161373f565b92505060c061381f8c828d01613667565b9150509295985092959850929598565b5f81519050919050565b5f82825260208201905092915050565b5f5b8381101561386657808201518184015260208101905061384b565b5f8484015250505050565b5f601f19601f8301169050919050565b5f61388b8261382f565b6138958185613839565b93506138a5818560208601613849565b6138ae81613871565b840191505092915050565b5f6020820190508181035f8301526138d18184613881565b905092915050565b5f819050919050565b6138eb816138d9565b81146138f5575f80fd5b50565b5f81359050613906816138e2565b92915050565b5f806040838503121561392257613921613619565b5b5f61392f85828601613667565b9250506020613940858286016138f8565b9150509250929050565b5f8115159050919050565b61395e8161394a565b82525050565b5f6020820190506139775f830184613955565b92915050565b5f8083601f8401126139925761399161367b565b5b8235905067ffffffffffffffff8111156139af576139ae61367f565b5b6020830191508360208202830111156139cb576139ca613683565b5b9250929050565b5f805f80604085870312156139ea576139e9613619565b5b5f85013567ffffffffffffffff811115613a0757613a0661361d565b5b613a138782880161397d565b9450945050602085013567ffffffffffffffff811115613a3657613a3561361d565b5b613a428782880161397d565b925092505092959194509250565b613a59816138d9565b82525050565b5f602082019050613a725f830184613a50565b92915050565b5f805f60608486031215613a8f57613a8e613619565b5b5f613a9c86828701613667565b9350506020613aad86828701613667565b9250506040613abe868287016138f8565b9150509250925092565b613ad1816136dc565b82525050565b5f602082019050613aea5f830184613ac8565b92915050565b5f819050919050565b613b0281613af0565b82525050565b5f602082019050613b1b5f830184613af9565b92915050565b5f819050919050565b5f613b44613b3f613b3a84613621565b613b21565b613621565b9050919050565b5f613b5582613b2a565b9050919050565b5f613b6682613b4b565b9050919050565b613b7681613b5c565b82525050565b5f602082019050613b8f5f830184613b6d565b92915050565b5f80fd5b7f4e487b71000000000000000000000000000000000000000000000000000000005f52604160045260245ffd5b613bcf82613871565b810181811067ffffffffffffffff82111715613bee57613bed613b99565b5b80604052505050565b5f613c00613610565b9050613c0c8282613bc6565b919050565b5f67ffffffffffffffff821115613c2b57613c2a613b99565b5b613c3482613871565b9050602081019050919050565b828183375f83830152505050565b5f613c61613c5c84613c11565b613bf7565b905082815260208101848484011115613c7d57613c7c613b95565b5b613c88848285613c41565b509392505050565b5f82601f830112613ca457613ca361367b565b5b8135613cb4848260208601613c4f565b91505092915050565b5f8060408385031215613cd357613cd2613619565b5b5f613ce085828601613667565b925050602083013567ffffffffffffffff811115613d0157613d0061361d565b5b613d0d85828601613c90565b9150509250929050565b5f8060208385031215613d2d57613d2c613619565b5b5f83013567ffffffffffffffff811115613d4a57613d4961361d565b5b613d568582860161397d565b92509250509250929050565b5f60208284031215613d7757613d76613619565b5b5f613d8484828501613667565b91505092915050565b5f7fff0000000000000000000000000000000000000000000000000000000000000082169050919050565b613dc181613d8d565b82525050565b613dd081613640565b82525050565b5f81519050919050565b5f82825260208201905092915050565b5f819050602082019050919050565b613e08816138d9565b82525050565b5f613e198383613dff565b60208301905092915050565b5f602082019050919050565b5f613e3b82613dd6565b613e458185613de0565b9350613e5083613df0565b805f5b83811015613e80578151613e678882613e0e565b9750613e7283613e25565b925050600181019050613e53565b5085935050505092915050565b5f60e082019050613ea05f83018a613db8565b8181036020830152613eb28189613881565b90508181036040830152613ec68188613881565b9050613ed56060830187613a50565b613ee26080830186613dc7565b613eef60a0830185613af9565b81810360c0830152613f018184613e31565b905098975050505050505050565b5f602082019050613f225f830184613dc7565b92915050565b613f3181613712565b82525050565b5f602082019050613f4a5f830184613f28565b92915050565b613f5981613af0565b8114613f63575f80fd5b50565b5f81359050613f7481613f50565b92915050565b5f805f805f805f60e0888a031215613f9557613f94613619565b5b5f613fa28a828b01613667565b9750506020613fb38a828b01613667565b9650506040613fc48a828b016138f8565b9550506060613fd58a828b016138f8565b9450506080613fe68a828b016136fe565b93505060a0613ff78a828b01613f66565b92505060c06140088a828b01613f66565b91505092959891949750929550565b5f806040838503121561402d5761402c613619565b5b5f61403a85828601613667565b925050602061404b85828601613667565b9150509250929050565b7f4e46544261636b6564546f6b656e3a20616d6f756e745065724e4654206973205f8201527f7a65726f00000000000000000000000000000000000000000000000000000000602082015250565b5f6140af602483613839565b91506140ba82614055565b604082019050919050565b5f6020820190508181035f8301526140dc816140a3565b9050919050565b5f6140ee8385613839565b93506140fb838584613c41565b61410483613871565b840190509392505050565b5f60e0820190506141225f83018c613dc7565b8181036020830152614135818a8c6140e3565b9050818103604083015261414a81888a6140e3565b90506141596060830187613ac8565b6141666080830186613dc7565b61417360a0830185613f28565b61418060c0830184613dc7565b9a9950505050505050505050565b5f819050919050565b5f67ffffffffffffffff82169050919050565b5f6141c46141bf6141ba8461418e565b613b21565b614197565b9050919050565b6141d4816141aa565b82525050565b5f6020820190506141ed5f8301846141cb565b92915050565b7f4e487b71000000000000000000000000000000000000000000000000000000005f52602260045260245ffd5b5f600282049050600182168061423757607f821691505b60208210810361424a576142496141f3565b5b50919050565b7f4e46544261636b6564546f6b656e3a206c656e677468206d69736d61746368005f82015250565b5f614284601f83613839565b915061428f82614250565b602082019050919050565b5f6020820190508181035f8301526142b181614278565b9050919050565b7f4e487b71000000000000000000000000000000000000000000000000000000005f52603260045260245ffd5b5f6060820190506142f85f830186613dc7565b6143056020830185613dc7565b6143126040830184613a50565b949350505050565b7f4e487b71000000000000000000000000000000000000000000000000000000005f52601160045260245ffd5b5f614351826138d9565b91507fffffffffffffffffffffffffffffffffffffffffffffffffffffffffffffffff82036143835761438261431a565b5b600182019050919050565b5f80fd5b82818337505050565b5f6143a68385613de0565b93507f07ffffffffffffffffffffffffffffffffffffffffffffffffffffffffffffff8311156143d9576143d861438e565b5b6020830292506143ea838584614392565b82840190509392505050565b5f6040820190508181035f83015261440f81868861439b565b9050818103602083015261442481848661439b565b905095945050505050565b7f6d7573742062652061646d696e206f72206f776e6572000000000000000000005f82015250565b5f614463601683613839565b915061446e8261442f565b602082019050919050565b5f6020820190508181035f83015261449081614457565b9050919050565b5f6144a1826138d9565b91506144ac836138d9565b92508282026144ba816138d9565b915082820484148315176144d1576144d061431a565b5b5092915050565b5f6020820190508181035f8301526144f181848661439b565b90509392505050565b7f4e487b71000000000000000000000000000000000000000000000000000000005f52601260045260245ffd5b5f614531826138d9565b915061453c836138d9565b92508261454c5761454b6144fa565b5b828204905092915050565b7f6d7573742062652061646d696e000000000000000000000000000000000000005f82015250565b5f61458b600d83613839565b915061459682614557565b602082019050919050565b5f6020820190508181035f8301526145b88161457f565b9050919050565b7f4549503731323a20556e696e697469616c697a656400000000000000000000005f82015250565b5f6145f3601583613839565b91506145fe826145bf565b602082019050919050565b5f6020820190508181035f830152614620816145e7565b9050919050565b5f60c08201905061463a5f830189613af9565b6146476020830188613dc7565b6146546040830187613dc7565b6146616060830186613a50565b61466e6080830185613a50565b61467b60a0830184613a50565b979650505050505050565b5f6040820190506146995f830185613dc7565b6146a66020830184613dc7565b9392505050565b5f6060820190506146c05f830186613dc7565b6146cd6020830185613a50565b6146da6040830184613a50565b949350505050565b7f75706772616465732064697361626c65640000000000000000000000000000005f82015250565b5f614716601183613839565b9150614721826146e2565b602082019050919050565b5f6020820190508181035f8301526147438161470a565b9050919050565b5f8151905061475881613f50565b92915050565b5f6020828403121561477357614772613619565b5b5f6147808482850161474a565b91505092915050565b5f819050815f5260205f209050919050565b5f6020601f8301049050919050565b5f82821b905092915050565b5f600883026147e57fffffffffffffffffffffffffffffffffffffffffffffffffffffffffffffffff826147aa565b6147ef86836147aa565b95508019841693508086168417925050509392505050565b5f61482161481c614817846138d9565b613b21565b6138d9565b9050919050565b5f819050919050565b61483a83614807565b61484e61484682614828565b8484546147b6565b825550505050565b5f90565b614862614856565b61486d818484614831565b505050565b5b81811015614890576148855f8261485a565b600181019050614873565b5050565b601f8211156148d5576148a681614789565b6148af8461479b565b810160208510156148be578190505b6148d26148ca8561479b565b830182614872565b50505b505050565b5f82821c905092915050565b5f6148f55f19846008026148da565b1980831691505092915050565b5f61490d83836148e6565b9150826002028217905092915050565b6149268261382f565b67ffffffffffffffff81111561493f5761493e613b99565b5b6149498254614220565b614954828285614894565b5f60209050601f831160018114614985575f8415614973578287015190505b61497d8582614902565b8655506149e4565b601f19841661499386614789565b5f5b828110156149ba57848901518255600182019150602085019450602081019050614995565b868310156149d757848901516149d3601f8916826148e6565b8355505b6001600288020188555050505b505050505050565b5f6149f6826138d9565b9150614a01836138d9565b9250828201905080821115614a1957614a1861431a565b5b92915050565b5f60a082019050614a325f830188613af9565b614a3f6020830187613af9565b614a4c6040830186613af9565b614a596060830185613a50565b614a666080830184613dc7565b9695505050505050565b5f608082019050614a835f830187613af9565b614a906020830186613ac8565b614a9d6040830185613af9565b614aaa6060830184613af9565b95945050505050565b7f4e487b71000000000000000000000000000000000000000000000000000000005f52602160045260245ffd5b5f81519050919050565b5f81905092915050565b5f614afe82614ae0565b614b088185614aea565b9350614b18818560208601613849565b80840191505092915050565b5f614b2f8284614af4565b91508190509291505056fea2646970667358221220f0e6161cb840ccfc99d7a2f6863dc747f41a19d3d86d6f81988ee3fe58b3128464736f6c63430008140033",
			"opcodes": "PUSH1 0xA0 PUSH1 0x40 MSTORE CALLVALUE DUP1 ISZERO PUSH2 0xF JUMPI PUSH0 DUP1 REVERT JUMPDEST POP PUSH1 0x40 MLOAD PUSH2 0x1C SWAP1 PUSH2 0x6E JUMP JUMPDEST PUSH1 0x40 MLOAD DUP1 SWAP2 SUB SWAP1 PUSH0 CREATE DUP1 ISZERO DUP1 ISZERO PUSH2 0x35 JUMPI RETURNDATASIZE PUSH0 DUP1 RETURNDATACOPY RETURNDATASIZE PUSH0 REVERT JUMPDEST POP PUSH20 0xFFFFFFFFFFFFFFFFFFFFFFFFFFFFFFFFFFFFFFFF AND PUSH1 0x80 DUP2 PUSH20 0xFFFFFFFFFFFFFFFFFFFFFFFFFFFFFFFFFFFFFFFF AND DUP2 MSTORE POP POP PUSH2 0x7B JUMP JUMPDEST PUSH2 0x4E05 DUP1 PUSH2 0xECD DUP4 CODECOPY ADD SWAP1 JUMP JUMPDEST PUSH1 0x80 MLOAD PUSH2 0xE2C PUSH2 0xA1 PUSH0 CODECOPY PUSH0 DUP2 DUP2 PUSH2 0x13E ADD MSTORE DUP2 DUP2 PUSH2 0x311 ADD MSTORE PUSH2 0x383 ADD MSTORE PUSH2 0xE2C PUSH0 RETURN INVALID PUSH1 0x80 PUSH1 0x40 MSTORE CALLVALUE DUP1 ISZERO PUSH2 0xF JUMPI PUSH0 DUP1 REVERT JUMPDEST POP PUSH1 0x4 CALLDATASIZE LT PUSH2 0x55 JUMPI PUSH0 CALLDATALOAD PUSH1 0xE0 SHR DUP1 PUSH4 0x2A7202B EQ PUSH2 0x59 JUMPI DUP1 PUSH4 0x94E69EF5 EQ PUSH2 0x89 JUMPI DUP1 PUSH4 0xC5160B76 EQ PUSH2 0xB9 JUMPI DUP1 PUSH4 0xCE656C74 EQ PUSH2 0xE9 JUMPI DUP1 PUSH4 0xFFC4992F EQ PUSH2 0x119 JUMPI JUMPDEST PUSH0 DUP1 REVERT JUMPDEST PUSH2 0x73 PUSH1 0x4 DUP1 CALLDATASIZE SUB DUP2 ADD SWAP1 PUSH2 0x6E SWAP2 SWAP1 PUSH2 0x66B JUMP JUMPDEST PUSH2 0x137 JUMP JUMPDEST PUSH1 0x40 MLOAD PUSH2 0x80 SWAP2 SWAP1 PUSH2 0x76B JUMP JUMPDEST PUSH1 0x40 MLOAD DUP1 SWAP2 SUB SWAP1 RETURN JUMPDEST PUSH2 0xA3 PUSH1 0x4 DUP1 CALLDATASIZE SUB DUP2 ADD SWAP1 PUSH2 0x9E SWAP2 SWAP1 PUSH2 0x784 JUMP JUMPDEST PUSH2 0x276 JUMP JUMPDEST PUSH1 0x40 MLOAD PUSH2 0xB0 SWAP2 SWAP1 PUSH2 0x76B JUMP JUMPDEST PUSH1 0x40 MLOAD DUP1 SWAP2 SUB SWAP1 RETURN JUMPDEST PUSH2 0xD3 PUSH1 0x4 DUP1 CALLDATASIZE SUB DUP2 ADD SWAP1 PUSH2 0xCE SWAP2 SWAP1 PUSH2 0x889 JUMP JUMPDEST PUSH2 0x308 JUMP JUMPDEST PUSH1 0x40 MLOAD PUSH2 0xE0 SWAP2 SWAP1 PUSH2 0x76B JUMP JUMPDEST PUSH1 0x40 MLOAD DUP1 SWAP2 SUB SWAP1 RETURN JUMPDEST PUSH2 0x103 PUSH1 0x4 DUP1 CALLDATASIZE SUB DUP2 ADD SWAP1 PUSH2 0xFE SWAP2 SWAP1 PUSH2 0x98E JUMP JUMPDEST PUSH2 0x35F JUMP JUMPDEST PUSH1 0x40 MLOAD PUSH2 0x110 SWAP2 SWAP1 PUSH2 0x76B JUMP JUMPDEST PUSH1 0x40 MLOAD DUP1 SWAP2 SUB SWAP1 RETURN JUMPDEST PUSH2 0x121 PUSH2 0x381 JUMP JUMPDEST PUSH1 0x40 MLOAD PUSH2 0x12E SWAP2 SWAP1 PUSH2 0x76B JUMP JUMPDEST PUSH1 0x40 MLOAD DUP1 SWAP2 SUB SWAP1 RETURN JUMPDEST PUSH0 DUP1 PUSH2 0x175 PUSH32 0x0 PUSH2 0x170 CALLER DUP16 DUP16 DUP16 DUP16 DUP16 DUP16 DUP16 DUP16 DUP16 DUP16 PUSH2 0x3A5 JUMP JUMPDEST PUSH2 0x3F2 JUMP JUMPDEST SWAP1 POP DUP1 PUSH20 0xFFFFFFFFFFFFFFFFFFFFFFFFFFFFFFFFFFFFFFFF AND PUSH4 0x60B8859 DUP14 DUP14 DUP14 DUP14 DUP14 DUP14 DUP14 DUP14 DUP14 PUSH1 0x40 MLOAD DUP11 PUSH4 0xFFFFFFFF AND PUSH1 0xE0 SHL DUP2 MSTORE PUSH1 0x4 ADD PUSH2 0x1C0 SWAP10 SWAP9 SWAP8 SWAP7 SWAP6 SWAP5 SWAP4 SWAP3 SWAP2 SWAP1 PUSH2 0xAE2 JUMP JUMPDEST PUSH0 PUSH1 0x40 MLOAD DUP1 DUP4 SUB DUP2 PUSH0 DUP8 DUP1 EXTCODESIZE ISZERO DUP1 ISZERO PUSH2 0x1D7 JUMPI PUSH0 DUP1 REVERT JUMPDEST POP GAS CALL ISZERO DUP1 ISZERO PUSH2 0x1E9 JUMPI RETURNDATASIZE PUSH0 DUP1 RETURNDATACOPY RETURNDATASIZE PUSH0 REVERT JUMPDEST POP POP POP POP DUP12 PUSH20 0xFFFFFFFFFFFFFFFFFFFFFFFFFFFFFFFFFFFFFFFF AND CALLER PUSH20 0xFFFFFFFFFFFFFFFFFFFFFFFFFFFFFFFFFFFFFFFF AND PUSH32 0xB23586E1F178D2847FCC6E1DBFA72000DD28FFEB0A687F53821C7EA3B698E20D DUP14 DUP14 DUP14 DUP14 DUP14 DUP14 DUP14 DUP14 DUP14 DUP13 PUSH1 0x40 MLOAD PUSH2 0x25C SWAP11 SWAP10 SWAP9 SWAP8 SWAP7 SWAP6 SWAP5 SWAP4 SWAP3 SWAP2 SWAP1 PUSH2 0xB61 JUMP JUMPDEST PUSH1 0x40 MLOAD DUP1 SWAP2 SUB SWAP1 LOG3 DUP1 SWAP2 POP POP SWAP11 SWAP10 POP POP POP POP POP POP POP POP POP POP JUMP JUMPDEST PUSH0 PUSH2 0x289 DUP13 DUP13 DUP13 DUP13 DUP13 DUP13 DUP13 DUP13 DUP13 DUP13 PUSH2 0x137 JUMP JUMPDEST SWAP1 POP DUP2 PUSH20 0xFFFFFFFFFFFFFFFFFFFFFFFFFFFFFFFFFFFFFFFF AND DUP2 PUSH20 0xFFFFFFFFFFFFFFFFFFFFFFFFFFFFFFFFFFFFFFFF AND EQ PUSH2 0x2F9 JUMPI PUSH1 0x40 MLOAD PUSH32 0x8C379A000000000000000000000000000000000000000000000000000000000 DUP2 MSTORE PUSH1 0x4 ADD PUSH2 0x2F0 SWAP1 PUSH2 0xC5F JUMP JUMPDEST PUSH1 0x40 MLOAD DUP1 SWAP2 SUB SWAP1 REVERT JUMPDEST SWAP12 SWAP11 POP POP POP POP POP POP POP POP POP POP POP JUMP JUMPDEST PUSH0 PUSH2 0x34E PUSH2 0x335 PUSH32 0x0 PUSH2 0x406 JUMP JUMPDEST PUSH2 0x348 DUP15 DUP15 DUP15 DUP15 DUP15 DUP15 DUP15 DUP15 DUP15 DUP15 DUP15 PUSH2 0x3A5 JUMP JUMPDEST ADDRESS PUSH2 0x47E JUMP JUMPDEST SWAP1 POP SWAP12 SWAP11 POP POP POP POP POP POP POP POP POP POP POP JUMP JUMPDEST PUSH0 PUSH2 0x372 DUP11 DUP11 DUP11 DUP11 DUP11 DUP11 DUP11 DUP11 DUP11 PUSH0 PUSH2 0x137 JUMP JUMPDEST SWAP1 POP SWAP10 SWAP9 POP POP POP POP POP POP POP POP POP JUMP JUMPDEST PUSH32 0x0 DUP2 JUMP JUMPDEST PUSH0 DUP12 DUP12 DUP12 DUP12 DUP12 DUP12 DUP12 DUP12 DUP12 DUP12 DUP12 PUSH1 0x40 MLOAD PUSH1 0x20 ADD PUSH2 0x3CB SWAP12 SWAP11 SWAP10 SWAP9 SWAP8 SWAP7 SWAP6 SWAP5 SWAP4 SWAP3 SWAP2 SWAP1 PUSH2 0xD58 JUMP JUMPDEST PUSH1 0x40 MLOAD PUSH1 0x20 DUP2 DUP4 SUB SUB DUP2 MSTORE SWAP1 PUSH1 0x40 MSTORE DUP1 MLOAD SWAP1 PUSH1 0x20 ADD KECCAK256 SWAP1 POP SWAP12 SWAP11 POP POP POP POP POP POP POP POP POP POP POP JUMP JUMPDEST PUSH0 PUSH2 0x3FE PUSH0 DUP5 DUP5 PUSH2 0x4A3 JUMP JUMPDEST SWAP1 POP SWAP3 SWAP2 POP POP JUMP JUMPDEST PUSH0 PUSH1 0x40 MLOAD PUSH32 0xCC3735A920A3CA505D382BBC545AF43D6000803E6038573D6000FD5B3D6000F3 PUSH1 0x60 MSTORE PUSH32 0x5155F3363D3D373D3D363D7F360894A13BA1A3210667C828492DB98DCA3E2076 PUSH1 0x40 MSTORE PUSH2 0x6009 PUSH1 0x20 MSTORE DUP3 PUSH1 0x1E MSTORE PUSH9 0x603D3D8160223D3973 PUSH1 0xA MSTORE PUSH1 0x5F PUSH1 0x21 KECCAK256 SWAP2 POP DUP1 PUSH1 0x40 MSTORE PUSH0 PUSH1 0x60 MSTORE POP SWAP2 SWAP1 POP JUMP JUMPDEST PUSH0 PUSH1 0xFF PUSH0 MSTORE8 DUP4 PUSH1 0x35 MSTORE DUP2 PUSH1 0x60 SHL PUSH1 0x1 MSTORE DUP3 PUSH1 0x15 MSTORE PUSH1 0x55 PUSH0 KECCAK256 SWAP1 POP PUSH0 PUSH1 0x35 MSTORE SWAP4 SWAP3 POP POP POP JUMP JUMPDEST PUSH0 PUSH1 0x40 MLOAD PUSH32 0xCC3735A920A3CA505D382BBC545AF43D6000803E6038573D6000FD5B3D6000F3 PUSH1 0x60 MSTORE PUSH32 0x5155F3363D3D373D3D363D7F360894A13BA1A3210667C828492DB98DCA3E2076 PUSH1 0x40 MSTORE PUSH2 0x6009 PUSH1 0x20 MSTORE DUP4 PUSH1 0x1E MSTORE PUSH9 0x603D3D8160223D3973 PUSH1 0xA MSTORE DUP3 PUSH1 0x5F PUSH1 0x21 DUP8 CREATE2 SWAP2 POP DUP2 PUSH2 0x521 JUMPI PUSH4 0x30116425 PUSH0 MSTORE PUSH1 0x4 PUSH1 0x1C REVERT JUMPDEST DUP1 PUSH1 0x40 MSTORE PUSH0 PUSH1 0x60 MSTORE POP SWAP4 SWAP3 POP POP POP JUMP JUMPDEST PUSH0 DUP1 REVERT JUMPDEST PUSH0 DUP1 REVERT JUMPDEST PUSH0 PUSH20 0xFFFFFFFFFFFFFFFFFFFFFFFFFFFFFFFFFFFFFFFF DUP3 AND SWAP1 POP SWAP2 SWAP1 POP JUMP JUMPDEST PUSH0 PUSH2 0x562 DUP3 PUSH2 0x539 JUMP JUMPDEST SWAP1 POP SWAP2 SWAP1 POP JUMP JUMPDEST PUSH2 0x572 DUP2 PUSH2 0x558 JUMP JUMPDEST DUP2 EQ PUSH2 0x57C JUMPI PUSH0 DUP1 REVERT JUMPDEST POP JUMP JUMPDEST PUSH0 DUP2 CALLDATALOAD SWAP1 POP PUSH2 0x58D DUP2 PUSH2 0x569 JUMP JUMPDEST SWAP3 SWAP2 POP POP JUMP JUMPDEST PUSH0 DUP1 REVERT JUMPDEST PUSH0 DUP1 REVERT JUMPDEST PUSH0 DUP1 REVERT JUMPDEST PUSH0 DUP1 DUP4 PUSH1 0x1F DUP5 ADD SLT PUSH2 0x5B4 JUMPI PUSH2 0x5B3 PUSH2 0x593 JUMP JUMPDEST JUMPDEST DUP3 CALLDATALOAD SWAP1 POP PUSH8 0xFFFFFFFFFFFFFFFF DUP2 GT ISZERO PUSH2 0x5D1 JUMPI PUSH2 0x5D0 PUSH2 0x597 JUMP JUMPDEST JUMPDEST PUSH1 0x20 DUP4 ADD SWAP2 POP DUP4 PUSH1 0x1 DUP3 MUL DUP4 ADD GT ISZERO PUSH2 0x5ED JUMPI PUSH2 0x5EC PUSH2 0x59B JUMP JUMPDEST JUMPDEST SWAP3 POP SWAP3 SWAP1 POP JUMP JUMPDEST PUSH0 PUSH1 0xFF DUP3 AND SWAP1 POP SWAP2 SWAP1 POP JUMP JUMPDEST PUSH2 0x609 DUP2 PUSH2 0x5F4 JUMP JUMPDEST DUP2 EQ PUSH2 0x613 JUMPI PUSH0 DUP1 REVERT JUMPDEST POP JUMP JUMPDEST PUSH0 DUP2 CALLDATALOAD SWAP1 POP PUSH2 0x624 DUP2 PUSH2 0x600 JUMP JUMPDEST SWAP3 SWAP2 POP POP JUMP JUMPDEST PUSH0 PUSH12 0xFFFFFFFFFFFFFFFFFFFFFFFF DUP3 AND SWAP1 POP SWAP2 SWAP1 POP JUMP JUMPDEST PUSH2 0x64A DUP2 PUSH2 0x62A JUMP JUMPDEST DUP2 EQ PUSH2 0x654 JUMPI PUSH0 DUP1 REVERT JUMPDEST POP JUMP JUMPDEST PUSH0 DUP2 CALLDATALOAD SWAP1 POP PUSH2 0x665 DUP2 PUSH2 0x641 JUMP JUMPDEST SWAP3 SWAP2 POP POP JUMP JUMPDEST PUSH0 DUP1 PUSH0 DUP1 PUSH0 DUP1 PUSH0 DUP1 PUSH0 DUP1 PUSH2 0x100 DUP12 DUP14 SUB SLT ISZERO PUSH2 0x68A JUMPI PUSH2 0x689 PUSH2 0x531 JUMP JUMPDEST JUMPDEST PUSH0 PUSH2 0x697 DUP14 DUP3 DUP15 ADD PUSH2 0x57F JUMP JUMPDEST SWAP11 POP POP PUSH1 0x20 DUP12 ADD CALLDATALOAD PUSH8 0xFFFFFFFFFFFFFFFF DUP2 GT ISZERO PUSH2 0x6B8 JUMPI PUSH2 0x6B7 PUSH2 0x535 JUMP JUMPDEST JUMPDEST PUSH2 0x6C4 DUP14 DUP3 DUP15 ADD PUSH2 0x59F JUMP JUMPDEST SWAP10 POP SWAP10 POP POP PUSH1 0x40 DUP12 ADD CALLDATALOAD PUSH8 0xFFFFFFFFFFFFFFFF DUP2 GT ISZERO PUSH2 0x6E7 JUMPI PUSH2 0x6E6 PUSH2 0x535 JUMP JUMPDEST JUMPDEST PUSH2 0x6F3 DUP14 DUP3 DUP15 ADD PUSH2 0x59F JUMP JUMPDEST SWAP8 POP SWAP8 POP POP PUSH1 0x60 PUSH2 0x706 DUP14 DUP3 DUP15 ADD PUSH2 0x616 JUMP JUMPDEST SWAP6 POP POP PUSH1 0x80 PUSH2 0x717 DUP14 DUP3 DUP15 ADD PUSH2 0x57F JUMP JUMPDEST SWAP5 POP POP PUSH1 0xA0 PUSH2 0x728 DUP14 DUP3 DUP15 ADD PUSH2 0x657 JUMP JUMPDEST SWAP4 POP POP PUSH1 0xC0 PUSH2 0x739 DUP14 DUP3 DUP15 ADD PUSH2 0x57F JUMP JUMPDEST SWAP3 POP POP PUSH1 0xE0 PUSH2 0x74A DUP14 DUP3 DUP15 ADD PUSH2 0x616 JUMP JUMPDEST SWAP2 POP POP SWAP3 SWAP6 SWAP9 SWAP12 SWAP2 SWAP5 SWAP8 SWAP11 POP SWAP3 SWAP6 SWAP9 POP JUMP JUMPDEST PUSH2 0x765 DUP2 PUSH2 0x558 JUMP JUMPDEST DUP3 MSTORE POP POP JUMP JUMPDEST PUSH0 PUSH1 0x20 DUP3 ADD SWAP1 POP PUSH2 0x77E PUSH0 DUP4 ADD DUP5 PUSH2 0x75C JUMP JUMPDEST SWAP3 SWAP2 POP POP JUMP JUMPDEST PUSH0 DUP1 PUSH0 DUP1 PUSH0 DUP1 PUSH0 DUP1 PUSH0 DUP1 PUSH0 PUSH2 0x120 DUP13 DUP15 SUB SLT ISZERO PUSH2 0x7A4 JUMPI PUSH2 0x7A3 PUSH2 0x531 JUMP JUMPDEST JUMPDEST PUSH0 PUSH2 0x7B1 DUP15 DUP3 DUP16 ADD PUSH2 0x57F JUMP JUMPDEST SWAP12 POP POP PUSH1 0x20 DUP13 ADD CALLDATALOAD PUSH8 0xFFFFFFFFFFFFFFFF DUP2 GT ISZERO PUSH2 0x7D2 JUMPI PUSH2 0x7D1 PUSH2 0x535 JUMP JUMPDEST JUMPDEST PUSH2 0x7DE DUP15 DUP3 DUP16 ADD PUSH2 0x59F JUMP JUMPDEST SWAP11 POP SWAP11 POP POP PUSH1 0x40 DUP13 ADD CALLDATALOAD PUSH8 0xFFFFFFFFFFFFFFFF DUP2 GT ISZERO PUSH2 0x801 JUMPI PUSH2 0x800 PUSH2 0x535 JUMP JUMPDEST JUMPDEST PUSH2 0x80D DUP15 DUP3 DUP16 ADD PUSH2 0x59F JUMP JUMPDEST SWAP9 POP SWAP9 POP POP PUSH1 0x60 PUSH2 0x820 DUP15 DUP3 DUP16 ADD PUSH2 0x616 JUMP JUMPDEST SWAP7 POP POP PUSH1 0x80 PUSH2 0x831 DUP15 DUP3 DUP16 ADD PUSH2 0x57F JUMP JUMPDEST SWAP6 POP POP PUSH1 0xA0 PUSH2 0x842 DUP15 DUP3 DUP16 ADD PUSH2 0x657 JUMP JUMPDEST SWAP5 POP POP PUSH1 0xC0 PUSH2 0x853 DUP15 DUP3 DUP16 ADD PUSH2 0x57F JUMP JUMPDEST SWAP4 POP POP PUSH1 0xE0 PUSH2 0x864 DUP15 DUP3 DUP16 ADD PUSH2 0x616 JUMP JUMPDEST SWAP3 POP POP PUSH2 0x100 PUSH2 0x876 DUP15 DUP3 DUP16 ADD PUSH2 0x57F JUMP JUMPDEST SWAP2 POP POP SWAP3 SWAP6 SWAP9 SWAP12 POP SWAP3 SWAP6 SWAP9 SWAP12 SWAP1 SWAP4 SWAP7 SWAP10 POP JUMP JUMPDEST PUSH0 DUP1 PUSH0 DUP1 PUSH0 DUP1 PUSH0 DUP1 PUSH0 DUP1 PUSH0 PUSH2 0x120 DUP13 DUP15 SUB SLT ISZERO PUSH2 0x8A9 JUMPI PUSH2 0x8A8 PUSH2 0x531 JUMP JUMPDEST JUMPDEST PUSH0 PUSH2 0x8B6 DUP15 DUP3 DUP16 ADD PUSH2 0x57F JUMP JUMPDEST SWAP12 POP POP PUSH1 0x20 PUSH2 0x8C7 DUP15 DUP3 DUP16 ADD PUSH2 0x57F JUMP JUMPDEST SWAP11 POP POP PUSH1 0x40 DUP13 ADD CALLDATALOAD PUSH8 0xFFFFFFFFFFFFFFFF DUP2 GT ISZERO PUSH2 0x8E8 JUMPI PUSH2 0x8E7 PUSH2 0x535 JUMP JUMPDEST JUMPDEST PUSH2 0x8F4 DUP15 DUP3 DUP16 ADD PUSH2 0x59F JUMP JUMPDEST SWAP10 POP SWAP10 POP POP PUSH1 0x60 DUP13 ADD CALLDATALOAD PUSH8 0xFFFFFFFFFFFFFFFF DUP2 GT ISZERO PUSH2 0x917 JUMPI PUSH2 0x916 PUSH2 0x535 JUMP JUMPDEST JUMPDEST PUSH2 0x923 DUP15 DUP3 DUP16 ADD PUSH2 0x59F JUMP JUMPDEST SWAP8 POP SWAP8 POP POP PUSH1 0x80 PUSH2 0x936 DUP15 DUP3 DUP16 ADD PUSH2 0x616 JUMP JUMPDEST SWAP6 POP POP PUSH1 0xA0 PUSH2 0x947 DUP15 DUP3 DUP16 ADD PUSH2 0x57F JUMP JUMPDEST SWAP5 POP POP PUSH1 0xC0 PUSH2 0x958 DUP15 DUP3 DUP16 ADD PUSH2 0x657 JUMP JUMPDEST SWAP4 POP POP PUSH1 0xE0 PUSH2 0x969 DUP15 DUP3 DUP16 ADD PUSH2 0x57F JUMP JUMPDEST SWAP3 POP POP PUSH2 0x100 PUSH2 0x97B DUP15 DUP3 DUP16 ADD PUSH2 0x616 JUMP JUMPDEST SWAP2 POP POP SWAP3 SWAP6 SWAP9 SWAP12 POP SWAP3 SWAP6 SWAP9 SWAP12 SWAP1 SWAP4 SWAP7 SWAP10 POP JUMP JUMPDEST PUSH0 DUP1 PUSH0 DUP1 PUSH0 DUP1 PUSH0 DUP1 PUSH0 PUSH1 0xE0 DUP11 DUP13 SUB SLT ISZERO PUSH2 0x9AB JUMPI PUSH2 0x9AA PUSH2 0x531 JUMP JUMPDEST JUMPDEST PUSH0 PUSH2 0x9B8 DUP13 DUP3 DUP14 ADD PUSH2 0x57F JUMP JUMPDEST SWAP10 POP POP PUSH1 0x20 DUP11 ADD CALLDATALOAD PUSH8 0xFFFFFFFFFFFFFFFF DUP2 GT ISZERO PUSH2 0x9D9 JUMPI PUSH2 0x9D8 PUSH2 0x535 JUMP JUMPDEST JUMPDEST PUSH2 0x9E5 DUP13 DUP3 DUP14 ADD PUSH2 0x59F JUMP JUMPDEST SWAP9 POP SWAP9 POP POP PUSH1 0x40 DUP11 ADD CALLDATALOAD PUSH8 0xFFFFFFFFFFFFFFFF DUP2 GT ISZERO PUSH2 0xA08 JUMPI PUSH2 0xA07 PUSH2 0x535 JUMP JUMPDEST JUMPDEST PUSH2 0xA14 DUP13 DUP3 DUP14 ADD PUSH2 0x59F JUMP JUMPDEST SWAP7 POP SWAP7 POP POP PUSH1 0x60 PUSH2 0xA27 DUP13 DUP3 DUP14 ADD PUSH2 0x616 JUMP JUMPDEST SWAP5 POP POP PUSH1 0x80 PUSH2 0xA38 DUP13 DUP3 DUP14 ADD PUSH2 0x57F JUMP JUMPDEST SWAP4 POP POP PUSH1 0xA0 PUSH2 0xA49 DUP13 DUP3 DUP14 ADD PUSH2 0x657 JUMP JUMPDEST SWAP3 POP POP PUSH1 0xC0 PUSH2 0xA5A DUP13 DUP3 DUP14 ADD PUSH2 0x57F JUMP JUMPDEST SWAP2 POP POP SWAP3 SWAP6 SWAP9 POP SWAP3 SWAP6 SWAP9 POP SWAP3 SWAP6 SWAP9 JUMP JUMPDEST PUSH0 DUP3 DUP3 MSTORE PUSH1 0x20 DUP3 ADD SWAP1 POP SWAP3 SWAP2 POP POP JUMP JUMPDEST DUP3 DUP2 DUP4 CALLDATACOPY PUSH0 DUP4 DUP4 ADD MSTORE POP POP POP JUMP JUMPDEST PUSH0 PUSH1 0x1F NOT PUSH1 0x1F DUP4 ADD AND SWAP1 POP SWAP2 SWAP1 POP JUMP JUMPDEST PUSH0 PUSH2 0xAA3 DUP4 DUP6 PUSH2 0xA6A JUMP JUMPDEST SWAP4 POP PUSH2 0xAB0 DUP4 DUP6 DUP5 PUSH2 0xA7A JUMP JUMPDEST PUSH2 0xAB9 DUP4 PUSH2 0xA88 JUMP JUMPDEST DUP5 ADD SWAP1 POP SWAP4 SWAP3 POP POP POP JUMP JUMPDEST PUSH2 0xACD DUP2 PUSH2 0x5F4 JUMP JUMPDEST DUP3 MSTORE POP POP JUMP JUMPDEST PUSH2 0xADC DUP2 PUSH2 0x62A JUMP JUMPDEST DUP3 MSTORE POP POP JUMP JUMPDEST PUSH0 PUSH1 0xE0 DUP3 ADD SWAP1 POP PUSH2 0xAF5 PUSH0 DUP4 ADD DUP13 PUSH2 0x75C JUMP JUMPDEST DUP2 DUP2 SUB PUSH1 0x20 DUP4 ADD MSTORE PUSH2 0xB08 DUP2 DUP11 DUP13 PUSH2 0xA98 JUMP JUMPDEST SWAP1 POP DUP2 DUP2 SUB PUSH1 0x40 DUP4 ADD MSTORE PUSH2 0xB1D DUP2 DUP9 DUP11 PUSH2 0xA98 JUMP JUMPDEST SWAP1 POP PUSH2 0xB2C PUSH1 0x60 DUP4 ADD DUP8 PUSH2 0xAC4 JUMP JUMPDEST PUSH2 0xB39 PUSH1 0x80 DUP4 ADD DUP7 PUSH2 0x75C JUMP JUMPDEST PUSH2 0xB46 PUSH1 0xA0 DUP4 ADD DUP6 PUSH2 0xAD3 JUMP JUMPDEST PUSH2 0xB53 PUSH1 0xC0 DUP4 ADD DUP5 PUSH2 0x75C JUMP JUMPDEST SWAP11 SWAP10 POP POP POP POP POP POP POP POP POP POP JUMP JUMPDEST PUSH0 PUSH2 0x100 DUP3 ADD SWAP1 POP DUP2 DUP2 SUB PUSH0 DUP4 ADD MSTORE PUSH2 0xB7B DUP2 DUP13 DUP15 PUSH2 0xA98 JUMP JUMPDEST SWAP1 POP DUP2 DUP2 SUB PUSH1 0x20 DUP4 ADD MSTORE PUSH2 0xB90 DUP2 DUP11 DUP13 PUSH2 0xA98 JUMP JUMPDEST SWAP1 POP PUSH2 0xB9F PUSH1 0x40 DUP4 ADD DUP10 PUSH2 0xAC4 JUMP JUMPDEST PUSH2 0xBAC PUSH1 0x60 DUP4 ADD DUP9 PUSH2 0x75C JUMP JUMPDEST PUSH2 0xBB9 PUSH1 0x80 DUP4 ADD DUP8 PUSH2 0xAD3 JUMP JUMPDEST PUSH2 0xBC6 PUSH1 0xA0 DUP4 ADD DUP7 PUSH2 0x75C JUMP JUMPDEST PUSH2 0xBD3 PUSH1 0xC0 DUP4 ADD DUP6 PUSH2 0xAC4 JUMP JUMPDEST PUSH2 0xBE0 PUSH1 0xE0 DUP4 ADD DUP5 PUSH2 0x75C JUMP JUMPDEST SWAP12 SWAP11 POP POP POP POP POP POP POP POP POP POP POP JUMP JUMPDEST PUSH32 0x746F6B656E206164647265737320646F6573206E6F74206D6174636820707265 PUSH0 DUP3 ADD MSTORE PUSH32 0x6469637465642061646472657373000000000000000000000000000000000000 PUSH1 0x20 DUP3 ADD MSTORE POP JUMP JUMPDEST PUSH0 PUSH2 0xC49 PUSH1 0x2E DUP4 PUSH2 0xA6A JUMP JUMPDEST SWAP2 POP PUSH2 0xC54 DUP3 PUSH2 0xBEF JUMP JUMPDEST PUSH1 0x40 DUP3 ADD SWAP1 POP SWAP2 SWAP1 POP JUMP JUMPDEST PUSH0 PUSH1 0x20 DUP3 ADD SWAP1 POP DUP2 DUP2 SUB PUSH0 DUP4 ADD MSTORE PUSH2 0xC76 DUP2 PUSH2 0xC3D JUMP JUMPDEST SWAP1 POP SWAP2 SWAP1 POP JUMP JUMPDEST PUSH0 DUP2 PUSH1 0x60 SHL SWAP1 POP SWAP2 SWAP1 POP JUMP JUMPDEST PUSH0 PUSH2 0xC93 DUP3 PUSH2 0xC7D JUMP JUMPDEST SWAP1 POP SWAP2 SWAP1 POP JUMP JUMPDEST PUSH0 PUSH2 0xCA4 DUP3 PUSH2 0xC89 JUMP JUMPDEST SWAP1 POP SWAP2 SWAP1 POP JUMP JUMPDEST PUSH2 0xCBC PUSH2 0xCB7 DUP3 PUSH2 0x558 JUMP JUMPDEST PUSH2 0xC9A JUMP JUMPDEST DUP3 MSTORE POP POP JUMP JUMPDEST PUSH0 DUP2 SWAP1 POP SWAP3 SWAP2 POP POP JUMP JUMPDEST PUSH0 PUSH2 0xCD7 DUP4 DUP6 PUSH2 0xCC2 JUMP JUMPDEST SWAP4 POP PUSH2 0xCE4 DUP4 DUP6 DUP5 PUSH2 0xA7A JUMP JUMPDEST DUP3 DUP5 ADD SWAP1 POP SWAP4 SWAP3 POP POP POP JUMP JUMPDEST PUSH0 DUP2 PUSH1 0xF8 SHL SWAP1 POP SWAP2 SWAP1 POP JUMP JUMPDEST PUSH0 PUSH2 0xD06 DUP3 PUSH2 0xCF0 JUMP JUMPDEST SWAP1 POP SWAP2 SWAP1 POP JUMP JUMPDEST PUSH2 0xD1E PUSH2 0xD19 DUP3 PUSH2 0x5F4 JUMP JUMPDEST PUSH2 0xCFC JUMP JUMPDEST DUP3 MSTORE POP POP JUMP JUMPDEST PUSH0 DUP2 PUSH1 0xA0 SHL SWAP1 POP SWAP2 SWAP1 POP JUMP JUMPDEST PUSH0 PUSH2 0xD3A DUP3 PUSH2 0xD24 JUMP JUMPDEST SWAP1 POP SWAP2 SWAP1 POP JUMP JUMPDEST PUSH2 0xD52 PUSH2 0xD4D DUP3 PUSH2 0x62A JUMP JUMPDEST PUSH2 0xD30 JUMP JUMPDEST DUP3 MSTORE POP POP JUMP JUMPDEST PUSH0 PUSH2 0xD63 DUP3 DUP15 PUSH2 0xCAB JUMP JUMPDEST PUSH1 0x14 DUP3 ADD SWAP2 POP PUSH2 0xD73 DUP3 DUP14 PUSH2 0xCAB JUMP JUMPDEST PUSH1 0x14 DUP3 ADD SWAP2 POP PUSH2 0xD84 DUP3 DUP12 DUP14 PUSH2 0xCCC JUMP JUMPDEST SWAP2 POP PUSH2 0xD91 DUP3 DUP10 DUP12 PUSH2 0xCCC JUMP JUMPDEST SWAP2 POP PUSH2 0xD9D DUP3 DUP9 PUSH2 0xD0D JUMP JUMPDEST PUSH1 0x1 DUP3 ADD SWAP2 POP PUSH2 0xDAD DUP3 DUP8 PUSH2 0xCAB JUMP JUMPDEST PUSH1 0x14 DUP3 ADD SWAP2 POP PUSH2 0xDBD DUP3 DUP7 PUSH2 0xD41 JUMP JUMPDEST PUSH1 0xC DUP3 ADD SWAP2 POP PUSH2 0xDCD DUP3 DUP6 PUSH2 0xCAB JUMP JUMPDEST PUSH1 0x14 DUP3 ADD SWAP2 POP PUSH2 0xDDD DUP3 DUP5 PUSH2 0xD0D JUMP JUMPDEST PUSH1 0x1 DUP3 ADD SWAP2 POP DUP2 SWAP1 POP SWAP13 SWAP12 POP POP POP POP POP POP POP POP POP POP POP POP JUMP INVALID LOG2 PUSH5 0x6970667358 0x22 SLT KECCAK256 PUSH27 0x9D4207C2C04A1A1B0BEA9FE93EDB21FB78632DF5B4754EAEA42F92 EXP 0xB5 0xAE GASLIMIT PUSH5 0x736F6C6343 STOP ADDMOD EQ STOP CALLER PUSH1 0xA0 PUSH1 0x40 MSTORE ADDRESS PUSH20 0xFFFFFFFFFFFFFFFFFFFFFFFFFFFFFFFFFFFFFFFF AND PUSH1 0x80 SWAP1 PUSH20 0xFFFFFFFFFFFFFFFFFFFFFFFFFFFFFFFFFFFFFFFF AND DUP2 MSTORE POP CALLVALUE DUP1 ISZERO PUSH3 0x43 JUMPI PUSH0 DUP1 REVERT JUMPDEST POP PUSH0 PUSH3 0x55 PUSH3 0x1CF PUSH1 0x20 SHL PUSH1 0x20 SHR JUMP JUMPDEST SWAP1 POP PUSH0 DUP2 PUSH0 ADD PUSH1 0x8 SWAP1 SLOAD SWAP1 PUSH2 0x100 EXP SWAP1 DIV PUSH1 0xFF AND ISZERO SWAP1 POP PUSH0 DUP3 PUSH0 ADD PUSH0 SWAP1 SLOAD SWAP1 PUSH2 0x100 EXP SWAP1 DIV PUSH8 0xFFFFFFFFFFFFFFFF AND SWAP1 POP PUSH0 DUP1 DUP3 PUSH8 0xFFFFFFFFFFFFFFFF AND EQ DUP1 ISZERO PUSH3 0x9E JUMPI POP DUP3 JUMPDEST SWAP1 POP PUSH0 PUSH1 0x1 DUP4 PUSH8 0xFFFFFFFFFFFFFFFF AND EQ DUP1 ISZERO PUSH3 0xD2 JUMPI POP PUSH0 ADDRESS PUSH20 0xFFFFFFFFFFFFFFFFFFFFFFFFFFFFFFFFFFFFFFFF AND EXTCODESIZE EQ JUMPDEST SWAP1 POP DUP2 ISZERO DUP1 ISZERO PUSH3 0xE1 JUMPI POP DUP1 ISZERO JUMPDEST ISZERO PUSH3 0x119 JUMPI PUSH1 0x40 MLOAD PUSH32 0xF92EE8A900000000000000000000000000000000000000000000000000000000 DUP2 MSTORE PUSH1 0x4 ADD PUSH1 0x40 MLOAD DUP1 SWAP2 SUB SWAP1 REVERT JUMPDEST PUSH1 0x1 DUP6 PUSH0 ADD PUSH0 PUSH2 0x100 EXP DUP2 SLOAD DUP2 PUSH8 0xFFFFFFFFFFFFFFFF MUL NOT AND SWAP1 DUP4 PUSH8 0xFFFFFFFFFFFFFFFF AND MUL OR SWAP1 SSTORE POP DUP4 ISZERO PUSH3 0x167 JUMPI PUSH1 0x1 DUP6 PUSH0 ADD PUSH1 0x8 PUSH2 0x100 EXP DUP2 SLOAD DUP2 PUSH1 0xFF MUL NOT AND SWAP1 DUP4 ISZERO ISZERO MUL OR SWAP1 SSTORE POP JUMPDEST DUP4 ISZERO PUSH3 0x1C4 JUMPI PUSH0 DUP6 PUSH0 ADD PUSH1 0x8 PUSH2 0x100 EXP DUP2 SLOAD DUP2 PUSH1 0xFF MUL NOT AND SWAP1 DUP4 ISZERO ISZERO MUL OR SWAP1 SSTORE POP PUSH32 0xC7F505B2F371AE2175EE4913F4499E1F2633A7B5936321EED1CDAEB6115181D2 PUSH1 0x1 PUSH1 0x40 MLOAD PUSH3 0x1BB SWAP2 SWAP1 PUSH3 0x253 JUMP JUMPDEST PUSH1 0x40 MLOAD DUP1 SWAP2 SUB SWAP1 LOG1 JUMPDEST POP POP POP POP POP PUSH3 0x26E JUMP JUMPDEST PUSH0 PUSH32 0xF0C57E16840DF040F15088DC2F81FE391C3923BEC73E23A9662EFC9C229C6A00 SWAP1 POP SWAP1 JUMP JUMPDEST PUSH0 DUP2 SWAP1 POP SWAP2 SWAP1 POP JUMP JUMPDEST PUSH0 PUSH8 0xFFFFFFFFFFFFFFFF DUP3 AND SWAP1 POP SWAP2 SWAP1 POP JUMP JUMPDEST PUSH0 DUP2 SWAP1 POP SWAP2 SWAP1 POP JUMP JUMPDEST PUSH0 PUSH3 0x23B PUSH3 0x235 PUSH3 0x22F DUP5 PUSH3 0x1F6 JUMP JUMPDEST PUSH3 0x212 JUMP JUMPDEST PUSH3 0x1FF JUMP JUMPDEST SWAP1 POP SWAP2 SWAP1 POP JUMP JUMPDEST PUSH3 0x24D DUP2 PUSH3 0x21B JUMP JUMPDEST DUP3 MSTORE POP POP JUMP JUMPDEST PUSH0 PUSH1 0x20 DUP3 ADD SWAP1 POP PUSH3 0x268 PUSH0 DUP4 ADD DUP5 PUSH3 0x242 JUMP JUMPDEST SWAP3 SWAP2 POP POP JUMP JUMPDEST PUSH1 0x80 MLOAD PUSH2 0x4B70 PUSH3 0x295 PUSH0 CODECOPY PUSH0 DUP2 DUP2 PUSH2 0x209F ADD MSTORE DUP2 DUP2 PUSH2 0x20F4 ADD MSTORE PUSH2 0x230C ADD MSTORE PUSH2 0x4B70 PUSH0 RETURN INVALID PUSH1 0x80 PUSH1 0x40 MSTORE PUSH1 0x4 CALLDATASIZE LT PUSH2 0x1F8 JUMPI PUSH0 CALLDATALOAD PUSH1 0xE0 SHR DUP1 PUSH4 0x70A08231 GT PUSH2 0x10C JUMPI DUP1 PUSH4 0xA9059CBB GT PUSH2 0x9F JUMPI DUP1 PUSH4 0xEC669036 GT PUSH2 0x6E JUMPI DUP1 PUSH4 0xEC669036 EQ PUSH2 0x6EE JUMPI DUP1 PUSH4 0xF2FDE38B EQ PUSH2 0x704 JUMPI DUP1 PUSH4 0xF851A440 EQ PUSH2 0x72C JUMPI DUP1 PUSH4 0xF9AFB26A EQ PUSH2 0x756 JUMPI DUP1 PUSH4 0xF9B278C0 EQ PUSH2 0x792 JUMPI PUSH2 0x1F8 JUMP JUMPDEST DUP1 PUSH4 0xA9059CBB EQ PUSH2 0x624 JUMPI DUP1 PUSH4 0xAD3CB1CC EQ PUSH2 0x660 JUMPI DUP1 PUSH4 0xD505ACCF EQ PUSH2 0x68A JUMPI DUP1 PUSH4 0xDD62ED3E EQ PUSH2 0x6B2 JUMPI PUSH2 0x1F8 JUMP JUMPDEST DUP1 PUSH4 0x84B0196E GT PUSH2 0xDB JUMPI DUP1 PUSH4 0x84B0196E EQ PUSH2 0x576 JUMPI DUP1 PUSH4 0x8DA5CB5B EQ PUSH2 0x5A6 JUMPI DUP1 PUSH4 0x95D89B41 EQ PUSH2 0x5D0 JUMPI DUP1 PUSH4 0x986B048A EQ PUSH2 0x5FA JUMPI PUSH2 0x1F8 JUMP JUMPDEST DUP1 PUSH4 0x70A08231 EQ PUSH2 0x4D2 JUMPI DUP1 PUSH4 0x715018A6 EQ PUSH2 0x50E JUMPI DUP1 PUSH4 0x7ECEBE00 EQ PUSH2 0x524 JUMPI DUP1 PUSH4 0x8456CB59 EQ PUSH2 0x560 JUMPI PUSH2 0x1F8 JUMP JUMPDEST DUP1 PUSH4 0x3644E515 GT PUSH2 0x18F JUMPI DUP1 PUSH4 0x52D1902D GT PUSH2 0x15E JUMPI DUP1 PUSH4 0x52D1902D EQ PUSH2 0x3DE JUMPI DUP1 PUSH4 0x598B8E71 EQ PUSH2 0x408 JUMPI DUP1 PUSH4 0x5C975ABB EQ PUSH2 0x444 JUMPI DUP1 PUSH4 0x684CBF68 EQ PUSH2 0x46E JUMPI DUP1 PUSH4 0x704B6C02 EQ PUSH2 0x4AA JUMPI PUSH2 0x1F8 JUMP JUMPDEST DUP1 PUSH4 0x3644E515 EQ PUSH2 0x358 JUMPI DUP1 PUSH4 0x3F4BA83A EQ PUSH2 0x382 JUMPI DUP1 PUSH4 0x47CCCA02 EQ PUSH2 0x398 JUMPI DUP1 PUSH4 0x4F1EF286 EQ PUSH2 0x3C2 JUMPI PUSH2 0x1F8 JUMP JUMPDEST DUP1 PUSH4 0x12D5EDE6 GT PUSH2 0x1CB JUMPI DUP1 PUSH4 0x12D5EDE6 EQ PUSH2 0x2B2 JUMPI DUP1 PUSH4 0x18160DDD EQ PUSH2 0x2C8 JUMPI DUP1 PUSH4 0x23B872DD EQ PUSH2 0x2F2 JUMPI DUP1 PUSH4 0x313CE567 EQ PUSH2 0x32E JUMPI PUSH2 0x1F8 JUMP JUMPDEST DUP1 PUSH4 0x60B8859 EQ PUSH2 0x1FC JUMPI DUP1 PUSH4 0x6FDDE03 EQ PUSH2 0x224 JUMPI DUP1 PUSH4 0x95EA7B3 EQ PUSH2 0x24E JUMPI DUP1 PUSH4 0xA3CB72E EQ PUSH2 0x28A JUMPI JUMPDEST PUSH0 DUP1 REVERT JUMPDEST CALLVALUE DUP1 ISZERO PUSH2 0x207 JUMPI PUSH0 DUP1 REVERT JUMPDEST POP PUSH2 0x222 PUSH1 0x4 DUP1 CALLDATASIZE SUB DUP2 ADD SWAP1 PUSH2 0x21D SWAP2 SWAP1 PUSH2 0x3753 JUMP JUMPDEST PUSH2 0x7BC JUMP JUMPDEST STOP JUMPDEST CALLVALUE DUP1 ISZERO PUSH2 0x22F JUMPI PUSH0 DUP1 REVERT JUMPDEST POP PUSH2 0x238 PUSH2 0xBA6 JUMP JUMPDEST PUSH1 0x40 MLOAD PUSH2 0x245 SWAP2 SWAP1 PUSH2 0x38B9 JUMP JUMPDEST PUSH1 0x40 MLOAD DUP1 SWAP2 SUB SWAP1 RETURN JUMPDEST CALLVALUE DUP1 ISZERO PUSH2 0x259 JUMPI PUSH0 DUP1 REVERT JUMPDEST POP PUSH2 0x274 PUSH1 0x4 DUP1 CALLDATASIZE SUB DUP2 ADD SWAP1 PUSH2 0x26F SWAP2 SWAP1 PUSH2 0x390C JUMP JUMPDEST PUSH2 0xC44 JUMP JUMPDEST PUSH1 0x40 MLOAD PUSH2 0x281 SWAP2 SWAP1 PUSH2 0x3964 JUMP JUMPDEST PUSH1 0x40 MLOAD DUP1 SWAP2 SUB SWAP1 RETURN JUMPDEST CALLVALUE DUP1 ISZERO PUSH2 0x295 JUMPI PUSH0 DUP1 REVERT JUMPDEST POP PUSH2 0x2B0 PUSH1 0x4 DUP1 CALLDATASIZE SUB DUP2 ADD SWAP1 PUSH2 0x2AB SWAP2 SWAP1 PUSH2 0x39D2 JUMP JUMPDEST PUSH2 0xC66 JUMP JUMPDEST STOP JUMPDEST CALLVALUE DUP1 ISZERO PUSH2 0x2BD JUMPI PUSH0 DUP1 REVERT JUMPDEST POP PUSH2 0x2C6 PUSH2 0xEA4 JUMP JUMPDEST STOP JUMPDEST CALLVALUE DUP1 ISZERO PUSH2 0x2D3 JUMPI PUSH0 DUP1 REVERT JUMPDEST POP PUSH2 0x2DC PUSH2 0xFFA JUMP JUMPDEST PUSH1 0x40 MLOAD PUSH2 0x2E9 SWAP2 SWAP1 PUSH2 0x3A5F JUMP JUMPDEST PUSH1 0x40 MLOAD DUP1 SWAP2 SUB SWAP1 RETURN JUMPDEST CALLVALUE DUP1 ISZERO PUSH2 0x2FD JUMPI PUSH0 DUP1 REVERT JUMPDEST POP PUSH2 0x318 PUSH1 0x4 DUP1 CALLDATASIZE SUB DUP2 ADD SWAP1 PUSH2 0x313 SWAP2 SWAP1 PUSH2 0x3A78 JUMP JUMPDEST PUSH2 0x1011 JUMP JUMPDEST PUSH1 0x40 MLOAD PUSH2 0x325 SWAP2 SWAP1 PUSH2 0x3964 JUMP JUMPDEST PUSH1 0x40 MLOAD DUP1 SWAP2 SUB SWAP1 RETURN JUMPDEST CALLVALUE DUP1 ISZERO PUSH2 0x339 JUMPI PUSH0 DUP1 REVERT JUMPDEST POP PUSH2 0x342 PUSH2 0x103F JUMP JUMPDEST PUSH1 0x40 MLOAD PUSH2 0x34F SWAP2 SWAP1 PUSH2 0x3AD7 JUMP JUMPDEST PUSH1 0x40 MLOAD DUP1 SWAP2 SUB SWAP1 RETURN JUMPDEST CALLVALUE DUP1 ISZERO PUSH2 0x363 JUMPI PUSH0 DUP1 REVERT JUMPDEST POP PUSH2 0x36C PUSH2 0x1063 JUMP JUMPDEST PUSH1 0x40 MLOAD PUSH2 0x379 SWAP2 SWAP1 PUSH2 0x3B08 JUMP JUMPDEST PUSH1 0x40 MLOAD DUP1 SWAP2 SUB SWAP1 RETURN JUMPDEST CALLVALUE DUP1 ISZERO PUSH2 0x38D JUMPI PUSH0 DUP1 REVERT JUMPDEST POP PUSH2 0x396 PUSH2 0x1071 JUMP JUMPDEST STOP JUMPDEST CALLVALUE DUP1 ISZERO PUSH2 0x3A3 JUMPI PUSH0 DUP1 REVERT JUMPDEST POP PUSH2 0x3AC PUSH2 0x1155 JUMP JUMPDEST PUSH1 0x40 MLOAD PUSH2 0x3B9 SWAP2 SWAP1 PUSH2 0x3B7C JUMP JUMPDEST PUSH1 0x40 MLOAD DUP1 SWAP2 SUB SWAP1 RETURN JUMPDEST PUSH2 0x3DC PUSH1 0x4 DUP1 CALLDATASIZE SUB DUP2 ADD SWAP1 PUSH2 0x3D7 SWAP2 SWAP1 PUSH2 0x3CBD JUMP JUMPDEST PUSH2 0x118A JUMP JUMPDEST STOP JUMPDEST CALLVALUE DUP1 ISZERO PUSH2 0x3E9 JUMPI PUSH0 DUP1 REVERT JUMPDEST POP PUSH2 0x3F2 PUSH2 0x11A9 JUMP JUMPDEST PUSH1 0x40 MLOAD PUSH2 0x3FF SWAP2 SWAP1 PUSH2 0x3B08 JUMP JUMPDEST PUSH1 0x40 MLOAD DUP1 SWAP2 SUB SWAP1 RETURN JUMPDEST CALLVALUE DUP1 ISZERO PUSH2 0x413 JUMPI PUSH0 DUP1 REVERT JUMPDEST POP PUSH2 0x42E PUSH1 0x4 DUP1 CALLDATASIZE SUB DUP2 ADD SWAP1 PUSH2 0x429 SWAP2 SWAP1 PUSH2 0x3D17 JUMP JUMPDEST PUSH2 0x11DA JUMP JUMPDEST PUSH1 0x40 MLOAD PUSH2 0x43B SWAP2 SWAP1 PUSH2 0x3A5F JUMP JUMPDEST PUSH1 0x40 MLOAD DUP1 SWAP2 SUB SWAP1 RETURN JUMPDEST CALLVALUE DUP1 ISZERO PUSH2 0x44F JUMPI PUSH0 DUP1 REVERT JUMPDEST POP PUSH2 0x458 PUSH2 0x1352 JUMP JUMPDEST PUSH1 0x40 MLOAD PUSH2 0x465 SWAP2 SWAP1 PUSH2 0x3964 JUMP JUMPDEST PUSH1 0x40 MLOAD DUP1 SWAP2 SUB SWAP1 RETURN JUMPDEST CALLVALUE DUP1 ISZERO PUSH2 0x479 JUMPI PUSH0 DUP1 REVERT JUMPDEST POP PUSH2 0x494 PUSH1 0x4 DUP1 CALLDATASIZE SUB DUP2 ADD SWAP1 PUSH2 0x48F SWAP2 SWAP1 PUSH2 0x3D62 JUMP JUMPDEST PUSH2 0x1374 JUMP JUMPDEST PUSH1 0x40 MLOAD PUSH2 0x4A1 SWAP2 SWAP1 PUSH2 0x3A5F JUMP JUMPDEST PUSH1 0x40 MLOAD DUP1 SWAP2 SUB SWAP1 RETURN JUMPDEST CALLVALUE DUP1 ISZERO PUSH2 0x4B5 JUMPI PUSH0 DUP1 REVERT JUMPDEST POP PUSH2 0x4D0 PUSH1 0x4 DUP1 CALLDATASIZE SUB DUP2 ADD SWAP1 PUSH2 0x4CB SWAP2 SWAP1 PUSH2 0x3D62 JUMP JUMPDEST PUSH2 0x13C5 JUMP JUMPDEST STOP JUMPDEST CALLVALUE DUP1 ISZERO PUSH2 0x4DD JUMPI PUSH0 DUP1 REVERT JUMPDEST POP PUSH2 0x4F8 PUSH1 0x4 DUP1 CALLDATASIZE SUB DUP2 ADD SWAP1 PUSH2 0x4F3 SWAP2 SWAP1 PUSH2 0x3D62 JUMP JUMPDEST PUSH2 0x1533 JUMP JUMPDEST PUSH1 0x40 MLOAD PUSH2 0x505 SWAP2 SWAP1 PUSH2 0x3A5F JUMP JUMPDEST PUSH1 0x40 MLOAD DUP1 SWAP2 SUB SWAP1 RETURN JUMPDEST CALLVALUE DUP1 ISZERO PUSH2 0x519 JUMPI PUSH0 DUP1 REVERT JUMPDEST POP PUSH2 0x522 PUSH2 0x1586 JUMP JUMPDEST STOP JUMPDEST CALLVALUE DUP1 ISZERO PUSH2 0x52F JUMPI PUSH0 DUP1 REVERT JUMPDEST POP PUSH2 0x54A PUSH1 0x4 DUP1 CALLDATASIZE SUB DUP2 ADD SWAP1 PUSH2 0x545 SWAP2 SWAP1 PUSH2 0x3D62 JUMP JUMPDEST PUSH2 0x1599 JUMP JUMPDEST PUSH1 0x40 MLOAD PUSH2 0x557 SWAP2 SWAP1 PUSH2 0x3A5F JUMP JUMPDEST PUSH1 0x40 MLOAD DUP1 SWAP2 SUB SWAP1 RETURN JUMPDEST CALLVALUE DUP1 ISZERO PUSH2 0x56B JUMPI PUSH0 DUP1 REVERT JUMPDEST POP PUSH2 0x574 PUSH2 0x15AA JUMP JUMPDEST STOP JUMPDEST CALLVALUE DUP1 ISZERO PUSH2 0x581 JUMPI PUSH0 DUP1 REVERT JUMPDEST POP PUSH2 0x58A PUSH2 0x1651 JUMP JUMPDEST PUSH1 0x40 MLOAD PUSH2 0x59D SWAP8 SWAP7 SWAP6 SWAP5 SWAP4 SWAP3 SWAP2 SWAP1 PUSH2 0x3E8D JUMP JUMPDEST PUSH1 0x40 MLOAD DUP1 SWAP2 SUB SWAP1 RETURN JUMPDEST CALLVALUE DUP1 ISZERO PUSH2 0x5B1 JUMPI PUSH0 DUP1 REVERT JUMPDEST POP PUSH2 0x5BA PUSH2 0x175A JUMP JUMPDEST PUSH1 0x40 MLOAD PUSH2 0x5C7 SWAP2 SWAP1 PUSH2 0x3F0F JUMP JUMPDEST PUSH1 0x40 MLOAD DUP1 SWAP2 SUB SWAP1 RETURN JUMPDEST CALLVALUE DUP1 ISZERO PUSH2 0x5DB JUMPI PUSH0 DUP1 REVERT JUMPDEST POP PUSH2 0x5E4 PUSH2 0x178F JUMP JUMPDEST PUSH1 0x40 MLOAD PUSH2 0x5F1 SWAP2 SWAP1 PUSH2 0x38B9 JUMP JUMPDEST PUSH1 0x40 MLOAD DUP1 SWAP2 SUB SWAP1 RETURN JUMPDEST CALLVALUE DUP1 ISZERO PUSH2 0x605 JUMPI PUSH0 DUP1 REVERT JUMPDEST POP PUSH2 0x60E PUSH2 0x182D JUMP JUMPDEST PUSH1 0x40 MLOAD PUSH2 0x61B SWAP2 SWAP1 PUSH2 0x3F37 JUMP JUMPDEST PUSH1 0x40 MLOAD DUP1 SWAP2 SUB SWAP1 RETURN JUMPDEST CALLVALUE DUP1 ISZERO PUSH2 0x62F JUMPI PUSH0 DUP1 REVERT JUMPDEST POP PUSH2 0x64A PUSH1 0x4 DUP1 CALLDATASIZE SUB DUP2 ADD SWAP1 PUSH2 0x645 SWAP2 SWAP1 PUSH2 0x390C JUMP JUMPDEST PUSH2 0x185B JUMP JUMPDEST PUSH1 0x40 MLOAD PUSH2 0x657 SWAP2 SWAP1 PUSH2 0x3964 JUMP JUMPDEST PUSH1 0x40 MLOAD DUP1 SWAP2 SUB SWAP1 RETURN JUMPDEST CALLVALUE DUP1 ISZERO PUSH2 0x66B JUMPI PUSH0 DUP1 REVERT JUMPDEST POP PUSH2 0x674 PUSH2 0x187D JUMP JUMPDEST PUSH1 0x40 MLOAD PUSH2 0x681 SWAP2 SWAP1 PUSH2 0x38B9 JUMP JUMPDEST PUSH1 0x40 MLOAD DUP1 SWAP2 SUB SWAP1 RETURN JUMPDEST CALLVALUE DUP1 ISZERO PUSH2 0x695 JUMPI PUSH0 DUP1 REVERT JUMPDEST POP PUSH2 0x6B0 PUSH1 0x4 DUP1 CALLDATASIZE SUB DUP2 ADD SWAP1 PUSH2 0x6AB SWAP2 SWAP1 PUSH2 0x3F7A JUMP JUMPDEST PUSH2 0x18B6 JUMP JUMPDEST STOP JUMPDEST CALLVALUE DUP1 ISZERO PUSH2 0x6BD JUMPI PUSH0 DUP1 REVERT JUMPDEST POP PUSH2 0x6D8 PUSH1 0x4 DUP1 CALLDATASIZE SUB DUP2 ADD SWAP1 PUSH2 0x6D3 SWAP2 SWAP1 PUSH2 0x4017 JUMP JUMPDEST PUSH2 0x19FB JUMP JUMPDEST PUSH1 0x40 MLOAD PUSH2 0x6E5 SWAP2 SWAP1 PUSH2 0x3A5F JUMP JUMPDEST PUSH1 0x40 MLOAD DUP1 SWAP2 SUB SWAP1 RETURN JUMPDEST CALLVALUE DUP1 ISZERO PUSH2 0x6F9 JUMPI PUSH0 DUP1 REVERT JUMPDEST POP PUSH2 0x702 PUSH2 0x1A8B JUMP JUMPDEST STOP JUMPDEST CALLVALUE DUP1 ISZERO PUSH2 0x70F JUMPI PUSH0 DUP1 REVERT JUMPDEST POP PUSH2 0x72A PUSH1 0x4 DUP1 CALLDATASIZE SUB DUP2 ADD SWAP1 PUSH2 0x725 SWAP2 SWAP1 PUSH2 0x3D62 JUMP JUMPDEST PUSH2 0x1AEA JUMP JUMPDEST STOP JUMPDEST CALLVALUE DUP1 ISZERO PUSH2 0x737 JUMPI PUSH0 DUP1 REVERT JUMPDEST POP PUSH2 0x740 PUSH2 0x1B6E JUMP JUMPDEST PUSH1 0x40 MLOAD PUSH2 0x74D SWAP2 SWAP1 PUSH2 0x3F0F JUMP JUMPDEST PUSH1 0x40 MLOAD DUP1 SWAP2 SUB SWAP1 RETURN JUMPDEST CALLVALUE DUP1 ISZERO PUSH2 0x761 JUMPI PUSH0 DUP1 REVERT JUMPDEST POP PUSH2 0x77C PUSH1 0x4 DUP1 CALLDATASIZE SUB DUP2 ADD SWAP1 PUSH2 0x777 SWAP2 SWAP1 PUSH2 0x3D17 JUMP JUMPDEST PUSH2 0x1BA4 JUMP JUMPDEST PUSH1 0x40 MLOAD PUSH2 0x789 SWAP2 SWAP1 PUSH2 0x3A5F JUMP JUMPDEST PUSH1 0x40 MLOAD DUP1 SWAP2 SUB SWAP1 RETURN JUMPDEST CALLVALUE DUP1 ISZERO PUSH2 0x79D JUMPI PUSH0 DUP1 REVERT JUMPDEST POP PUSH2 0x7A6 PUSH2 0x1D1C JUMP JUMPDEST PUSH1 0x40 MLOAD PUSH2 0x7B3 SWAP2 SWAP1 PUSH2 0x3964 JUMP JUMPDEST PUSH1 0x40 MLOAD DUP1 SWAP2 SUB SWAP1 RETURN JUMPDEST PUSH0 PUSH2 0x7C5 PUSH2 0x1D40 JUMP JUMPDEST SWAP1 POP PUSH0 DUP2 PUSH0 ADD PUSH1 0x8 SWAP1 SLOAD SWAP1 PUSH2 0x100 EXP SWAP1 DIV PUSH1 0xFF AND ISZERO SWAP1 POP PUSH0 DUP3 PUSH0 ADD PUSH0 SWAP1 SLOAD SWAP1 PUSH2 0x100 EXP SWAP1 DIV PUSH8 0xFFFFFFFFFFFFFFFF AND SWAP1 POP PUSH0 DUP1 DUP3 PUSH8 0xFFFFFFFFFFFFFFFF AND EQ DUP1 ISZERO PUSH2 0x80D JUMPI POP DUP3 JUMPDEST SWAP1 POP PUSH0 PUSH1 0x1 DUP4 PUSH8 0xFFFFFFFFFFFFFFFF AND EQ DUP1 ISZERO PUSH2 0x840 JUMPI POP PUSH0 ADDRESS PUSH20 0xFFFFFFFFFFFFFFFFFFFFFFFFFFFFFFFFFFFFFFFF AND EXTCODESIZE EQ JUMPDEST SWAP1 POP DUP2 ISZERO DUP1 ISZERO PUSH2 0x84E JUMPI POP DUP1 ISZERO JUMPDEST ISZERO PUSH2 0x885 JUMPI PUSH1 0x40 MLOAD PUSH32 0xF92EE8A900000000000000000000000000000000000000000000000000000000 DUP2 MSTORE PUSH1 0x4 ADD PUSH1 0x40 MLOAD DUP1 SWAP2 SUB SWAP1 REVERT JUMPDEST PUSH1 0x1 DUP6 PUSH0 ADD PUSH0 PUSH2 0x100 EXP DUP2 SLOAD DUP2 PUSH8 0xFFFFFFFFFFFFFFFF MUL NOT AND SWAP1 DUP4 PUSH8 0xFFFFFFFFFFFFFFFF AND MUL OR SWAP1 SSTORE POP DUP4 ISZERO PUSH2 0x8D2 JUMPI PUSH1 0x1 DUP6 PUSH0 ADD PUSH1 0x8 PUSH2 0x100 EXP DUP2 SLOAD DUP2 PUSH1 0xFF MUL NOT AND SWAP1 DUP4 ISZERO ISZERO MUL OR SWAP1 SSTORE POP JUMPDEST PUSH2 0x8DB DUP15 PUSH2 0x1D67 JUMP JUMPDEST PUSH2 0x96B DUP14 DUP14 DUP1 DUP1 PUSH1 0x1F ADD PUSH1 0x20 DUP1 SWAP2 DIV MUL PUSH1 0x20 ADD PUSH1 0x40 MLOAD SWAP1 DUP2 ADD PUSH1 0x40 MSTORE DUP1 SWAP4 SWAP3 SWAP2 SWAP1 DUP2 DUP2 MSTORE PUSH1 0x20 ADD DUP4 DUP4 DUP1 DUP3 DUP5 CALLDATACOPY PUSH0 DUP2 DUP5 ADD MSTORE PUSH1 0x1F NOT PUSH1 0x1F DUP3 ADD AND SWAP1 POP DUP1 DUP4 ADD SWAP3 POP POP POP POP POP POP POP DUP13 DUP13 DUP1 DUP1 PUSH1 0x1F ADD PUSH1 0x20 DUP1 SWAP2 DIV MUL PUSH1 0x20 ADD PUSH1 0x40 MLOAD SWAP1 DUP2 ADD PUSH1 0x40 MSTORE DUP1 SWAP4 SWAP3 SWAP2 SWAP1 DUP2 DUP2 MSTORE PUSH1 0x20 ADD DUP4 DUP4 DUP1 DUP3 DUP5 CALLDATACOPY PUSH0 DUP2 DUP5 ADD MSTORE PUSH1 0x1F NOT PUSH1 0x1F DUP3 ADD AND SWAP1 POP DUP1 DUP4 ADD SWAP3 POP POP POP POP POP POP POP PUSH2 0x1D7B JUMP JUMPDEST PUSH2 0x9B7 DUP14 DUP14 DUP1 DUP1 PUSH1 0x1F ADD PUSH1 0x20 DUP1 SWAP2 DIV MUL PUSH1 0x20 ADD PUSH1 0x40 MLOAD SWAP1 DUP2 ADD PUSH1 0x40 MSTORE DUP1 SWAP4 SWAP3 SWAP2 SWAP1 DUP2 DUP2 MSTORE PUSH1 0x20 ADD DUP4 DUP4 DUP1 DUP3 DUP5 CALLDATACOPY PUSH0 DUP2 DUP5 ADD MSTORE PUSH1 0x1F NOT PUSH1 0x1F DUP3 ADD AND SWAP1 POP DUP1 DUP4 ADD SWAP3 POP POP POP POP POP POP POP PUSH2 0x1D91 JUMP JUMPDEST PUSH2 0x9BF PUSH2 0x1DDB JUMP JUMPDEST PUSH2 0x9C7 PUSH2 0x1DED JUMP JUMPDEST PUSH0 DUP8 PUSH12 0xFFFFFFFFFFFFFFFFFFFFFFFF AND GT PUSH2 0xA17 JUMPI PUSH1 0x40 MLOAD PUSH32 0x8C379A000000000000000000000000000000000000000000000000000000000 DUP2 MSTORE PUSH1 0x4 ADD PUSH2 0xA0E SWAP1 PUSH2 0x40C5 JUMP JUMPDEST PUSH1 0x40 MLOAD DUP1 SWAP2 SUB SWAP1 REVERT JUMPDEST PUSH0 PUSH2 0xA20 PUSH2 0x1DF7 JUMP JUMPDEST SWAP1 POP DUP10 DUP2 PUSH1 0x1 ADD PUSH1 0x14 PUSH2 0x100 EXP DUP2 SLOAD DUP2 PUSH1 0xFF MUL NOT AND SWAP1 DUP4 PUSH1 0xFF AND MUL OR SWAP1 SSTORE POP DUP9 DUP2 PUSH0 ADD PUSH0 PUSH2 0x100 EXP DUP2 SLOAD DUP2 PUSH20 0xFFFFFFFFFFFFFFFFFFFFFFFFFFFFFFFFFFFFFFFF MUL NOT AND SWAP1 DUP4 PUSH20 0xFFFFFFFFFFFFFFFFFFFFFFFFFFFFFFFFFFFFFFFF AND MUL OR SWAP1 SSTORE POP DUP8 DUP2 PUSH0 ADD PUSH1 0x14 PUSH2 0x100 EXP DUP2 SLOAD DUP2 PUSH12 0xFFFFFFFFFFFFFFFFFFFFFFFF MUL NOT AND SWAP1 DUP4 PUSH12 0xFFFFFFFFFFFFFFFFFFFFFFFF AND MUL OR SWAP1 SSTORE POP DUP7 DUP2 PUSH1 0x1 ADD PUSH0 PUSH2 0x100 EXP DUP2 SLOAD DUP2 PUSH20 0xFFFFFFFFFFFFFFFFFFFFFFFFFFFFFFFFFFFFFFFF MUL NOT AND SWAP1 DUP4 PUSH20 0xFFFFFFFFFFFFFFFFFFFFFFFFFFFFFFFFFFFFFFFF AND MUL OR SWAP1 SSTORE POP PUSH32 0x7E60F975A7089493230D155FDBD29862D69342B7057E190D24CBBBA6D4511950 DUP16 DUP16 DUP16 DUP16 DUP16 DUP16 DUP16 DUP16 DUP16 PUSH1 0x40 MLOAD PUSH2 0xB33 SWAP10 SWAP9 SWAP8 SWAP7 SWAP6 SWAP5 SWAP4 SWAP3 SWAP2 SWAP1 PUSH2 0x410F JUMP JUMPDEST PUSH1 0x40 MLOAD DUP1 SWAP2 SUB SWAP1 LOG1 POP DUP4 ISZERO PUSH2 0xB96 JUMPI PUSH0 DUP6 PUSH0 ADD PUSH1 0x8 PUSH2 0x100 EXP DUP2 SLOAD DUP2 PUSH1 0xFF MUL NOT AND SWAP1 DUP4 ISZERO ISZERO MUL OR SWAP1 SSTORE POP PUSH32 0xC7F505B2F371AE2175EE4913F4499E1F2633A7B5936321EED1CDAEB6115181D2 PUSH1 0x1 PUSH1 0x40 MLOAD PUSH2 0xB8D SWAP2 SWAP1 PUSH2 0x41DA JUMP JUMPDEST PUSH1 0x40 MLOAD DUP1 SWAP2 SUB SWAP1 LOG1 JUMPDEST POP POP POP POP POP POP POP POP POP POP POP POP POP POP JUMP JUMPDEST PUSH1 0x60 PUSH0 PUSH2 0xBB1 PUSH2 0x1E1E JUMP JUMPDEST SWAP1 POP DUP1 PUSH1 0x3 ADD DUP1 SLOAD PUSH2 0xBC2 SWAP1 PUSH2 0x4220 JUMP JUMPDEST DUP1 PUSH1 0x1F ADD PUSH1 0x20 DUP1 SWAP2 DIV MUL PUSH1 0x20 ADD PUSH1 0x40 MLOAD SWAP1 DUP2 ADD PUSH1 0x40 MSTORE DUP1 SWAP3 SWAP2 SWAP1 DUP2 DUP2 MSTORE PUSH1 0x20 ADD DUP3 DUP1 SLOAD PUSH2 0xBEE SWAP1 PUSH2 0x4220 JUMP JUMPDEST DUP1 ISZERO PUSH2 0xC39 JUMPI DUP1 PUSH1 0x1F LT PUSH2 0xC10 JUMPI PUSH2 0x100 DUP1 DUP4 SLOAD DIV MUL DUP4 MSTORE SWAP2 PUSH1 0x20 ADD SWAP2 PUSH2 0xC39 JUMP JUMPDEST DUP3 ADD SWAP2 SWAP1 PUSH0 MSTORE PUSH1 0x20 PUSH0 KECCAK256 SWAP1 JUMPDEST DUP2 SLOAD DUP2 MSTORE SWAP1 PUSH1 0x1 ADD SWAP1 PUSH1 0x20 ADD DUP1 DUP4 GT PUSH2 0xC1C JUMPI DUP3 SWAP1 SUB PUSH1 0x1F AND DUP3 ADD SWAP2 JUMPDEST POP POP POP POP POP SWAP2 POP POP SWAP1 JUMP JUMPDEST PUSH0 DUP1 PUSH2 0xC4E PUSH2 0x1E45 JUMP JUMPDEST SWAP1 POP PUSH2 0xC5B DUP2 DUP6 DUP6 PUSH2 0x1E4C JUMP JUMPDEST PUSH1 0x1 SWAP2 POP POP SWAP3 SWAP2 POP POP JUMP JUMPDEST PUSH2 0xC6E PUSH2 0x1E5E JUMP JUMPDEST DUP2 DUP2 SWAP1 POP DUP5 DUP5 SWAP1 POP EQ PUSH2 0xCB6 JUMPI PUSH1 0x40 MLOAD PUSH32 0x8C379A000000000000000000000000000000000000000000000000000000000 DUP2 MSTORE PUSH1 0x4 ADD PUSH2 0xCAD SWAP1 PUSH2 0x429A JUMP JUMPDEST PUSH1 0x40 MLOAD DUP1 SWAP2 SUB SWAP1 REVERT JUMPDEST PUSH0 PUSH2 0xCBF PUSH2 0x1DF7 JUMP JUMPDEST SWAP1 POP PUSH0 JUMPDEST DUP6 DUP6 SWAP1 POP DUP2 LT ISZERO PUSH2 0xD84 JUMPI DUP2 PUSH0 ADD PUSH0 SWAP1 SLOAD SWAP1 PUSH2 0x100 EXP SWAP1 DIV PUSH20 0xFFFFFFFFFFFFFFFFFFFFFFFFFFFFFFFFFFFFFFFF AND PUSH20 0xFFFFFFFFFFFFFFFFFFFFFFFFFFFFFFFFFFFFFFFF AND PUSH4 0x23B872DD CALLER ADDRESS DUP10 DUP10 DUP7 DUP2 DUP2 LT PUSH2 0xD21 JUMPI PUSH2 0xD20 PUSH2 0x42B8 JUMP JUMPDEST JUMPDEST SWAP1 POP PUSH1 0x20 MUL ADD CALLDATALOAD PUSH1 0x40 MLOAD DUP5 PUSH4 0xFFFFFFFF AND PUSH1 0xE0 SHL DUP2 MSTORE PUSH1 0x4 ADD PUSH2 0xD46 SWAP4 SWAP3 SWAP2 SWAP1 PUSH2 0x42E5 JUMP JUMPDEST PUSH0 PUSH1 0x40 MLOAD DUP1 DUP4 SUB DUP2 PUSH0 DUP8 DUP1 EXTCODESIZE ISZERO DUP1 ISZERO PUSH2 0xD5D JUMPI PUSH0 DUP1 REVERT JUMPDEST POP GAS CALL ISZERO DUP1 ISZERO PUSH2 0xD6F JUMPI RETURNDATASIZE PUSH0 DUP1 RETURNDATACOPY RETURNDATASIZE PUSH0 REVERT JUMPDEST POP POP POP POP DUP1 PUSH2 0xD7D SWAP1 PUSH2 0x4347 JUMP JUMPDEST SWAP1 POP PUSH2 0xCC3 JUMP JUMPDEST POP PUSH0 JUMPDEST DUP4 DUP4 SWAP1 POP DUP2 LT ISZERO PUSH2 0xE48 JUMPI DUP2 PUSH0 ADD PUSH0 SWAP1 SLOAD SWAP1 PUSH2 0x100 EXP SWAP1 DIV PUSH20 0xFFFFFFFFFFFFFFFFFFFFFFFFFFFFFFFFFFFFFFFF AND PUSH20 0xFFFFFFFFFFFFFFFFFFFFFFFFFFFFFFFFFFFFFFFF AND PUSH4 0x23B872DD ADDRESS CALLER DUP8 DUP8 DUP7 DUP2 DUP2 LT PUSH2 0xDE5 JUMPI PUSH2 0xDE4 PUSH2 0x42B8 JUMP JUMPDEST JUMPDEST SWAP1 POP PUSH1 0x20 MUL ADD CALLDATALOAD PUSH1 0x40 MLOAD DUP5 PUSH4 0xFFFFFFFF AND PUSH1 0xE0 SHL DUP2 MSTORE PUSH1 0x4 ADD PUSH2 0xE0A SWAP4 SWAP3 SWAP2 SWAP1 PUSH2 0x42E5 JUMP JUMPDEST PUSH0 PUSH1 0x40 MLOAD DUP1 DUP4 SUB DUP2 PUSH0 DUP8 DUP1 EXTCODESIZE ISZERO DUP1 ISZERO PUSH2 0xE21 JUMPI PUSH0 DUP1 REVERT JUMPDEST POP GAS CALL ISZERO DUP1 ISZERO PUSH2 0xE33 JUMPI RETURNDATASIZE PUSH0 DUP1 RETURNDATACOPY RETURNDATASIZE PUSH0 REVERT JUMPDEST POP POP POP POP DUP1 PUSH2 0xE41 SWAP1 PUSH2 0x4347 JUMP JUMPDEST SWAP1 POP PUSH2 0xD87 JUMP JUMPDEST POP CALLER PUSH20 0xFFFFFFFFFFFFFFFFFFFFFFFFFFFFFFFFFFFFFFFF AND PUSH32 0x482325A8E0D87A795F1B932F4864348776133A209264B40B05B9A428DCD799B DUP7 DUP7 DUP7 DUP7 PUSH1 0x40 MLOAD PUSH2 0xE95 SWAP5 SWAP4 SWAP3 SWAP2 SWAP1 PUSH2 0x43F6 JUMP JUMPDEST PUSH1 0x40 MLOAD DUP1 SWAP2 SUB SWAP1 LOG2 POP POP POP POP POP JUMP JUMPDEST PUSH0 PUSH2 0xEAD PUSH2 0x1DF7 JUMP JUMPDEST SWAP1 POP DUP1 PUSH1 0x1 ADD PUSH0 SWAP1 SLOAD SWAP1 PUSH2 0x100 EXP SWAP1 DIV PUSH20 0xFFFFFFFFFFFFFFFFFFFFFFFFFFFFFFFFFFFFFFFF AND PUSH20 0xFFFFFFFFFFFFFFFFFFFFFFFFFFFFFFFFFFFFFFFF AND CALLER PUSH20 0xFFFFFFFFFFFFFFFFFFFFFFFFFFFFFFFFFFFFFFFF AND EQ DUP1 PUSH2 0xF3E JUMPI POP PUSH2 0xF0F PUSH2 0x175A JUMP JUMPDEST PUSH20 0xFFFFFFFFFFFFFFFFFFFFFFFFFFFFFFFFFFFFFFFF AND CALLER PUSH20 0xFFFFFFFFFFFFFFFFFFFFFFFFFFFFFFFFFFFFFFFF AND EQ JUMPDEST PUSH2 0xF7D JUMPI PUSH1 0x40 MLOAD PUSH32 0x8C379A000000000000000000000000000000000000000000000000000000000 DUP2 MSTORE PUSH1 0x4 ADD PUSH2 0xF74 SWAP1 PUSH2 0x4479 JUMP JUMPDEST PUSH1 0x40 MLOAD DUP1 SWAP2 SUB SWAP1 REVERT JUMPDEST PUSH0 PUSH2 0xF86 PUSH2 0x1DF7 JUMP JUMPDEST SWAP1 POP PUSH0 DUP2 PUSH1 0x1 ADD PUSH0 PUSH2 0x100 EXP DUP2 SLOAD DUP2 PUSH20 0xFFFFFFFFFFFFFFFFFFFFFFFFFFFFFFFFFFFFFFFF MUL NOT AND SWAP1 DUP4 PUSH20 0xFFFFFFFFFFFFFFFFFFFFFFFFFFFFFFFFFFFFFFFF AND MUL OR SWAP1 SSTORE POP PUSH32 0x73A1CB870742E52EE7A674A09B86381D3B018C1B4BC6AC0E20ACB0AD0D5A5807 PUSH1 0x40 MLOAD PUSH1 0x40 MLOAD DUP1 SWAP2 SUB SWAP1 LOG1 POP POP JUMP JUMPDEST PUSH0 DUP1 PUSH2 0x1004 PUSH2 0x1E1E JUMP JUMPDEST SWAP1 POP DUP1 PUSH1 0x2 ADD SLOAD SWAP2 POP POP SWAP1 JUMP JUMPDEST PUSH0 DUP1 PUSH2 0x101B PUSH2 0x1E45 JUMP JUMPDEST SWAP1 POP PUSH2 0x1028 DUP6 DUP3 DUP6 PUSH2 0x1E9F JUMP JUMPDEST PUSH2 0x1033 DUP6 DUP6 DUP6 PUSH2 0x1F31 JUMP JUMPDEST PUSH1 0x1 SWAP2 POP POP SWAP4 SWAP3 POP POP POP JUMP JUMPDEST PUSH0 DUP1 PUSH2 0x1049 PUSH2 0x1DF7 JUMP JUMPDEST SWAP1 POP DUP1 PUSH1 0x1 ADD PUSH1 0x14 SWAP1 SLOAD SWAP1 PUSH2 0x100 EXP SWAP1 DIV PUSH1 0xFF AND SWAP2 POP POP SWAP1 JUMP JUMPDEST PUSH0 PUSH2 0x106C PUSH2 0x2021 JUMP JUMPDEST SWAP1 POP SWAP1 JUMP JUMPDEST PUSH0 PUSH2 0x107A PUSH2 0x1DF7 JUMP JUMPDEST SWAP1 POP DUP1 PUSH1 0x1 ADD PUSH0 SWAP1 SLOAD SWAP1 PUSH2 0x100 EXP SWAP1 DIV PUSH20 0xFFFFFFFFFFFFFFFFFFFFFFFFFFFFFFFFFFFFFFFF AND PUSH20 0xFFFFFFFFFFFFFFFFFFFFFFFFFFFFFFFFFFFFFFFF AND CALLER PUSH20 0xFFFFFFFFFFFFFFFFFFFFFFFFFFFFFFFFFFFFFFFF AND EQ DUP1 PUSH2 0x110B JUMPI POP PUSH2 0x10DC PUSH2 0x175A JUMP JUMPDEST PUSH20 0xFFFFFFFFFFFFFFFFFFFFFFFFFFFFFFFFFFFFFFFF AND CALLER PUSH20 0xFFFFFFFFFFFFFFFFFFFFFFFFFFFFFFFFFFFFFFFF AND EQ JUMPDEST PUSH2 0x114A JUMPI PUSH1 0x40 MLOAD PUSH32 0x8C379A000000000000000000000000000000000000000000000000000000000 DUP2 MSTORE PUSH1 0x4 ADD PUSH2 0x1141 SWAP1 PUSH2 0x4479 JUMP JUMPDEST PUSH1 0x40 MLOAD DUP1 SWAP2 SUB SWAP1 REVERT JUMPDEST PUSH2 0x1152 PUSH2 0x202F JUMP JUMPDEST POP JUMP JUMPDEST PUSH0 DUP1 PUSH2 0x115F PUSH2 0x1DF7 JUMP JUMPDEST SWAP1 POP DUP1 PUSH0 ADD PUSH0 SWAP1 SLOAD SWAP1 PUSH2 0x100 EXP SWAP1 DIV PUSH20 0xFFFFFFFFFFFFFFFFFFFFFFFFFFFFFFFFFFFFFFFF AND SWAP2 POP POP SWAP1 JUMP JUMPDEST PUSH2 0x1192 PUSH2 0x209D JUMP JUMPDEST PUSH2 0x119B DUP3 PUSH2 0x2183 JUMP JUMPDEST PUSH2 0x11A5 DUP3 DUP3 PUSH2 0x21EC JUMP JUMPDEST POP POP JUMP JUMPDEST PUSH0 PUSH2 0x11B2 PUSH2 0x230A JUMP JUMPDEST PUSH32 0x360894A13BA1A3210667C828492DB98DCA3E2076CC3735A920A3CA505D382BBC PUSH0 SHL SWAP1 POP SWAP1 JUMP JUMPDEST PUSH0 PUSH2 0x11E3 PUSH2 0x1E5E JUMP JUMPDEST PUSH0 PUSH2 0x11EC PUSH2 0x1DF7 JUMP JUMPDEST SWAP1 POP PUSH0 JUMPDEST DUP5 DUP5 SWAP1 POP DUP2 LT ISZERO PUSH2 0x12B1 JUMPI DUP2 PUSH0 ADD PUSH0 SWAP1 SLOAD SWAP1 PUSH2 0x100 EXP SWAP1 DIV PUSH20 0xFFFFFFFFFFFFFFFFFFFFFFFFFFFFFFFFFFFFFFFF AND PUSH20 0xFFFFFFFFFFFFFFFFFFFFFFFFFFFFFFFFFFFFFFFF AND PUSH4 0x23B872DD CALLER ADDRESS DUP9 DUP9 DUP7 DUP2 DUP2 LT PUSH2 0x124E JUMPI PUSH2 0x124D PUSH2 0x42B8 JUMP JUMPDEST JUMPDEST SWAP1 POP PUSH1 0x20 MUL ADD CALLDATALOAD PUSH1 0x40 MLOAD DUP5 PUSH4 0xFFFFFFFF AND PUSH1 0xE0 SHL DUP2 MSTORE PUSH1 0x4 ADD PUSH2 0x1273 SWAP4 SWAP3 SWAP2 SWAP1 PUSH2 0x42E5 JUMP JUMPDEST PUSH0 PUSH1 0x40 MLOAD DUP1 DUP4 SUB DUP2 PUSH0 DUP8 DUP1 EXTCODESIZE ISZERO DUP1 ISZERO PUSH2 0x128A JUMPI PUSH0 DUP1 REVERT JUMPDEST POP GAS CALL ISZERO DUP1 ISZERO PUSH2 0x129C JUMPI RETURNDATASIZE PUSH0 DUP1 RETURNDATACOPY RETURNDATASIZE PUSH0 REVERT JUMPDEST POP POP POP POP DUP1 PUSH2 0x12AA SWAP1 PUSH2 0x4347 JUMP JUMPDEST SWAP1 POP PUSH2 0x11F0 JUMP JUMPDEST POP PUSH0 DUP5 DUP5 SWAP1 POP DUP3 PUSH0 ADD PUSH1 0x14 SWAP1 SLOAD SWAP1 PUSH2 0x100 EXP SWAP1 DIV PUSH12 0xFFFFFFFFFFFFFFFFFFFFFFFF AND PUSH12 0xFFFFFFFFFFFFFFFFFFFFFFFF AND PUSH2 0x12EB SWAP2 SWAP1 PUSH2 0x4497 JUMP JUMPDEST SWAP1 POP PUSH2 0x12F7 CALLER DUP3 PUSH2 0x2391 JUMP JUMPDEST CALLER PUSH20 0xFFFFFFFFFFFFFFFFFFFFFFFFFFFFFFFFFFFFFFFF AND PUSH32 0x42B71104669D6B9B0ED0596B13BF72373D2139566545DF2B53B72931C6965715 DUP7 DUP7 PUSH1 0x40 MLOAD PUSH2 0x133F SWAP3 SWAP2 SWAP1 PUSH2 0x44D8 JUMP JUMPDEST PUSH1 0x40 MLOAD DUP1 SWAP2 SUB SWAP1 LOG2 DUP1 SWAP3 POP POP POP SWAP3 SWAP2 POP POP JUMP JUMPDEST PUSH0 DUP1 PUSH2 0x135C PUSH2 0x2410 JUMP JUMPDEST SWAP1 POP DUP1 PUSH0 ADD PUSH0 SWAP1 SLOAD SWAP1 PUSH2 0x100 EXP SWAP1 DIV PUSH1 0xFF AND SWAP2 POP POP SWAP1 JUMP JUMPDEST PUSH0 DUP1 PUSH2 0x137E PUSH2 0x1DF7 JUMP JUMPDEST SWAP1 POP DUP1 PUSH0 ADD PUSH1 0x14 SWAP1 SLOAD SWAP1 PUSH2 0x100 EXP SWAP1 DIV PUSH12 0xFFFFFFFFFFFFFFFFFFFFFFFF AND PUSH12 0xFFFFFFFFFFFFFFFFFFFFFFFF AND PUSH2 0x13B3 DUP5 PUSH2 0x1533 JUMP JUMPDEST PUSH2 0x13BD SWAP2 SWAP1 PUSH2 0x4527 JUMP JUMPDEST SWAP2 POP POP SWAP2 SWAP1 POP JUMP JUMPDEST PUSH0 PUSH2 0x13CE PUSH2 0x1DF7 JUMP JUMPDEST SWAP1 POP DUP1 PUSH1 0x1 ADD PUSH0 SWAP1 SLOAD SWAP1 PUSH2 0x100 EXP SWAP1 DIV PUSH20 0xFFFFFFFFFFFFFFFFFFFFFFFFFFFFFFFFFFFFFFFF AND PUSH20 0xFFFFFFFFFFFFFFFFFFFFFFFFFFFFFFFFFFFFFFFF AND CALLER PUSH20 0xFFFFFFFFFFFFFFFFFFFFFFFFFFFFFFFFFFFFFFFF AND EQ DUP1 PUSH2 0x145F JUMPI POP PUSH2 0x1430 PUSH2 0x175A JUMP JUMPDEST PUSH20 0xFFFFFFFFFFFFFFFFFFFFFFFFFFFFFFFFFFFFFFFF AND CALLER PUSH20 0xFFFFFFFFFFFFFFFFFFFFFFFFFFFFFFFFFFFFFFFF AND EQ JUMPDEST PUSH2 0x149E JUMPI PUSH1 0x40 MLOAD PUSH32 0x8C379A000000000000000000000000000000000000000000000000000000000 DUP2 MSTORE PUSH1 0x4 ADD PUSH2 0x1495 SWAP1 PUSH2 0x4479 JUMP JUMPDEST PUSH1 0x40 MLOAD DUP1 SWAP2 SUB SWAP1 REVERT JUMPDEST PUSH0 PUSH2 0x14A7 PUSH2 0x1DF7 JUMP JUMPDEST SWAP1 POP DUP3 DUP2 PUSH1 0x1 ADD PUSH0 PUSH2 0x100 EXP DUP2 SLOAD DUP2 PUSH20 0xFFFFFFFFFFFFFFFFFFFFFFFFFFFFFFFFFFFFFFFF MUL NOT AND SWAP1 DUP4 PUSH20 0xFFFFFFFFFFFFFFFFFFFFFFFFFFFFFFFFFFFFFFFF AND MUL OR SWAP1 SSTORE POP DUP3 PUSH20 0xFFFFFFFFFFFFFFFFFFFFFFFFFFFFFFFFFFFFFFFF AND PUSH32 0x8FE72C3E0020BEB3234E76AE6676FA576FBFCAE600AF1C4FEA44784CF0DB329C PUSH1 0x40 MLOAD PUSH1 0x40 MLOAD DUP1 SWAP2 SUB SWAP1 LOG2 POP POP POP JUMP JUMPDEST PUSH0 DUP1 PUSH2 0x153D PUSH2 0x1E1E JUMP JUMPDEST SWAP1 POP DUP1 PUSH0 ADD PUSH0 DUP5 PUSH20 0xFFFFFFFFFFFFFFFFFFFFFFFFFFFFFFFFFFFFFFFF AND PUSH20 0xFFFFFFFFFFFFFFFFFFFFFFFFFFFFFFFFFFFFFFFF AND DUP2 MSTORE PUSH1 0x20 ADD SWAP1 DUP2 MSTORE PUSH1 0x20 ADD PUSH0 KECCAK256 SLOAD SWAP2 POP POP SWAP2 SWAP1 POP JUMP JUMPDEST PUSH2 0x158E PUSH2 0x2437 JUMP JUMPDEST PUSH2 0x1597 PUSH0 PUSH2 0x24BE JUMP JUMPDEST JUMP JUMPDEST PUSH0 PUSH2 0x15A3 DUP3 PUSH2 0x258F JUMP JUMPDEST SWAP1 POP SWAP2 SWAP1 POP JUMP JUMPDEST PUSH0 PUSH2 0x15B3 PUSH2 0x1DF7 JUMP JUMPDEST SWAP1 POP DUP1 PUSH1 0x1 ADD PUSH0 SWAP1 SLOAD SWAP1 PUSH2 0x100 EXP SWAP1 DIV PUSH20 0xFFFFFFFFFFFFFFFFFFFFFFFFFFFFFFFFFFFFFFFF AND PUSH20 0xFFFFFFFFFFFFFFFFFFFFFFFFFFFFFFFFFFFFFFFF AND CALLER PUSH20 0xFFFFFFFFFFFFFFFFFFFFFFFFFFFFFFFFFFFFFFFF AND EQ PUSH2 0x1646 JUMPI PUSH1 0x40 MLOAD PUSH32 0x8C379A000000000000000000000000000000000000000000000000000000000 DUP2 MSTORE PUSH1 0x4 ADD PUSH2 0x163D SWAP1 PUSH2 0x45A1 JUMP JUMPDEST PUSH1 0x40 MLOAD DUP1 SWAP2 SUB SWAP1 REVERT JUMPDEST PUSH2 0x164E PUSH2 0x25E2 JUMP JUMPDEST POP JUMP JUMPDEST PUSH0 PUSH1 0x60 DUP1 PUSH0 DUP1 PUSH0 PUSH1 0x60 PUSH0 PUSH2 0x1663 PUSH2 0x2651 JUMP JUMPDEST SWAP1 POP PUSH0 DUP1 SHL DUP2 PUSH0 ADD SLOAD EQ DUP1 ISZERO PUSH2 0x167E JUMPI POP PUSH0 DUP1 SHL DUP2 PUSH1 0x1 ADD SLOAD EQ JUMPDEST PUSH2 0x16BD JUMPI PUSH1 0x40 MLOAD PUSH32 0x8C379A000000000000000000000000000000000000000000000000000000000 DUP2 MSTORE PUSH1 0x4 ADD PUSH2 0x16B4 SWAP1 PUSH2 0x4609 JUMP JUMPDEST PUSH1 0x40 MLOAD DUP1 SWAP2 SUB SWAP1 REVERT JUMPDEST PUSH2 0x16C5 PUSH2 0x2678 JUMP JUMPDEST PUSH2 0x16CD PUSH2 0x2716 JUMP JUMPDEST CHAINID ADDRESS PUSH0 DUP1 SHL PUSH0 PUSH8 0xFFFFFFFFFFFFFFFF DUP2 GT ISZERO PUSH2 0x16EC JUMPI PUSH2 0x16EB PUSH2 0x3B99 JUMP JUMPDEST JUMPDEST PUSH1 0x40 MLOAD SWAP1 DUP1 DUP3 MSTORE DUP1 PUSH1 0x20 MUL PUSH1 0x20 ADD DUP3 ADD PUSH1 0x40 MSTORE DUP1 ISZERO PUSH2 0x171A JUMPI DUP2 PUSH1 0x20 ADD PUSH1 0x20 DUP3 MUL DUP1 CALLDATASIZE DUP4 CALLDATACOPY DUP1 DUP3 ADD SWAP2 POP POP SWAP1 POP JUMPDEST POP PUSH32 0xF00000000000000000000000000000000000000000000000000000000000000 SWAP6 SWAP5 SWAP4 SWAP3 SWAP2 SWAP1 SWAP8 POP SWAP8 POP SWAP8 POP SWAP8 POP SWAP8 POP SWAP8 POP SWAP8 POP POP SWAP1 SWAP2 SWAP3 SWAP4 SWAP5 SWAP6 SWAP7 JUMP JUMPDEST PUSH0 DUP1 PUSH2 0x1764 PUSH2 0x27B4 JUMP JUMPDEST SWAP1 POP DUP1 PUSH0 ADD PUSH0 SWAP1 SLOAD SWAP1 PUSH2 0x100 EXP SWAP1 DIV PUSH20 0xFFFFFFFFFFFFFFFFFFFFFFFFFFFFFFFFFFFFFFFF AND SWAP2 POP POP SWAP1 JUMP JUMPDEST PUSH1 0x60 PUSH0 PUSH2 0x179A PUSH2 0x1E1E JUMP JUMPDEST SWAP1 POP DUP1 PUSH1 0x4 ADD DUP1 SLOAD PUSH2 0x17AB SWAP1 PUSH2 0x4220 JUMP JUMPDEST DUP1 PUSH1 0x1F ADD PUSH1 0x20 DUP1 SWAP2 DIV MUL PUSH1 0x20 ADD PUSH1 0x40 MLOAD SWAP1 DUP2 ADD PUSH1 0x40 MSTORE DUP1 SWAP3 SWAP2 SWAP1 DUP2 DUP2 MSTORE PUSH1 0x20 ADD DUP3 DUP1 SLOAD PUSH2 0x17D7 SWAP1 PUSH2 0x4220 JUMP JUMPDEST DUP1 ISZERO PUSH2 0x1822 JUMPI DUP1 PUSH1 0x1F LT PUSH2 0x17F9 JUMPI PUSH2 0x100 DUP1 DUP4 SLOAD DIV MUL DUP4 MSTORE SWAP2 PUSH1 0x20 ADD SWAP2 PUSH2 0x1822 JUMP JUMPDEST DUP3 ADD SWAP2 SWAP1 PUSH0 MSTORE PUSH1 0x20 PUSH0 KECCAK256 SWAP1 JUMPDEST DUP2 SLOAD DUP2 MSTORE SWAP1 PUSH1 0x1 ADD SWAP1 PUSH1 0x20 ADD DUP1 DUP4 GT PUSH2 0x1805 JUMPI DUP3 SWAP1 SUB PUSH1 0x1F AND DUP3 ADD SWAP2 JUMPDEST POP POP POP POP POP SWAP2 POP POP SWAP1 JUMP JUMPDEST PUSH0 DUP1 PUSH2 0x1837 PUSH2 0x1DF7 JUMP JUMPDEST SWAP1 POP DUP1 PUSH0 ADD PUSH1 0x14 SWAP1 SLOAD SWAP1 PUSH2 0x100 EXP SWAP1 DIV PUSH12 0xFFFFFFFFFFFFFFFFFFFFFFFF AND SWAP2 POP POP SWAP1 JUMP JUMPDEST PUSH0 DUP1 PUSH2 0x1865 PUSH2 0x1E45 JUMP JUMPDEST SWAP1 POP PUSH2 0x1872 DUP2 DUP6 DUP6 PUSH2 0x1F31 JUMP JUMPDEST PUSH1 0x1 SWAP2 POP POP SWAP3 SWAP2 POP POP JUMP JUMPDEST PUSH1 0x40 MLOAD DUP1 PUSH1 0x40 ADD PUSH1 0x40 MSTORE DUP1 PUSH1 0x5 DUP2 MSTORE PUSH1 0x20 ADD PUSH32 0x352E302E30000000000000000000000000000000000000000000000000000000 DUP2 MSTORE POP DUP2 JUMP JUMPDEST DUP4 TIMESTAMP GT ISZERO PUSH2 0x18FB JUMPI DUP4 PUSH1 0x40 MLOAD PUSH32 0x6279130200000000000000000000000000000000000000000000000000000000 DUP2 MSTORE PUSH1 0x4 ADD PUSH2 0x18F2 SWAP2 SWAP1 PUSH2 0x3A5F JUMP JUMPDEST PUSH1 0x40 MLOAD DUP1 SWAP2 SUB SWAP1 REVERT JUMPDEST PUSH0 PUSH32 0x6E71EDAE12B1B97F4D1F60370FEF10105FA2FAAE0126114A169C64845D6126C9 DUP9 DUP9 DUP9 PUSH2 0x1929 DUP13 PUSH2 0x27DB JUMP JUMPDEST DUP10 PUSH1 0x40 MLOAD PUSH1 0x20 ADD PUSH2 0x193F SWAP7 SWAP6 SWAP5 SWAP4 SWAP3 SWAP2 SWAP1 PUSH2 0x4627 JUMP JUMPDEST PUSH1 0x40 MLOAD PUSH1 0x20 DUP2 DUP4 SUB SUB DUP2 MSTORE SWAP1 PUSH1 0x40 MSTORE DUP1 MLOAD SWAP1 PUSH1 0x20 ADD KECCAK256 SWAP1 POP PUSH0 PUSH2 0x1961 DUP3 PUSH2 0x283B JUMP JUMPDEST SWAP1 POP PUSH0 PUSH2 0x1970 DUP3 DUP8 DUP8 DUP8 PUSH2 0x2854 JUMP JUMPDEST SWAP1 POP DUP10 PUSH20 0xFFFFFFFFFFFFFFFFFFFFFFFFFFFFFFFFFFFFFFFF AND DUP2 PUSH20 0xFFFFFFFFFFFFFFFFFFFFFFFFFFFFFFFFFFFFFFFF AND EQ PUSH2 0x19E4 JUMPI DUP1 DUP11 PUSH1 0x40 MLOAD PUSH32 0x4B800E4600000000000000000000000000000000000000000000000000000000 DUP2 MSTORE PUSH1 0x4 ADD PUSH2 0x19DB SWAP3 SWAP2 SWAP1 PUSH2 0x4686 JUMP JUMPDEST PUSH1 0x40 MLOAD DUP1 SWAP2 SUB SWAP1 REVERT JUMPDEST PUSH2 0x19EF DUP11 DUP11 DUP11 PUSH2 0x1E4C JUMP JUMPDEST POP POP POP POP POP POP POP POP POP POP JUMP JUMPDEST PUSH0 DUP1 PUSH2 0x1A05 PUSH2 0x1E1E JUMP JUMPDEST SWAP1 POP DUP1 PUSH1 0x1 ADD PUSH0 DUP6 PUSH20 0xFFFFFFFFFFFFFFFFFFFFFFFFFFFFFFFFFFFFFFFF AND PUSH20 0xFFFFFFFFFFFFFFFFFFFFFFFFFFFFFFFFFFFFFFFF AND DUP2 MSTORE PUSH1 0x20 ADD SWAP1 DUP2 MSTORE PUSH1 0x20 ADD PUSH0 KECCAK256 PUSH0 DUP5 PUSH20 0xFFFFFFFFFFFFFFFFFFFFFFFFFFFFFFFFFFFFFFFF AND PUSH20 0xFFFFFFFFFFFFFFFFFFFFFFFFFFFFFFFFFFFFFFFF AND DUP2 MSTORE PUSH1 0x20 ADD SWAP1 DUP2 MSTORE PUSH1 0x20 ADD PUSH0 KECCAK256 SLOAD SWAP2 POP POP SWAP3 SWAP2 POP POP JUMP JUMPDEST PUSH2 0x1A93 PUSH2 0x2437 JUMP JUMPDEST PUSH0 PUSH2 0x1A9C PUSH2 0x1DF7 JUMP JUMPDEST SWAP1 POP PUSH1 0x1 DUP2 PUSH1 0x1 ADD PUSH1 0x15 PUSH2 0x100 EXP DUP2 SLOAD DUP2 PUSH1 0xFF MUL NOT AND SWAP1 DUP4 ISZERO ISZERO MUL OR SWAP1 SSTORE POP PUSH32 0xE5DAA943FCD7E7182D0E893D180695C2EA9F6F1B4A1C5432FAF14CF17B774E8 PUSH1 0x40 MLOAD PUSH1 0x40 MLOAD DUP1 SWAP2 SUB SWAP1 LOG1 POP JUMP JUMPDEST PUSH2 0x1AF2 PUSH2 0x2437 JUMP JUMPDEST PUSH0 PUSH20 0xFFFFFFFFFFFFFFFFFFFFFFFFFFFFFFFFFFFFFFFF AND DUP2 PUSH20 0xFFFFFFFFFFFFFFFFFFFFFFFFFFFFFFFFFFFFFFFF AND SUB PUSH2 0x1B62 JUMPI PUSH0 PUSH1 0x40 MLOAD PUSH32 0x1E4FBDF700000000000000000000000000000000000000000000000000000000 DUP2 MSTORE PUSH1 0x4 ADD PUSH2 0x1B59 SWAP2 SWAP1 PUSH2 0x3F0F JUMP JUMPDEST PUSH1 0x40 MLOAD DUP1 SWAP2 SUB SWAP1 REVERT JUMPDEST PUSH2 0x1B6B DUP2 PUSH2 0x24BE JUMP JUMPDEST POP JUMP JUMPDEST PUSH0 DUP1 PUSH2 0x1B78 PUSH2 0x1DF7 JUMP JUMPDEST SWAP1 POP DUP1 PUSH1 0x1 ADD PUSH0 SWAP1 SLOAD SWAP1 PUSH2 0x100 EXP SWAP1 DIV PUSH20 0xFFFFFFFFFFFFFFFFFFFFFFFFFFFFFFFFFFFFFFFF AND SWAP2 POP POP SWAP1 JUMP JUMPDEST PUSH0 PUSH2 0x1BAD PUSH2 0x1E5E JUMP JUMPDEST PUSH0 PUSH2 0x1BB6 PUSH2 0x1DF7 JUMP JUMPDEST SWAP1 POP PUSH0 JUMPDEST DUP5 DUP5 SWAP1 POP DUP2 LT ISZERO PUSH2 0x1C7B JUMPI DUP2 PUSH0 ADD PUSH0 SWAP1 SLOAD SWAP1 PUSH2 0x100 EXP SWAP1 DIV PUSH20 0xFFFFFFFFFFFFFFFFFFFFFFFFFFFFFFFFFFFFFFFF AND PUSH20 0xFFFFFFFFFFFFFFFFFFFFFFFFFFFFFFFFFFFFFFFF AND PUSH4 0x23B872DD ADDRESS CALLER DUP9 DUP9 DUP7 DUP2 DUP2 LT PUSH2 0x1C18 JUMPI PUSH2 0x1C17 PUSH2 0x42B8 JUMP JUMPDEST JUMPDEST SWAP1 POP PUSH1 0x20 MUL ADD CALLDATALOAD PUSH1 0x40 MLOAD DUP5 PUSH4 0xFFFFFFFF AND PUSH1 0xE0 SHL DUP2 MSTORE PUSH1 0x4 ADD PUSH2 0x1C3D SWAP4 SWAP3 SWAP2 SWAP1 PUSH2 0x42E5 JUMP JUMPDEST PUSH0 PUSH1 0x40 MLOAD DUP1 DUP4 SUB DUP2 PUSH0 DUP8 DUP1 EXTCODESIZE ISZERO DUP1 ISZERO PUSH2 0x1C54 JUMPI PUSH0 DUP1 REVERT JUMPDEST POP GAS CALL ISZERO DUP1 ISZERO PUSH2 0x1C66 JUMPI RETURNDATASIZE PUSH0 DUP1 RETURNDATACOPY RETURNDATASIZE PUSH0 REVERT JUMPDEST POP POP POP POP DUP1 PUSH2 0x1C74 SWAP1 PUSH2 0x4347 JUMP JUMPDEST SWAP1 POP PUSH2 0x1BBA JUMP JUMPDEST POP PUSH0 DUP5 DUP5 SWAP1 POP DUP3 PUSH0 ADD PUSH1 0x14 SWAP1 SLOAD SWAP1 PUSH2 0x100 EXP SWAP1 DIV PUSH12 0xFFFFFFFFFFFFFFFFFFFFFFFF AND PUSH12 0xFFFFFFFFFFFFFFFFFFFFFFFF AND PUSH2 0x1CB5 SWAP2 SWAP1 PUSH2 0x4497 JUMP JUMPDEST SWAP1 POP PUSH2 0x1CC1 CALLER DUP3 PUSH2 0x2882 JUMP JUMPDEST CALLER PUSH20 0xFFFFFFFFFFFFFFFFFFFFFFFFFFFFFFFFFFFFFFFF AND PUSH32 0x37B61D4AD848B88E12400720902B770C20D100BA950EABBFA4F37EE7B47302CA DUP7 DUP7 PUSH1 0x40 MLOAD PUSH2 0x1D09 SWAP3 SWAP2 SWAP1 PUSH2 0x44D8 JUMP JUMPDEST PUSH1 0x40 MLOAD DUP1 SWAP2 SUB SWAP1 LOG2 DUP1 SWAP3 POP POP POP SWAP3 SWAP2 POP POP JUMP JUMPDEST PUSH0 DUP1 PUSH2 0x1D26 PUSH2 0x1DF7 JUMP JUMPDEST SWAP1 POP DUP1 PUSH1 0x1 ADD PUSH1 0x15 SWAP1 SLOAD SWAP1 PUSH2 0x100 EXP SWAP1 DIV PUSH1 0xFF AND SWAP2 POP POP SWAP1 JUMP JUMPDEST PUSH0 PUSH32 0xF0C57E16840DF040F15088DC2F81FE391C3923BEC73E23A9662EFC9C229C6A00 SWAP1 POP SWAP1 JUMP JUMPDEST PUSH2 0x1D6F PUSH2 0x2901 JUMP JUMPDEST PUSH2 0x1D78 DUP2 PUSH2 0x2941 JUMP JUMPDEST POP JUMP JUMPDEST PUSH2 0x1D83 PUSH2 0x2901 JUMP JUMPDEST PUSH2 0x1D8D DUP3 DUP3 PUSH2 0x29C5 JUMP JUMPDEST POP POP JUMP JUMPDEST PUSH2 0x1D99 PUSH2 0x2901 JUMP JUMPDEST PUSH2 0x1DD8 DUP2 PUSH1 0x40 MLOAD DUP1 PUSH1 0x40 ADD PUSH1 0x40 MSTORE DUP1 PUSH1 0x1 DUP2 MSTORE PUSH1 0x20 ADD PUSH32 0x3100000000000000000000000000000000000000000000000000000000000000 DUP2 MSTORE POP PUSH2 0x2A01 JUMP JUMPDEST POP JUMP JUMPDEST PUSH2 0x1DE3 PUSH2 0x2901 JUMP JUMPDEST PUSH2 0x1DEB PUSH2 0x2A52 JUMP JUMPDEST JUMP JUMPDEST PUSH2 0x1DF5 PUSH2 0x2901 JUMP JUMPDEST JUMP JUMPDEST PUSH0 PUSH32 0xAAD48C25D976BDDAE43806613CAF4683472E13F174A999DA79654799A1B85F00 SWAP1 POP SWAP1 JUMP JUMPDEST PUSH0 PUSH32 0x52C63247E1F47DB19D5CE0460030C497F067CA4CEBF71BA98EEADABE20BACE00 SWAP1 POP SWAP1 JUMP JUMPDEST PUSH0 CALLER SWAP1 POP SWAP1 JUMP JUMPDEST PUSH2 0x1E59 DUP4 DUP4 DUP4 PUSH1 0x1 PUSH2 0x2A82 JUMP JUMPDEST POP POP POP JUMP JUMPDEST PUSH2 0x1E66 PUSH2 0x1352 JUMP JUMPDEST ISZERO PUSH2 0x1E9D JUMPI PUSH1 0x40 MLOAD PUSH32 0xD93C066500000000000000000000000000000000000000000000000000000000 DUP2 MSTORE PUSH1 0x4 ADD PUSH1 0x40 MLOAD DUP1 SWAP2 SUB SWAP1 REVERT JUMPDEST JUMP JUMPDEST PUSH0 PUSH2 0x1EAA DUP5 DUP5 PUSH2 0x19FB JUMP JUMPDEST SWAP1 POP PUSH32 0xFFFFFFFFFFFFFFFFFFFFFFFFFFFFFFFFFFFFFFFFFFFFFFFFFFFFFFFFFFFFFFFF DUP2 EQ PUSH2 0x1F2B JUMPI DUP2 DUP2 LT ISZERO PUSH2 0x1F1C JUMPI DUP3 DUP2 DUP4 PUSH1 0x40 MLOAD PUSH32 0xFB8F41B200000000000000000000000000000000000000000000000000000000 DUP2 MSTORE PUSH1 0x4 ADD PUSH2 0x1F13 SWAP4 SWAP3 SWAP2 SWAP1 PUSH2 0x46AD JUMP JUMPDEST PUSH1 0x40 MLOAD DUP1 SWAP2 SUB SWAP1 REVERT JUMPDEST PUSH2 0x1F2A DUP5 DUP5 DUP5 DUP5 SUB PUSH0 PUSH2 0x2A82 JUMP JUMPDEST JUMPDEST POP POP POP POP JUMP JUMPDEST PUSH0 PUSH20 0xFFFFFFFFFFFFFFFFFFFFFFFFFFFFFFFFFFFFFFFF AND DUP4 PUSH20 0xFFFFFFFFFFFFFFFFFFFFFFFFFFFFFFFFFFFFFFFF AND SUB PUSH2 0x1FA1 JUMPI PUSH0 PUSH1 0x40 MLOAD PUSH32 0x96C6FD1E00000000000000000000000000000000000000000000000000000000 DUP2 MSTORE PUSH1 0x4 ADD PUSH2 0x1F98 SWAP2 SWAP1 PUSH2 0x3F0F JUMP JUMPDEST PUSH1 0x40 MLOAD DUP1 SWAP2 SUB SWAP1 REVERT JUMPDEST PUSH0 PUSH20 0xFFFFFFFFFFFFFFFFFFFFFFFFFFFFFFFFFFFFFFFF AND DUP3 PUSH20 0xFFFFFFFFFFFFFFFFFFFFFFFFFFFFFFFFFFFFFFFF AND SUB PUSH2 0x2011 JUMPI PUSH0 PUSH1 0x40 MLOAD PUSH32 0xEC442F0500000000000000000000000000000000000000000000000000000000 DUP2 MSTORE PUSH1 0x4 ADD PUSH2 0x2008 SWAP2 SWAP1 PUSH2 0x3F0F JUMP JUMPDEST PUSH1 0x40 MLOAD DUP1 SWAP2 SUB SWAP1 REVERT JUMPDEST PUSH2 0x201C DUP4 DUP4 DUP4 PUSH2 0x2C5F JUMP JUMPDEST POP POP POP JUMP JUMPDEST PUSH0 PUSH2 0x202A PUSH2 0x2E8E JUMP JUMPDEST SWAP1 POP SWAP1 JUMP JUMPDEST PUSH2 0x2037 PUSH2 0x2EF1 JUMP JUMPDEST PUSH0 PUSH2 0x2040 PUSH2 0x2410 JUMP JUMPDEST SWAP1 POP PUSH0 DUP2 PUSH0 ADD PUSH0 PUSH2 0x100 EXP DUP2 SLOAD DUP2 PUSH1 0xFF MUL NOT AND SWAP1 DUP4 ISZERO ISZERO MUL OR SWAP1 SSTORE POP PUSH32 0x5DB9EE0A495BF2E6FF9C91A7834C1BA4FDD244A5E8AA4E537BD38AEAE4B073AA PUSH2 0x2085 PUSH2 0x1E45 JUMP JUMPDEST PUSH1 0x40 MLOAD PUSH2 0x2092 SWAP2 SWAP1 PUSH2 0x3F0F JUMP JUMPDEST PUSH1 0x40 MLOAD DUP1 SWAP2 SUB SWAP1 LOG1 POP JUMP JUMPDEST PUSH32 0x0 PUSH20 0xFFFFFFFFFFFFFFFFFFFFFFFFFFFFFFFFFFFFFFFF AND ADDRESS PUSH20 0xFFFFFFFFFFFFFFFFFFFFFFFFFFFFFFFFFFFFFFFF AND EQ DUP1 PUSH2 0x214A JUMPI POP PUSH32 0x0 PUSH20 0xFFFFFFFFFFFFFFFFFFFFFFFFFFFFFFFFFFFFFFFF AND PUSH2 0x2131 PUSH2 0x2F31 JUMP JUMPDEST PUSH20 0xFFFFFFFFFFFFFFFFFFFFFFFFFFFFFFFFFFFFFFFF AND EQ ISZERO JUMPDEST ISZERO PUSH2 0x2181 JUMPI PUSH1 0x40 MLOAD PUSH32 0xE07C8DBA00000000000000000000000000000000000000000000000000000000 DUP2 MSTORE PUSH1 0x4 ADD PUSH1 0x40 MLOAD DUP1 SWAP2 SUB SWAP1 REVERT JUMPDEST JUMP JUMPDEST PUSH2 0x218B PUSH2 0x2437 JUMP JUMPDEST PUSH0 PUSH2 0x2194 PUSH2 0x1DF7 JUMP JUMPDEST SWAP1 POP DUP1 PUSH1 0x1 ADD PUSH1 0x15 SWAP1 SLOAD SWAP1 PUSH2 0x100 EXP SWAP1 DIV PUSH1 0xFF AND ISZERO PUSH2 0x21E8 JUMPI PUSH1 0x40 MLOAD PUSH32 0x8C379A000000000000000000000000000000000000000000000000000000000 DUP2 MSTORE PUSH1 0x4 ADD PUSH2 0x21DF SWAP1 PUSH2 0x472C JUMP JUMPDEST PUSH1 0x40 MLOAD DUP1 SWAP2 SUB SWAP1 REVERT JUMPDEST POP POP JUMP JUMPDEST DUP2 PUSH20 0xFFFFFFFFFFFFFFFFFFFFFFFFFFFFFFFFFFFFFFFF AND PUSH4 0x52D1902D PUSH1 0x40 MLOAD DUP2 PUSH4 0xFFFFFFFF AND PUSH1 0xE0 SHL DUP2 MSTORE PUSH1 0x4 ADD PUSH1 0x20 PUSH1 0x40 MLOAD DUP1 DUP4 SUB DUP2 DUP7 GAS STATICCALL SWAP3 POP POP POP DUP1 ISZERO PUSH2 0x2254 JUMPI POP PUSH1 0x40 MLOAD RETURNDATASIZE PUSH1 0x1F NOT PUSH1 0x1F DUP3 ADD AND DUP3 ADD DUP1 PUSH1 0x40 MSTORE POP DUP2 ADD SWAP1 PUSH2 0x2251 SWAP2 SWAP1 PUSH2 0x475E JUMP JUMPDEST PUSH1 0x1 JUMPDEST PUSH2 0x2295 JUMPI DUP2 PUSH1 0x40 MLOAD PUSH32 0x4C9C8CE300000000000000000000000000000000000000000000000000000000 DUP2 MSTORE PUSH1 0x4 ADD PUSH2 0x228C SWAP2 SWAP1 PUSH2 0x3F0F JUMP JUMPDEST PUSH1 0x40 MLOAD DUP1 SWAP2 SUB SWAP1 REVERT JUMPDEST PUSH32 0x360894A13BA1A3210667C828492DB98DCA3E2076CC3735A920A3CA505D382BBC PUSH0 SHL DUP2 EQ PUSH2 0x22FB JUMPI DUP1 PUSH1 0x40 MLOAD PUSH32 0xAA1D49A400000000000000000000000000000000000000000000000000000000 DUP2 MSTORE PUSH1 0x4 ADD PUSH2 0x22F2 SWAP2 SWAP1 PUSH2 0x3B08 JUMP JUMPDEST PUSH1 0x40 MLOAD DUP1 SWAP2 SUB SWAP1 REVERT JUMPDEST PUSH2 0x2305 DUP4 DUP4 PUSH2 0x2F84 JUMP JUMPDEST POP POP POP JUMP JUMPDEST PUSH32 0x0 PUSH20 0xFFFFFFFFFFFFFFFFFFFFFFFFFFFFFFFFFFFFFFFF AND ADDRESS PUSH20 0xFFFFFFFFFFFFFFFFFFFFFFFFFFFFFFFFFFFFFFFF AND EQ PUSH2 0x238F JUMPI PUSH1 0x40 MLOAD PUSH32 0xE07C8DBA00000000000000000000000000000000000000000000000000000000 DUP2 MSTORE PUSH1 0x4 ADD PUSH1 0x40 MLOAD DUP1 SWAP2 SUB SWAP1 REVERT JUMPDEST JUMP JUMPDEST PUSH0 PUSH20 0xFFFFFFFFFFFFFFFFFFFFFFFFFFFFFFFFFFFFFFFF AND DUP3 PUSH20 0xFFFFFFFFFFFFFFFFFFFFFFFFFFFFFFFFFFFFFFFF AND SUB PUSH2 0x2401 JUMPI PUSH0 PUSH1 0x40 MLOAD PUSH32 0xEC442F0500000000000000000000000000000000000000000000000000000000 DUP2 MSTORE PUSH1 0x4 ADD PUSH2 0x23F8 SWAP2 SWAP1 PUSH2 0x3F0F JUMP JUMPDEST PUSH1 0x40 MLOAD DUP1 SWAP2 SUB SWAP1 REVERT JUMPDEST PUSH2 0x240C PUSH0 DUP4 DUP4 PUSH2 0x2C5F JUMP JUMPDEST POP POP JUMP JUMPDEST PUSH0 PUSH32 0xCD5ED15C6E187E77E9AEE88184C21F4F2182AB5827CB3B7E07FBEDCD63F03300 SWAP1 POP SWAP1 JUMP JUMPDEST PUSH2 0x243F PUSH2 0x1E45 JUMP JUMPDEST PUSH20 0xFFFFFFFFFFFFFFFFFFFFFFFFFFFFFFFFFFFFFFFF AND PUSH2 0x245D PUSH2 0x175A JUMP JUMPDEST PUSH20 0xFFFFFFFFFFFFFFFFFFFFFFFFFFFFFFFFFFFFFFFF AND EQ PUSH2 0x24BC JUMPI PUSH2 0x2480 PUSH2 0x1E45 JUMP JUMPDEST PUSH1 0x40 MLOAD PUSH32 0x118CDAA700000000000000000000000000000000000000000000000000000000 DUP2 MSTORE PUSH1 0x4 ADD PUSH2 0x24B3 SWAP2 SWAP1 PUSH2 0x3F0F JUMP JUMPDEST PUSH1 0x40 MLOAD DUP1 SWAP2 SUB SWAP1 REVERT JUMPDEST JUMP JUMPDEST PUSH0 PUSH2 0x24C7 PUSH2 0x27B4 JUMP JUMPDEST SWAP1 POP PUSH0 DUP2 PUSH0 ADD PUSH0 SWAP1 SLOAD SWAP1 PUSH2 0x100 EXP SWAP1 DIV PUSH20 0xFFFFFFFFFFFFFFFFFFFFFFFFFFFFFFFFFFFFFFFF AND SWAP1 POP DUP3 DUP3 PUSH0 ADD PUSH0 PUSH2 0x100 EXP DUP2 SLOAD DUP2 PUSH20 0xFFFFFFFFFFFFFFFFFFFFFFFFFFFFFFFFFFFFFFFF MUL NOT AND SWAP1 DUP4 PUSH20 0xFFFFFFFFFFFFFFFFFFFFFFFFFFFFFFFFFFFFFFFF AND MUL OR SWAP1 SSTORE POP DUP3 PUSH20 0xFFFFFFFFFFFFFFFFFFFFFFFFFFFFFFFFFFFFFFFF AND DUP2 PUSH20 0xFFFFFFFFFFFFFFFFFFFFFFFFFFFFFFFFFFFFFFFF AND PUSH32 0x8BE0079C531659141344CD1FD0A4F28419497F9722A3DAAFE3B4186F6B6457E0 PUSH1 0x40 MLOAD PUSH1 0x40 MLOAD DUP1 SWAP2 SUB SWAP1 LOG3 POP POP POP JUMP JUMPDEST PUSH0 DUP1 PUSH2 0x2599 PUSH2 0x2FF6 JUMP JUMPDEST SWAP1 POP DUP1 PUSH0 ADD PUSH0 DUP5 PUSH20 0xFFFFFFFFFFFFFFFFFFFFFFFFFFFFFFFFFFFFFFFF AND PUSH20 0xFFFFFFFFFFFFFFFFFFFFFFFFFFFFFFFFFFFFFFFF AND DUP2 MSTORE PUSH1 0x20 ADD SWAP1 DUP2 MSTORE PUSH1 0x20 ADD PUSH0 KECCAK256 SLOAD SWAP2 POP POP SWAP2 SWAP1 POP JUMP JUMPDEST PUSH2 0x25EA PUSH2 0x1E5E JUMP JUMPDEST PUSH0 PUSH2 0x25F3 PUSH2 0x2410 JUMP JUMPDEST SWAP1 POP PUSH1 0x1 DUP2 PUSH0 ADD PUSH0 PUSH2 0x100 EXP DUP2 SLOAD DUP2 PUSH1 0xFF MUL NOT AND SWAP1 DUP4 ISZERO ISZERO MUL OR SWAP1 SSTORE POP PUSH32 0x62E78CEA01BEE320CD4E420270B5EA74000D11B0C9F74754EBDBFC544B05A258 PUSH2 0x2639 PUSH2 0x1E45 JUMP JUMPDEST PUSH1 0x40 MLOAD PUSH2 0x2646 SWAP2 SWAP1 PUSH2 0x3F0F JUMP JUMPDEST PUSH1 0x40 MLOAD DUP1 SWAP2 SUB SWAP1 LOG1 POP JUMP JUMPDEST PUSH0 PUSH32 0xA16A46D94261C7517CC8FF89F61C0CE93598E3C849801011DEE649A6A557D100 SWAP1 POP SWAP1 JUMP JUMPDEST PUSH1 0x60 PUSH0 PUSH2 0x2683 PUSH2 0x2651 JUMP JUMPDEST SWAP1 POP DUP1 PUSH1 0x2 ADD DUP1 SLOAD PUSH2 0x2694 SWAP1 PUSH2 0x4220 JUMP JUMPDEST DUP1 PUSH1 0x1F ADD PUSH1 0x20 DUP1 SWAP2 DIV MUL PUSH1 0x20 ADD PUSH1 0x40 MLOAD SWAP1 DUP2 ADD PUSH1 0x40 MSTORE DUP1 SWAP3 SWAP2 SWAP1 DUP2 DUP2 MSTORE PUSH1 0x20 ADD DUP3 DUP1 SLOAD PUSH2 0x26C0 SWAP1 PUSH2 0x4220 JUMP JUMPDEST DUP1 ISZERO PUSH2 0x270B JUMPI DUP1 PUSH1 0x1F LT PUSH2 0x26E2 JUMPI PUSH2 0x100 DUP1 DUP4 SLOAD DIV MUL DUP4 MSTORE SWAP2 PUSH1 0x20 ADD SWAP2 PUSH2 0x270B JUMP JUMPDEST DUP3 ADD SWAP2 SWAP1 PUSH0 MSTORE PUSH1 0x20 PUSH0 KECCAK256 SWAP1 JUMPDEST DUP2 SLOAD DUP2 MSTORE SWAP1 PUSH1 0x1 ADD SWAP1 PUSH1 0x20 ADD DUP1 DUP4 GT PUSH2 0x26EE JUMPI DUP3 SWAP1 SUB PUSH1 0x1F AND DUP3 ADD SWAP2 JUMPDEST POP POP POP POP POP SWAP2 POP POP SWAP1 JUMP JUMPDEST PUSH1 0x60 PUSH0 PUSH2 0x2721 PUSH2 0x2651 JUMP JUMPDEST SWAP1 POP DUP1 PUSH1 0x3 ADD DUP1 SLOAD PUSH2 0x2732 SWAP1 PUSH2 0x4220 JUMP JUMPDEST DUP1 PUSH1 0x1F ADD PUSH1 0x20 DUP1 SWAP2 DIV MUL PUSH1 0x20 ADD PUSH1 0x40 MLOAD SWAP1 DUP2 ADD PUSH1 0x40 MSTORE DUP1 SWAP3 SWAP2 SWAP1 DUP2 DUP2 MSTORE PUSH1 0x20 ADD DUP3 DUP1 SLOAD PUSH2 0x275E SWAP1 PUSH2 0x4220 JUMP JUMPDEST DUP1 ISZERO PUSH2 0x27A9 JUMPI DUP1 PUSH1 0x1F LT PUSH2 0x2780 JUMPI PUSH2 0x100 DUP1 DUP4 SLOAD DIV MUL DUP4 MSTORE SWAP2 PUSH1 0x20 ADD SWAP2 PUSH2 0x27A9 JUMP JUMPDEST DUP3 ADD SWAP2 SWAP1 PUSH0 MSTORE PUSH1 0x20 PUSH0 KECCAK256 SWAP1 JUMPDEST DUP2 SLOAD DUP2 MSTORE SWAP1 PUSH1 0x1 ADD SWAP1 PUSH1 0x20 ADD DUP1 DUP4 GT PUSH2 0x278C JUMPI DUP3 SWAP1 SUB PUSH1 0x1F AND DUP3 ADD SWAP2 JUMPDEST POP POP POP POP POP SWAP2 POP POP SWAP1 JUMP JUMPDEST PUSH0 PUSH32 0x9016D09D72D40FDAE2FD8CEAC6B6234C7706214FD39C1CD1E609A0528C199300 SWAP1 POP SWAP1 JUMP JUMPDEST PUSH0 DUP1 PUSH2 0x27E5 PUSH2 0x2FF6 JUMP JUMPDEST SWAP1 POP DUP1 PUSH0 ADD PUSH0 DUP5 PUSH20 0xFFFFFFFFFFFFFFFFFFFFFFFFFFFFFFFFFFFFFFFF AND PUSH20 0xFFFFFFFFFFFFFFFFFFFFFFFFFFFFFFFFFFFFFFFF AND DUP2 MSTORE PUSH1 0x20 ADD SWAP1 DUP2 MSTORE PUSH1 0x20 ADD PUSH0 KECCAK256 PUSH0 DUP2 SLOAD DUP1 SWAP3 SWAP2 SWAP1 PUSH1 0x1 ADD SWAP2 SWAP1 POP SSTORE SWAP2 POP POP SWAP2 SWAP1 POP JUMP JUMPDEST PUSH0 PUSH2 0x284D PUSH2 0x2847 PUSH2 0x2021 JUMP JUMPDEST DUP4 PUSH2 0x301D JUMP JUMPDEST SWAP1 POP SWAP2 SWAP1 POP JUMP JUMPDEST PUSH0 DUP1 PUSH0 DUP1 PUSH2 0x2864 DUP9 DUP9 DUP9 DUP9 PUSH2 0x305D JUMP JUMPDEST SWAP3 POP SWAP3 POP SWAP3 POP PUSH2 0x2874 DUP3 DUP3 PUSH2 0x3144 JUMP JUMPDEST DUP3 SWAP4 POP POP POP POP SWAP5 SWAP4 POP POP POP POP JUMP JUMPDEST PUSH0 PUSH20 0xFFFFFFFFFFFFFFFFFFFFFFFFFFFFFFFFFFFFFFFF AND DUP3 PUSH20 0xFFFFFFFFFFFFFFFFFFFFFFFFFFFFFFFFFFFFFFFF AND SUB PUSH2 0x28F2 JUMPI PUSH0 PUSH1 0x40 MLOAD PUSH32 0x96C6FD1E00000000000000000000000000000000000000000000000000000000 DUP2 MSTORE PUSH1 0x4 ADD PUSH2 0x28E9 SWAP2 SWAP1 PUSH2 0x3F0F JUMP JUMPDEST PUSH1 0x40 MLOAD DUP1 SWAP2 SUB SWAP1 REVERT JUMPDEST PUSH2 0x28FD DUP3 PUSH0 DUP4 PUSH2 0x2C5F JUMP JUMPDEST POP POP JUMP JUMPDEST PUSH2 0x2909 PUSH2 0x32A6 JUMP JUMPDEST PUSH2 0x293F JUMPI PUSH1 0x40 MLOAD PUSH32 0xD7E6BCF800000000000000000000000000000000000000000000000000000000 DUP2 MSTORE PUSH1 0x4 ADD PUSH1 0x40 MLOAD DUP1 SWAP2 SUB SWAP1 REVERT JUMPDEST JUMP JUMPDEST PUSH2 0x2949 PUSH2 0x2901 JUMP JUMPDEST PUSH0 PUSH20 0xFFFFFFFFFFFFFFFFFFFFFFFFFFFFFFFFFFFFFFFF AND DUP2 PUSH20 0xFFFFFFFFFFFFFFFFFFFFFFFFFFFFFFFFFFFFFFFF AND SUB PUSH2 0x29B9 JUMPI PUSH0 PUSH1 0x40 MLOAD PUSH32 0x1E4FBDF700000000000000000000000000000000000000000000000000000000 DUP2 MSTORE PUSH1 0x4 ADD PUSH2 0x29B0 SWAP2 SWAP1 PUSH2 0x3F0F JUMP JUMPDEST PUSH1 0x40 MLOAD DUP1 SWAP2 SUB SWAP1 REVERT JUMPDEST PUSH2 0x29C2 DUP2 PUSH2 0x24BE JUMP JUMPDEST POP JUMP JUMPDEST PUSH2 0x29CD PUSH2 0x2901 JUMP JUMPDEST PUSH0 PUSH2 0x29D6 PUSH2 0x1E1E JUMP JUMPDEST SWAP1 POP DUP3 DUP2 PUSH1 0x3 ADD SWAP1 DUP2 PUSH2 0x29E9 SWAP2 SWAP1 PUSH2 0x491D JUMP JUMPDEST POP DUP2 DUP2 PUSH1 0x4 ADD SWAP1 DUP2 PUSH2 0x29FB SWAP2 SWAP1 PUSH2 0x491D JUMP JUMPDEST POP POP POP POP JUMP JUMPDEST PUSH2 0x2A09 PUSH2 0x2901 JUMP JUMPDEST PUSH0 PUSH2 0x2A12 PUSH2 0x2651 JUMP JUMPDEST SWAP1 POP DUP3 DUP2 PUSH1 0x2 ADD SWAP1 DUP2 PUSH2 0x2A25 SWAP2 SWAP1 PUSH2 0x491D JUMP JUMPDEST POP DUP2 DUP2 PUSH1 0x3 ADD SWAP1 DUP2 PUSH2 0x2A37 SWAP2 SWAP1 PUSH2 0x491D JUMP JUMPDEST POP PUSH0 DUP1 SHL DUP2 PUSH0 ADD DUP2 SWAP1 SSTORE POP PUSH0 DUP1 SHL DUP2 PUSH1 0x1 ADD DUP2 SWAP1 SSTORE POP POP POP POP JUMP JUMPDEST PUSH2 0x2A5A PUSH2 0x2901 JUMP JUMPDEST PUSH0 PUSH2 0x2A63 PUSH2 0x2410 JUMP JUMPDEST SWAP1 POP PUSH0 DUP2 PUSH0 ADD PUSH0 PUSH2 0x100 EXP DUP2 SLOAD DUP2 PUSH1 0xFF MUL NOT AND SWAP1 DUP4 ISZERO ISZERO MUL OR SWAP1 SSTORE POP POP JUMP JUMPDEST PUSH0 PUSH2 0x2A8B PUSH2 0x1E1E JUMP JUMPDEST SWAP1 POP PUSH0 PUSH20 0xFFFFFFFFFFFFFFFFFFFFFFFFFFFFFFFFFFFFFFFF AND DUP6 PUSH20 0xFFFFFFFFFFFFFFFFFFFFFFFFFFFFFFFFFFFFFFFF AND SUB PUSH2 0x2AFD JUMPI PUSH0 PUSH1 0x40 MLOAD PUSH32 0xE602DF0500000000000000000000000000000000000000000000000000000000 DUP2 MSTORE PUSH1 0x4 ADD PUSH2 0x2AF4 SWAP2 SWAP1 PUSH2 0x3F0F JUMP JUMPDEST PUSH1 0x40 MLOAD DUP1 SWAP2 SUB SWAP1 REVERT JUMPDEST PUSH0 PUSH20 0xFFFFFFFFFFFFFFFFFFFFFFFFFFFFFFFFFFFFFFFF AND DUP5 PUSH20 0xFFFFFFFFFFFFFFFFFFFFFFFFFFFFFFFFFFFFFFFF AND SUB PUSH2 0x2B6D JUMPI PUSH0 PUSH1 0x40 MLOAD PUSH32 0x94280D6200000000000000000000000000000000000000000000000000000000 DUP2 MSTORE PUSH1 0x4 ADD PUSH2 0x2B64 SWAP2 SWAP1 PUSH2 0x3F0F JUMP JUMPDEST PUSH1 0x40 MLOAD DUP1 SWAP2 SUB SWAP1 REVERT JUMPDEST DUP3 DUP2 PUSH1 0x1 ADD PUSH0 DUP8 PUSH20 0xFFFFFFFFFFFFFFFFFFFFFFFFFFFFFFFFFFFFFFFF AND PUSH20 0xFFFFFFFFFFFFFFFFFFFFFFFFFFFFFFFFFFFFFFFF AND DUP2 MSTORE PUSH1 0x20 ADD SWAP1 DUP2 MSTORE PUSH1 0x20 ADD PUSH0 KECCAK256 PUSH0 DUP7 PUSH20 0xFFFFFFFFFFFFFFFFFFFFFFFFFFFFFFFFFFFFFFFF AND PUSH20 0xFFFFFFFFFFFFFFFFFFFFFFFFFFFFFFFFFFFFFFFF AND DUP2 MSTORE PUSH1 0x20 ADD SWAP1 DUP2 MSTORE PUSH1 0x20 ADD PUSH0 KECCAK256 DUP2 SWAP1 SSTORE POP DUP2 ISZERO PUSH2 0x2C58 JUMPI DUP4 PUSH20 0xFFFFFFFFFFFFFFFFFFFFFFFFFFFFFFFFFFFFFFFF AND DUP6 PUSH20 0xFFFFFFFFFFFFFFFFFFFFFFFFFFFFFFFFFFFFFFFF AND PUSH32 0x8C5BE1E5EBEC7D5BD14F71427D1E84F3DD0314C0F7B2291E5B200AC8C7C3B925 DUP6 PUSH1 0x40 MLOAD PUSH2 0x2C4F SWAP2 SWAP1 PUSH2 0x3A5F JUMP JUMPDEST PUSH1 0x40 MLOAD DUP1 SWAP2 SUB SWAP1 LOG3 JUMPDEST POP POP POP POP POP JUMP JUMPDEST PUSH0 PUSH2 0x2C68 PUSH2 0x1E1E JUMP JUMPDEST SWAP1 POP PUSH0 PUSH20 0xFFFFFFFFFFFFFFFFFFFFFFFFFFFFFFFFFFFFFFFF AND DUP5 PUSH20 0xFFFFFFFFFFFFFFFFFFFFFFFFFFFFFFFFFFFFFFFF AND SUB PUSH2 0x2CBC JUMPI DUP2 DUP2 PUSH1 0x2 ADD PUSH0 DUP3 DUP3 SLOAD PUSH2 0x2CB0 SWAP2 SWAP1 PUSH2 0x49EC JUMP JUMPDEST SWAP3 POP POP DUP2 SWAP1 SSTORE POP PUSH2 0x2D8E JUMP JUMPDEST PUSH0 DUP2 PUSH0 ADD PUSH0 DUP7 PUSH20 0xFFFFFFFFFFFFFFFFFFFFFFFFFFFFFFFFFFFFFFFF AND PUSH20 0xFFFFFFFFFFFFFFFFFFFFFFFFFFFFFFFFFFFFFFFF AND DUP2 MSTORE PUSH1 0x20 ADD SWAP1 DUP2 MSTORE PUSH1 0x20 ADD PUSH0 KECCAK256 SLOAD SWAP1 POP DUP3 DUP2 LT ISZERO PUSH2 0x2D47 JUMPI DUP5 DUP2 DUP5 PUSH1 0x40 MLOAD PUSH32 0xE450D38C00000000000000000000000000000000000000000000000000000000 DUP2 MSTORE PUSH1 0x4 ADD PUSH2 0x2D3E SWAP4 SWAP3 SWAP2 SWAP1 PUSH2 0x46AD JUMP JUMPDEST PUSH1 0x40 MLOAD DUP1 SWAP2 SUB SWAP1 REVERT JUMPDEST DUP3 DUP2 SUB DUP3 PUSH0 ADD PUSH0 DUP8 PUSH20 0xFFFFFFFFFFFFFFFFFFFFFFFFFFFFFFFFFFFFFFFF AND PUSH20 0xFFFFFFFFFFFFFFFFFFFFFFFFFFFFFFFFFFFFFFFF AND DUP2 MSTORE PUSH1 0x20 ADD SWAP1 DUP2 MSTORE PUSH1 0x20 ADD PUSH0 KECCAK256 DUP2 SWAP1 SSTORE POP POP JUMPDEST PUSH0 PUSH20 0xFFFFFFFFFFFFFFFFFFFFFFFFFFFFFFFFFFFFFFFF AND DUP4 PUSH20 0xFFFFFFFFFFFFFFFFFFFFFFFFFFFFFFFFFFFFFFFF AND SUB PUSH2 0x2DD7 JUMPI DUP2 DUP2 PUSH1 0x2 ADD PUSH0 DUP3 DUP3 SLOAD SUB SWAP3 POP POP DUP2 SWAP1 SSTORE POP PUSH2 0x2E23 JUMP JUMPDEST DUP2 DUP2 PUSH0 ADD PUSH0 DUP6 PUSH20 0xFFFFFFFFFFFFFFFFFFFFFFFFFFFFFFFFFFFFFFFF AND PUSH20 0xFFFFFFFFFFFFFFFFFFFFFFFFFFFFFFFFFFFFFFFF AND DUP2 MSTORE PUSH1 0x20 ADD SWAP1 DUP2 MSTORE PUSH1 0x20 ADD PUSH0 KECCAK256 PUSH0 DUP3 DUP3 SLOAD ADD SWAP3 POP POP DUP2 SWAP1 SSTORE POP JUMPDEST DUP3 PUSH20 0xFFFFFFFFFFFFFFFFFFFFFFFFFFFFFFFFFFFFFFFF AND DUP5 PUSH20 0xFFFFFFFFFFFFFFFFFFFFFFFFFFFFFFFFFFFFFFFF AND PUSH32 0xDDF252AD1BE2C89B69C2B068FC378DAA952BA7F163C4A11628F55A4DF523B3EF DUP5 PUSH1 0x40 MLOAD PUSH2 0x2E80 SWAP2 SWAP1 PUSH2 0x3A5F JUMP JUMPDEST PUSH1 0x40 MLOAD DUP1 SWAP2 SUB SWAP1 LOG3 POP POP POP POP JUMP JUMPDEST PUSH0 PUSH32 0x8B73C3C69BB8FE3D512ECC4CF759CC79239F7B179B0FFACAA9A75D522B39400F PUSH2 0x2EB8 PUSH2 0x32C4 JUMP JUMPDEST PUSH2 0x2EC0 PUSH2 0x333A JUMP JUMPDEST CHAINID ADDRESS PUSH1 0x40 MLOAD PUSH1 0x20 ADD PUSH2 0x2ED6 SWAP6 SWAP5 SWAP4 SWAP3 SWAP2 SWAP1 PUSH2 0x4A1F JUMP JUMPDEST PUSH1 0x40 MLOAD PUSH1 0x20 DUP2 DUP4 SUB SUB DUP2 MSTORE SWAP1 PUSH1 0x40 MSTORE DUP1 MLOAD SWAP1 PUSH1 0x20 ADD KECCAK256 SWAP1 POP SWAP1 JUMP JUMPDEST PUSH2 0x2EF9 PUSH2 0x1352 JUMP JUMPDEST PUSH2 0x2F2F JUMPI PUSH1 0x40 MLOAD PUSH32 0x8DFC202B00000000000000000000000000000000000000000000000000000000 DUP2 MSTORE PUSH1 0x4 ADD PUSH1 0x40 MLOAD DUP1 SWAP2 SUB SWAP1 REVERT JUMPDEST JUMP JUMPDEST PUSH0 PUSH2 0x2F5D PUSH32 0x360894A13BA1A3210667C828492DB98DCA3E2076CC3735A920A3CA505D382BBC PUSH0 SHL PUSH2 0x33B1 JUMP JUMPDEST PUSH0 ADD PUSH0 SWAP1 SLOAD SWAP1 PUSH2 0x100 EXP SWAP1 DIV PUSH20 0xFFFFFFFFFFFFFFFFFFFFFFFFFFFFFFFFFFFFFFFF AND SWAP1 POP SWAP1 JUMP JUMPDEST PUSH2 0x2F8D DUP3 PUSH2 0x33BA JUMP JUMPDEST DUP2 PUSH20 0xFFFFFFFFFFFFFFFFFFFFFFFFFFFFFFFFFFFFFFFF AND PUSH32 0xBC7CD75A20EE27FD9ADEBAB32041F755214DBC6BFFA90CC0225B39DA2E5C2D3B PUSH1 0x40 MLOAD PUSH1 0x40 MLOAD DUP1 SWAP2 SUB SWAP1 LOG2 PUSH0 DUP2 MLOAD GT ISZERO PUSH2 0x2FE9 JUMPI PUSH2 0x2FE3 DUP3 DUP3 PUSH2 0x3483 JUMP JUMPDEST POP PUSH2 0x2FF2 JUMP JUMPDEST PUSH2 0x2FF1 PUSH2 0x3503 JUMP JUMPDEST JUMPDEST POP POP JUMP JUMPDEST PUSH0 PUSH32 0x5AB42CED628888259C08AC98DB1EB0CF702FC1501344311D8B100CD1BFE4BB00 SWAP1 POP SWAP1 JUMP JUMPDEST PUSH0 PUSH1 0x40 MLOAD PUSH32 0x1901000000000000000000000000000000000000000000000000000000000000 DUP2 MSTORE DUP4 PUSH1 0x2 DUP3 ADD MSTORE DUP3 PUSH1 0x22 DUP3 ADD MSTORE PUSH1 0x42 DUP2 KECCAK256 SWAP2 POP POP SWAP3 SWAP2 POP POP JUMP JUMPDEST PUSH0 DUP1 PUSH0 PUSH32 0x7FFFFFFFFFFFFFFFFFFFFFFFFFFFFFFF5D576E7357A4501DDFE92F46681B20A0 DUP5 PUSH0 SHR GT ISZERO PUSH2 0x3099 JUMPI PUSH0 PUSH1 0x3 DUP6 SWAP3 POP SWAP3 POP SWAP3 POP PUSH2 0x313A JUMP JUMPDEST PUSH0 PUSH1 0x1 DUP9 DUP9 DUP9 DUP9 PUSH1 0x40 MLOAD PUSH0 DUP2 MSTORE PUSH1 0x20 ADD PUSH1 0x40 MSTORE PUSH1 0x40 MLOAD PUSH2 0x30BC SWAP5 SWAP4 SWAP3 SWAP2 SWAP1 PUSH2 0x4A70 JUMP JUMPDEST PUSH1 0x20 PUSH1 0x40 MLOAD PUSH1 0x20 DUP2 SUB SWAP1 DUP1 DUP5 SUB SWAP1 DUP6 GAS STATICCALL ISZERO DUP1 ISZERO PUSH2 0x30DC JUMPI RETURNDATASIZE PUSH0 DUP1 RETURNDATACOPY RETURNDATASIZE PUSH0 REVERT JUMPDEST POP POP POP PUSH1 0x20 PUSH1 0x40 MLOAD SUB MLOAD SWAP1 POP PUSH0 PUSH20 0xFFFFFFFFFFFFFFFFFFFFFFFFFFFFFFFFFFFFFFFF AND DUP2 PUSH20 0xFFFFFFFFFFFFFFFFFFFFFFFFFFFFFFFFFFFFFFFF AND SUB PUSH2 0x312D JUMPI PUSH0 PUSH1 0x1 PUSH0 DUP1 SHL SWAP4 POP SWAP4 POP SWAP4 POP POP PUSH2 0x313A JUMP JUMPDEST DUP1 PUSH0 DUP1 PUSH0 SHL SWAP4 POP SWAP4 POP SWAP4 POP POP JUMPDEST SWAP5 POP SWAP5 POP SWAP5 SWAP2 POP POP JUMP JUMPDEST PUSH0 PUSH1 0x3 DUP2 GT ISZERO PUSH2 0x3157 JUMPI PUSH2 0x3156 PUSH2 0x4AB3 JUMP JUMPDEST JUMPDEST DUP3 PUSH1 0x3 DUP2 GT ISZERO PUSH2 0x316A JUMPI PUSH2 0x3169 PUSH2 0x4AB3 JUMP JUMPDEST JUMPDEST SUB ISZERO PUSH2 0x32A2 JUMPI PUSH1 0x1 PUSH1 0x3 DUP2 GT ISZERO PUSH2 0x3184 JUMPI PUSH2 0x3183 PUSH2 0x4AB3 JUMP JUMPDEST JUMPDEST DUP3 PUSH1 0x3 DUP2 GT ISZERO PUSH2 0x3197 JUMPI PUSH2 0x3196 PUSH2 0x4AB3 JUMP JUMPDEST JUMPDEST SUB PUSH2 0x31CE JUMPI PUSH1 0x40 MLOAD PUSH32 0xF645EEDF00000000000000000000000000000000000000000000000000000000 DUP2 MSTORE PUSH1 0x4 ADD PUSH1 0x40 MLOAD DUP1 SWAP2 SUB SWAP1 REVERT JUMPDEST PUSH1 0x2 PUSH1 0x3 DUP2 GT ISZERO PUSH2 0x31E2 JUMPI PUSH2 0x31E1 PUSH2 0x4AB3 JUMP JUMPDEST JUMPDEST DUP3 PUSH1 0x3 DUP2 GT ISZERO PUSH2 0x31F5 JUMPI PUSH2 0x31F4 PUSH2 0x4AB3 JUMP JUMPDEST JUMPDEST SUB PUSH2 0x3239 JUMPI DUP1 PUSH0 SHR PUSH1 0x40 MLOAD PUSH32 0xFCE698F700000000000000000000000000000000000000000000000000000000 DUP2 MSTORE PUSH1 0x4 ADD PUSH2 0x3230 SWAP2 SWAP1 PUSH2 0x3A5F JUMP JUMPDEST PUSH1 0x40 MLOAD DUP1 SWAP2 SUB SWAP1 REVERT JUMPDEST PUSH1 0x3 DUP1 DUP2 GT ISZERO PUSH2 0x324C JUMPI PUSH2 0x324B PUSH2 0x4AB3 JUMP JUMPDEST JUMPDEST DUP3 PUSH1 0x3 DUP2 GT ISZERO PUSH2 0x325F JUMPI PUSH2 0x325E PUSH2 0x4AB3 JUMP JUMPDEST JUMPDEST SUB PUSH2 0x32A1 JUMPI DUP1 PUSH1 0x40 MLOAD PUSH32 0xD78BCE0C00000000000000000000000000000000000000000000000000000000 DUP2 MSTORE PUSH1 0x4 ADD PUSH2 0x3298 SWAP2 SWAP1 PUSH2 0x3B08 JUMP JUMPDEST PUSH1 0x40 MLOAD DUP1 SWAP2 SUB SWAP1 REVERT JUMPDEST JUMPDEST POP POP JUMP JUMPDEST PUSH0 PUSH2 0x32AF PUSH2 0x1D40 JUMP JUMPDEST PUSH0 ADD PUSH1 0x8 SWAP1 SLOAD SWAP1 PUSH2 0x100 EXP SWAP1 DIV PUSH1 0xFF AND SWAP1 POP SWAP1 JUMP JUMPDEST PUSH0 DUP1 PUSH2 0x32CE PUSH2 0x2651 JUMP JUMPDEST SWAP1 POP PUSH0 PUSH2 0x32D9 PUSH2 0x2678 JUMP JUMPDEST SWAP1 POP PUSH0 DUP2 MLOAD GT ISZERO PUSH2 0x32F5 JUMPI DUP1 DUP1 MLOAD SWAP1 PUSH1 0x20 ADD KECCAK256 SWAP3 POP POP POP PUSH2 0x3337 JUMP JUMPDEST PUSH0 DUP3 PUSH0 ADD SLOAD SWAP1 POP PUSH0 DUP1 SHL DUP2 EQ PUSH2 0x3310 JUMPI DUP1 SWAP4 POP POP POP POP PUSH2 0x3337 JUMP JUMPDEST PUSH32 0xC5D2460186F7233C927E7DB2DCC703C0E500B653CA82273B7BFAD8045D85A470 SWAP4 POP POP POP POP JUMPDEST SWAP1 JUMP JUMPDEST PUSH0 DUP1 PUSH2 0x3344 PUSH2 0x2651 JUMP JUMPDEST SWAP1 POP PUSH0 PUSH2 0x334F PUSH2 0x2716 JUMP JUMPDEST SWAP1 POP PUSH0 DUP2 MLOAD GT ISZERO PUSH2 0x336B JUMPI DUP1 DUP1 MLOAD SWAP1 PUSH1 0x20 ADD KECCAK256 SWAP3 POP POP POP PUSH2 0x33AE JUMP JUMPDEST PUSH0 DUP3 PUSH1 0x1 ADD SLOAD SWAP1 POP PUSH0 DUP1 SHL DUP2 EQ PUSH2 0x3387 JUMPI DUP1 SWAP4 POP POP POP POP PUSH2 0x33AE JUMP JUMPDEST PUSH32 0xC5D2460186F7233C927E7DB2DCC703C0E500B653CA82273B7BFAD8045D85A470 SWAP4 POP POP POP POP JUMPDEST SWAP1 JUMP JUMPDEST PUSH0 DUP2 SWAP1 POP SWAP2 SWAP1 POP JUMP JUMPDEST PUSH0 DUP2 PUSH20 0xFFFFFFFFFFFFFFFFFFFFFFFFFFFFFFFFFFFFFFFF AND EXTCODESIZE SUB PUSH2 0x3415 JUMPI DUP1 PUSH1 0x40 MLOAD PUSH32 0x4C9C8CE300000000000000000000000000000000000000000000000000000000 DUP2 MSTORE PUSH1 0x4 ADD PUSH2 0x340C SWAP2 SWAP1 PUSH2 0x3F0F JUMP JUMPDEST PUSH1 0x40 MLOAD DUP1 SWAP2 SUB SWAP1 REVERT JUMPDEST DUP1 PUSH2 0x3441 PUSH32 0x360894A13BA1A3210667C828492DB98DCA3E2076CC3735A920A3CA505D382BBC PUSH0 SHL PUSH2 0x33B1 JUMP JUMPDEST PUSH0 ADD PUSH0 PUSH2 0x100 EXP DUP2 SLOAD DUP2 PUSH20 0xFFFFFFFFFFFFFFFFFFFFFFFFFFFFFFFFFFFFFFFF MUL NOT AND SWAP1 DUP4 PUSH20 0xFFFFFFFFFFFFFFFFFFFFFFFFFFFFFFFFFFFFFFFF AND MUL OR SWAP1 SSTORE POP POP JUMP JUMPDEST PUSH1 0x60 PUSH0 DUP1 DUP5 PUSH20 0xFFFFFFFFFFFFFFFFFFFFFFFFFFFFFFFFFFFFFFFF AND DUP5 PUSH1 0x40 MLOAD PUSH2 0x34AC SWAP2 SWAP1 PUSH2 0x4B24 JUMP JUMPDEST PUSH0 PUSH1 0x40 MLOAD DUP1 DUP4 SUB DUP2 DUP6 GAS DELEGATECALL SWAP2 POP POP RETURNDATASIZE DUP1 PUSH0 DUP2 EQ PUSH2 0x34E4 JUMPI PUSH1 0x40 MLOAD SWAP2 POP PUSH1 0x1F NOT PUSH1 0x3F RETURNDATASIZE ADD AND DUP3 ADD PUSH1 0x40 MSTORE RETURNDATASIZE DUP3 MSTORE RETURNDATASIZE PUSH0 PUSH1 0x20 DUP5 ADD RETURNDATACOPY PUSH2 0x34E9 JUMP JUMPDEST PUSH1 0x60 SWAP2 POP JUMPDEST POP SWAP2 POP SWAP2 POP PUSH2 0x34F9 DUP6 DUP4 DUP4 PUSH2 0x353F JUMP JUMPDEST SWAP3 POP POP POP SWAP3 SWAP2 POP POP JUMP JUMPDEST PUSH0 CALLVALUE GT ISZERO PUSH2 0x353D JUMPI PUSH1 0x40 MLOAD PUSH32 0xB398979F00000000000000000000000000000000000000000000000000000000 DUP2 MSTORE PUSH1 0x4 ADD PUSH1 0x40 MLOAD DUP1 SWAP2 SUB SWAP1 REVERT JUMPDEST JUMP JUMPDEST PUSH1 0x60 DUP3 PUSH2 0x3554 JUMPI PUSH2 0x354F DUP3 PUSH2 0x35CC JUMP JUMPDEST PUSH2 0x35C4 JUMP JUMPDEST PUSH0 DUP3 MLOAD EQ DUP1 ISZERO PUSH2 0x357A JUMPI POP PUSH0 DUP5 PUSH20 0xFFFFFFFFFFFFFFFFFFFFFFFFFFFFFFFFFFFFFFFF AND EXTCODESIZE EQ JUMPDEST ISZERO PUSH2 0x35BC JUMPI DUP4 PUSH1 0x40 MLOAD PUSH32 0x9996B31500000000000000000000000000000000000000000000000000000000 DUP2 MSTORE PUSH1 0x4 ADD PUSH2 0x35B3 SWAP2 SWAP1 PUSH2 0x3F0F JUMP JUMPDEST PUSH1 0x40 MLOAD DUP1 SWAP2 SUB SWAP1 REVERT JUMPDEST DUP2 SWAP1 POP PUSH2 0x35C5 JUMP JUMPDEST JUMPDEST SWAP4 SWAP3 POP POP POP JUMP JUMPDEST PUSH0 DUP2 MLOAD GT ISZERO PUSH2 0x35DE JUMPI DUP1 MLOAD DUP1 DUP3 PUSH1 0x20 ADD REVERT JUMPDEST PUSH1 0x40 MLOAD PUSH32 0x1425EA4200000000000000000000000000000000000000000000000000000000 DUP2 MSTORE PUSH1 0x4 ADD PUSH1 0x40 MLOAD DUP1 SWAP2 SUB SWAP1 REVERT JUMPDEST PUSH0 PUSH1 0x40 MLOAD SWAP1 POP SWAP1 JUMP JUMPDEST PUSH0 DUP1 REVERT JUMPDEST PUSH0 DUP1 REVERT JUMPDEST PUSH0 PUSH20 0xFFFFFFFFFFFFFFFFFFFFFFFFFFFFFFFFFFFFFFFF DUP3 AND SWAP1 POP SWAP2 SWAP1 POP JUMP JUMPDEST PUSH0 PUSH2 0x364A DUP3 PUSH2 0x3621 JUMP JUMPDEST SWAP1 POP SWAP2 SWAP1 POP JUMP JUMPDEST PUSH2 0x365A DUP2 PUSH2 0x3640 JUMP JUMPDEST DUP2 EQ PUSH2 0x3664 JUMPI PUSH0 DUP1 REVERT JUMPDEST POP JUMP JUMPDEST PUSH0 DUP2 CALLDATALOAD SWAP1 POP PUSH2 0x3675 DUP2 PUSH2 0x3651 JUMP JUMPDEST SWAP3 SWAP2 POP POP JUMP JUMPDEST PUSH0 DUP1 REVERT JUMPDEST PUSH0 DUP1 REVERT JUMPDEST PUSH0 DUP1 REVERT JUMPDEST PUSH0 DUP1 DUP4 PUSH1 0x1F DUP5 ADD SLT PUSH2 0x369C JUMPI PUSH2 0x369B PUSH2 0x367B JUMP JUMPDEST JUMPDEST DUP3 CALLDATALOAD SWAP1 POP PUSH8 0xFFFFFFFFFFFFFFFF DUP2 GT ISZERO PUSH2 0x36B9 JUMPI PUSH2 0x36B8 PUSH2 0x367F JUMP JUMPDEST JUMPDEST PUSH1 0x20 DUP4 ADD SWAP2 POP DUP4 PUSH1 0x1 DUP3 MUL DUP4 ADD GT ISZERO PUSH2 0x36D5 JUMPI PUSH2 0x36D4 PUSH2 0x3683 JUMP JUMPDEST JUMPDEST SWAP3 POP SWAP3 SWAP1 POP JUMP JUMPDEST PUSH0 PUSH1 0xFF DUP3 AND SWAP1 POP SWAP2 SWAP1 POP JUMP JUMPDEST PUSH2 0x36F1 DUP2 PUSH2 0x36DC JUMP JUMPDEST DUP2 EQ PUSH2 0x36FB JUMPI PUSH0 DUP1 REVERT JUMPDEST POP JUMP JUMPDEST PUSH0 DUP2 CALLDATALOAD SWAP1 POP PUSH2 0x370C DUP2 PUSH2 0x36E8 JUMP JUMPDEST SWAP3 SWAP2 POP POP JUMP JUMPDEST PUSH0 PUSH12 0xFFFFFFFFFFFFFFFFFFFFFFFF DUP3 AND SWAP1 POP SWAP2 SWAP1 POP JUMP JUMPDEST PUSH2 0x3732 DUP2 PUSH2 0x3712 JUMP JUMPDEST DUP2 EQ PUSH2 0x373C JUMPI PUSH0 DUP1 REVERT JUMPDEST POP JUMP JUMPDEST PUSH0 DUP2 CALLDATALOAD SWAP1 POP PUSH2 0x374D DUP2 PUSH2 0x3729 JUMP JUMPDEST SWAP3 SWAP2 POP POP JUMP JUMPDEST PUSH0 DUP1 PUSH0 DUP1 PUSH0 DUP1 PUSH0 DUP1 PUSH0 PUSH1 0xE0 DUP11 DUP13 SUB SLT ISZERO PUSH2 0x3770 JUMPI PUSH2 0x376F PUSH2 0x3619 JUMP JUMPDEST JUMPDEST PUSH0 PUSH2 0x377D DUP13 DUP3 DUP14 ADD PUSH2 0x3667 JUMP JUMPDEST SWAP10 POP POP PUSH1 0x20 DUP11 ADD CALLDATALOAD PUSH8 0xFFFFFFFFFFFFFFFF DUP2 GT ISZERO PUSH2 0x379E JUMPI PUSH2 0x379D PUSH2 0x361D JUMP JUMPDEST JUMPDEST PUSH2 0x37AA DUP13 DUP3 DUP14 ADD PUSH2 0x3687 JUMP JUMPDEST SWAP9 POP SWAP9 POP POP PUSH1 0x40 DUP11 ADD CALLDATALOAD PUSH8 0xFFFFFFFFFFFFFFFF DUP2 GT ISZERO PUSH2 0x37CD JUMPI PUSH2 0x37CC PUSH2 0x361D JUMP JUMPDEST JUMPDEST PUSH2 0x37D9 DUP13 DUP3 DUP14 ADD PUSH2 0x3687 JUMP JUMPDEST SWAP7 POP SWAP7 POP POP PUSH1 0x60 PUSH2 0x37EC DUP13 DUP3 DUP14 ADD PUSH2 0x36FE JUMP JUMPDEST SWAP5 POP POP PUSH1 0x80 PUSH2 0x37FD DUP13 DUP3 DUP14 ADD PUSH2 0x3667 JUMP JUMPDEST SWAP4 POP POP PUSH1 0xA0 PUSH2 0x380E DUP13 DUP3 DUP14 ADD PUSH2 0x373F JUMP JUMPDEST SWAP3 POP POP PUSH1 0xC0 PUSH2 0x381F DUP13 DUP3 DUP14 ADD PUSH2 0x3667 JUMP JUMPDEST SWAP2 POP POP SWAP3 SWAP6 SWAP9 POP SWAP3 SWAP6 SWAP9 POP SWAP3 SWAP6 SWAP9 JUMP JUMPDEST PUSH0 DUP2 MLOAD SWAP1 POP SWAP2 SWAP1 POP JUMP JUMPDEST PUSH0 DUP3 DUP3 MSTORE PUSH1 0x20 DUP3 ADD SWAP1 POP SWAP3 SWAP2 POP POP JUMP JUMPDEST PUSH0 JUMPDEST DUP4 DUP2 LT ISZERO PUSH2 0x3866 JUMPI DUP1 DUP3 ADD MLOAD DUP2 DUP5 ADD MSTORE PUSH1 0x20 DUP2 ADD SWAP1 POP PUSH2 0x384B JUMP JUMPDEST PUSH0 DUP5 DUP5 ADD MSTORE POP POP POP POP JUMP JUMPDEST PUSH0 PUSH1 0x1F NOT PUSH1 0x1F DUP4 ADD AND SWAP1 POP SWAP2 SWAP1 POP JUMP JUMPDEST PUSH0 PUSH2 0x388B DUP3 PUSH2 0x382F JUMP JUMPDEST PUSH2 0x3895 DUP2 DUP6 PUSH2 0x3839 JUMP JUMPDEST SWAP4 POP PUSH2 0x38A5 DUP2 DUP6 PUSH1 0x20 DUP7 ADD PUSH2 0x3849 JUMP JUMPDEST PUSH2 0x38AE DUP2 PUSH2 0x3871 JUMP JUMPDEST DUP5 ADD SWAP2 POP POP SWAP3 SWAP2 POP POP JUMP JUMPDEST PUSH0 PUSH1 0x20 DUP3 ADD SWAP1 POP DUP2 DUP2 SUB PUSH0 DUP4 ADD MSTORE PUSH2 0x38D1 DUP2 DUP5 PUSH2 0x3881 JUMP JUMPDEST SWAP1 POP SWAP3 SWAP2 POP POP JUMP JUMPDEST PUSH0 DUP2 SWAP1 POP SWAP2 SWAP1 POP JUMP JUMPDEST PUSH2 0x38EB DUP2 PUSH2 0x38D9 JUMP JUMPDEST DUP2 EQ PUSH2 0x38F5 JUMPI PUSH0 DUP1 REVERT JUMPDEST POP JUMP JUMPDEST PUSH0 DUP2 CALLDATALOAD SWAP1 POP PUSH2 0x3906 DUP2 PUSH2 0x38E2 JUMP JUMPDEST SWAP3 SWAP2 POP POP JUMP JUMPDEST PUSH0 DUP1 PUSH1 0x40 DUP4 DUP6 SUB SLT ISZERO PUSH2 0x3922 JUMPI PUSH2 0x3921 PUSH2 0x3619 JUMP JUMPDEST JUMPDEST PUSH0 PUSH2 0x392F DUP6 DUP3 DUP7 ADD PUSH2 0x3667 JUMP JUMPDEST SWAP3 POP POP PUSH1 0x20 PUSH2 0x3940 DUP6 DUP3 DUP7 ADD PUSH2 0x38F8 JUMP JUMPDEST SWAP2 POP POP SWAP3 POP SWAP3 SWAP1 POP JUMP JUMPDEST PUSH0 DUP2 ISZERO ISZERO SWAP1 POP SWAP2 SWAP1 POP JUMP JUMPDEST PUSH2 0x395E DUP2 PUSH2 0x394A JUMP JUMPDEST DUP3 MSTORE POP POP JUMP JUMPDEST PUSH0 PUSH1 0x20 DUP3 ADD SWAP1 POP PUSH2 0x3977 PUSH0 DUP4 ADD DUP5 PUSH2 0x3955 JUMP JUMPDEST SWAP3 SWAP2 POP POP JUMP JUMPDEST PUSH0 DUP1 DUP4 PUSH1 0x1F DUP5 ADD SLT PUSH2 0x3992 JUMPI PUSH2 0x3991 PUSH2 0x367B JUMP JUMPDEST JUMPDEST DUP3 CALLDATALOAD SWAP1 POP PUSH8 0xFFFFFFFFFFFFFFFF DUP2 GT ISZERO PUSH2 0x39AF JUMPI PUSH2 0x39AE PUSH2 0x367F JUMP JUMPDEST JUMPDEST PUSH1 0x20 DUP4 ADD SWAP2 POP DUP4 PUSH1 0x20 DUP3 MUL DUP4 ADD GT ISZERO PUSH2 0x39CB JUMPI PUSH2 0x39CA PUSH2 0x3683 JUMP JUMPDEST JUMPDEST SWAP3 POP SWAP3 SWAP1 POP JUMP JUMPDEST PUSH0 DUP1 PUSH0 DUP1 PUSH1 0x40 DUP6 DUP8 SUB SLT ISZERO PUSH2 0x39EA JUMPI PUSH2 0x39E9 PUSH2 0x3619 JUMP JUMPDEST JUMPDEST PUSH0 DUP6 ADD CALLDATALOAD PUSH8 0xFFFFFFFFFFFFFFFF DUP2 GT ISZERO PUSH2 0x3A07 JUMPI PUSH2 0x3A06 PUSH2 0x361D JUMP JUMPDEST JUMPDEST PUSH2 0x3A13 DUP8 DUP3 DUP9 ADD PUSH2 0x397D JUMP JUMPDEST SWAP5 POP SWAP5 POP POP PUSH1 0x20 DUP6 ADD CALLDATALOAD PUSH8 0xFFFFFFFFFFFFFFFF DUP2 GT ISZERO PUSH2 0x3A36 JUMPI PUSH2 0x3A35 PUSH2 0x361D JUMP JUMPDEST JUMPDEST PUSH2 0x3A42 DUP8 DUP3 DUP9 ADD PUSH2 0x397D JUMP JUMPDEST SWAP3 POP SWAP3 POP POP SWAP3 SWAP6 SWAP2 SWAP5 POP SWAP3 POP JUMP JUMPDEST PUSH2 0x3A59 DUP2 PUSH2 0x38D9 JUMP JUMPDEST DUP3 MSTORE POP POP JUMP JUMPDEST PUSH0 PUSH1 0x20 DUP3 ADD SWAP1 POP PUSH2 0x3A72 PUSH0 DUP4 ADD DUP5 PUSH2 0x3A50 JUMP JUMPDEST SWAP3 SWAP2 POP POP JUMP JUMPDEST PUSH0 DUP1 PUSH0 PUSH1 0x60 DUP5 DUP7 SUB SLT ISZERO PUSH2 0x3A8F JUMPI PUSH2 0x3A8E PUSH2 0x3619 JUMP JUMPDEST JUMPDEST PUSH0 PUSH2 0x3A9C DUP7 DUP3 DUP8 ADD PUSH2 0x3667 JUMP JUMPDEST SWAP4 POP POP PUSH1 0x20 PUSH2 0x3AAD DUP7 DUP3 DUP8 ADD PUSH2 0x3667 JUMP JUMPDEST SWAP3 POP POP PUSH1 0x40 PUSH2 0x3ABE DUP7 DUP3 DUP8 ADD PUSH2 0x38F8 JUMP JUMPDEST SWAP2 POP POP SWAP3 POP SWAP3 POP SWAP3 JUMP JUMPDEST PUSH2 0x3AD1 DUP2 PUSH2 0x36DC JUMP JUMPDEST DUP3 MSTORE POP POP JUMP JUMPDEST PUSH0 PUSH1 0x20 DUP3 ADD SWAP1 POP PUSH2 0x3AEA PUSH0 DUP4 ADD DUP5 PUSH2 0x3AC8 JUMP JUMPDEST SWAP3 SWAP2 POP POP JUMP JUMPDEST PUSH0 DUP2 SWAP1 POP SWAP2 SWAP1 POP JUMP JUMPDEST PUSH2 0x3B02 DUP2 PUSH2 0x3AF0 JUMP JUMPDEST DUP3 MSTORE POP POP JUMP JUMPDEST PUSH0 PUSH1 0x20 DUP3 ADD SWAP1 POP PUSH2 0x3B1B PUSH0 DUP4 ADD DUP5 PUSH2 0x3AF9 JUMP JUMPDEST SWAP3 SWAP2 POP POP JUMP JUMPDEST PUSH0 DUP2 SWAP1 POP SWAP2 SWAP1 POP JUMP JUMPDEST PUSH0 PUSH2 0x3B44 PUSH2 0x3B3F PUSH2 0x3B3A DUP5 PUSH2 0x3621 JUMP JUMPDEST PUSH2 0x3B21 JUMP JUMPDEST PUSH2 0x3621 JUMP JUMPDEST SWAP1 POP SWAP2 SWAP1 POP JUMP JUMPDEST PUSH0 PUSH2 0x3B55 DUP3 PUSH2 0x3B2A JUMP JUMPDEST SWAP1 POP SWAP2 SWAP1 POP JUMP JUMPDEST PUSH0 PUSH2 0x3B66 DUP3 PUSH2 0x3B4B JUMP JUMPDEST SWAP1 POP SWAP2 SWAP1 POP JUMP JUMPDEST PUSH2 0x3B76 DUP2 PUSH2 0x3B5C JUMP JUMPDEST DUP3 MSTORE POP POP JUMP JUMPDEST PUSH0 PUSH1 0x20 DUP3 ADD SWAP1 POP PUSH2 0x3B8F PUSH0 DUP4 ADD DUP5 PUSH2 0x3B6D JUMP JUMPDEST SWAP3 SWAP2 POP POP JUMP JUMPDEST PUSH0 DUP1 REVERT JUMPDEST PUSH32 0x4E487B7100000000000000000000000000000000000000000000000000000000 PUSH0 MSTORE PUSH1 0x41 PUSH1 0x4 MSTORE PUSH1 0x24 PUSH0 REVERT JUMPDEST PUSH2 0x3BCF DUP3 PUSH2 0x3871 JUMP JUMPDEST DUP2 ADD DUP2 DUP2 LT PUSH8 0xFFFFFFFFFFFFFFFF DUP3 GT OR ISZERO PUSH2 0x3BEE JUMPI PUSH2 0x3BED PUSH2 0x3B99 JUMP JUMPDEST JUMPDEST DUP1 PUSH1 0x40 MSTORE POP POP POP JUMP JUMPDEST PUSH0 PUSH2 0x3C00 PUSH2 0x3610 JUMP JUMPDEST SWAP1 POP PUSH2 0x3C0C DUP3 DUP3 PUSH2 0x3BC6 JUMP JUMPDEST SWAP2 SWAP1 POP JUMP JUMPDEST PUSH0 PUSH8 0xFFFFFFFFFFFFFFFF DUP3 GT ISZERO PUSH2 0x3C2B JUMPI PUSH2 0x3C2A PUSH2 0x3B99 JUMP JUMPDEST JUMPDEST PUSH2 0x3C34 DUP3 PUSH2 0x3871 JUMP JUMPDEST SWAP1 POP PUSH1 0x20 DUP2 ADD SWAP1 POP SWAP2 SWAP1 POP JUMP JUMPDEST DUP3 DUP2 DUP4 CALLDATACOPY PUSH0 DUP4 DUP4 ADD MSTORE POP POP POP JUMP JUMPDEST PUSH0 PUSH2 0x3C61 PUSH2 0x3C5C DUP5 PUSH2 0x3C11 JUMP JUMPDEST PUSH2 0x3BF7 JUMP JUMPDEST SWAP1 POP DUP3 DUP2 MSTORE PUSH1 0x20 DUP2 ADD DUP5 DUP5 DUP5 ADD GT ISZERO PUSH2 0x3C7D JUMPI PUSH2 0x3C7C PUSH2 0x3B95 JUMP JUMPDEST JUMPDEST PUSH2 0x3C88 DUP5 DUP3 DUP6 PUSH2 0x3C41 JUMP JUMPDEST POP SWAP4 SWAP3 POP POP POP JUMP JUMPDEST PUSH0 DUP3 PUSH1 0x1F DUP4 ADD SLT PUSH2 0x3CA4 JUMPI PUSH2 0x3CA3 PUSH2 0x367B JUMP JUMPDEST JUMPDEST DUP2 CALLDATALOAD PUSH2 0x3CB4 DUP5 DUP3 PUSH1 0x20 DUP7 ADD PUSH2 0x3C4F JUMP JUMPDEST SWAP2 POP POP SWAP3 SWAP2 POP POP JUMP JUMPDEST PUSH0 DUP1 PUSH1 0x40 DUP4 DUP6 SUB SLT ISZERO PUSH2 0x3CD3 JUMPI PUSH2 0x3CD2 PUSH2 0x3619 JUMP JUMPDEST JUMPDEST PUSH0 PUSH2 0x3CE0 DUP6 DUP3 DUP7 ADD PUSH2 0x3667 JUMP JUMPDEST SWAP3 POP POP PUSH1 0x20 DUP4 ADD CALLDATALOAD PUSH8 0xFFFFFFFFFFFFFFFF DUP2 GT ISZERO PUSH2 0x3D01 JUMPI PUSH2 0x3D00 PUSH2 0x361D JUMP JUMPDEST JUMPDEST PUSH2 0x3D0D DUP6 DUP3 DUP7 ADD PUSH2 0x3C90 JUMP JUMPDEST SWAP2 POP POP SWAP3 POP SWAP3 SWAP1 POP JUMP JUMPDEST PUSH0 DUP1 PUSH1 0x20 DUP4 DUP6 SUB SLT ISZERO PUSH2 0x3D2D JUMPI PUSH2 0x3D2C PUSH2 0x3619 JUMP JUMPDEST JUMPDEST PUSH0 DUP4 ADD CALLDATALOAD PUSH8 0xFFFFFFFFFFFFFFFF DUP2 GT ISZERO PUSH2 0x3D4A JUMPI PUSH2 0x3D49 PUSH2 0x361D JUMP JUMPDEST JUMPDEST PUSH2 0x3D56 DUP6 DUP3 DUP7 ADD PUSH2 0x397D JUMP JUMPDEST SWAP3 POP SWAP3 POP POP SWAP3 POP SWAP3 SWAP1 POP JUMP JUMPDEST PUSH0 PUSH1 0x20 DUP3 DUP5 SUB SLT ISZERO PUSH2 0x3D77 JUMPI PUSH2 0x3D76 PUSH2 0x3619 JUMP JUMPDEST JUMPDEST PUSH0 PUSH2 0x3D84 DUP5 DUP3 DUP6 ADD PUSH2 0x3667 JUMP JUMPDEST SWAP2 POP POP SWAP3 SWAP2 POP POP JUMP JUMPDEST PUSH0 PUSH32 0xFF00000000000000000000000000000000000000000000000000000000000000 DUP3 AND SWAP1 POP SWAP2 SWAP1 POP JUMP JUMPDEST PUSH2 0x3DC1 DUP2 PUSH2 0x3D8D JUMP JUMPDEST DUP3 MSTORE POP POP JUMP JUMPDEST PUSH2 0x3DD0 DUP2 PUSH2 0x3640 JUMP JUMPDEST DUP3 MSTORE POP POP JUMP JUMPDEST PUSH0 DUP2 MLOAD SWAP1 POP SWAP2 SWAP1 POP JUMP JUMPDEST PUSH0 DUP3 DUP3 MSTORE PUSH1 0x20 DUP3 ADD SWAP1 POP SWAP3 SWAP2 POP POP JUMP JUMPDEST PUSH0 DUP2 SWAP1 POP PUSH1 0x20 DUP3 ADD SWAP1 POP SWAP2 SWAP1 POP JUMP JUMPDEST PUSH2 0x3E08 DUP2 PUSH2 0x38D9 JUMP JUMPDEST DUP3 MSTORE POP POP JUMP JUMPDEST PUSH0 PUSH2 0x3E19 DUP4 DUP4 PUSH2 0x3DFF JUMP JUMPDEST PUSH1 0x20 DUP4 ADD SWAP1 POP SWAP3 SWAP2 POP POP JUMP JUMPDEST PUSH0 PUSH1 0x20 DUP3 ADD SWAP1 POP SWAP2 SWAP1 POP JUMP JUMPDEST PUSH0 PUSH2 0x3E3B DUP3 PUSH2 0x3DD6 JUMP JUMPDEST PUSH2 0x3E45 DUP2 DUP6 PUSH2 0x3DE0 JUMP JUMPDEST SWAP4 POP PUSH2 0x3E50 DUP4 PUSH2 0x3DF0 JUMP JUMPDEST DUP1 PUSH0 JUMPDEST DUP4 DUP2 LT ISZERO PUSH2 0x3E80 JUMPI DUP2 MLOAD PUSH2 0x3E67 DUP9 DUP3 PUSH2 0x3E0E JUMP JUMPDEST SWAP8 POP PUSH2 0x3E72 DUP4 PUSH2 0x3E25 JUMP JUMPDEST SWAP3 POP POP PUSH1 0x1 DUP2 ADD SWAP1 POP PUSH2 0x3E53 JUMP JUMPDEST POP DUP6 SWAP4 POP POP POP POP SWAP3 SWAP2 POP POP JUMP JUMPDEST PUSH0 PUSH1 0xE0 DUP3 ADD SWAP1 POP PUSH2 0x3EA0 PUSH0 DUP4 ADD DUP11 PUSH2 0x3DB8 JUMP JUMPDEST DUP2 DUP2 SUB PUSH1 0x20 DUP4 ADD MSTORE PUSH2 0x3EB2 DUP2 DUP10 PUSH2 0x3881 JUMP JUMPDEST SWAP1 POP DUP2 DUP2 SUB PUSH1 0x40 DUP4 ADD MSTORE PUSH2 0x3EC6 DUP2 DUP9 PUSH2 0x3881 JUMP JUMPDEST SWAP1 POP PUSH2 0x3ED5 PUSH1 0x60 DUP4 ADD DUP8 PUSH2 0x3A50 JUMP JUMPDEST PUSH2 0x3EE2 PUSH1 0x80 DUP4 ADD DUP7 PUSH2 0x3DC7 JUMP JUMPDEST PUSH2 0x3EEF PUSH1 0xA0 DUP4 ADD DUP6 PUSH2 0x3AF9 JUMP JUMPDEST DUP2 DUP2 SUB PUSH1 0xC0 DUP4 ADD MSTORE PUSH2 0x3F01 DUP2 DUP5 PUSH2 0x3E31 JUMP JUMPDEST SWAP1 POP SWAP9 SWAP8 POP POP POP POP POP POP POP POP JUMP JUMPDEST PUSH0 PUSH1 0x20 DUP3 ADD SWAP1 POP PUSH2 0x3F22 PUSH0 DUP4 ADD DUP5 PUSH2 0x3DC7 JUMP JUMPDEST SWAP3 SWAP2 POP POP JUMP JUMPDEST PUSH2 0x3F31 DUP2 PUSH2 0x3712 JUMP JUMPDEST DUP3 MSTORE POP POP JUMP JUMPDEST PUSH0 PUSH1 0x20 DUP3 ADD SWAP1 POP PUSH2 0x3F4A PUSH0 DUP4 ADD DUP5 PUSH2 0x3F28 JUMP JUMPDEST SWAP3 SWAP2 POP POP JUMP JUMPDEST PUSH2 0x3F59 DUP2 PUSH2 0x3AF0 JUMP JUMPDEST DUP2 EQ PUSH2 0x3F63 JUMPI PUSH0 DUP1 REVERT JUMPDEST POP JUMP JUMPDEST PUSH0 DUP2 CALLDATALOAD SWAP1 POP PUSH2 0x3F74 DUP2 PUSH2 0x3F50 JUMP JUMPDEST SWAP3 SWAP2 POP POP JUMP JUMPDEST PUSH0 DUP1 PUSH0 DUP1 PUSH0 DUP1 PUSH0 PUSH1 0xE0 DUP9 DUP11 SUB SLT ISZERO PUSH2 0x3F95 JUMPI PUSH2 0x3F94 PUSH2 0x3619 JUMP JUMPDEST JUMPDEST PUSH0 PUSH2 0x3FA2 DUP11 DUP3 DUP12 ADD PUSH2 0x3667 JUMP JUMPDEST SWAP8 POP POP PUSH1 0x20 PUSH2 0x3FB3 DUP11 DUP3 DUP12 ADD PUSH2 0x3667 JUMP JUMPDEST SWAP7 POP POP PUSH1 0x40 PUSH2 0x3FC4 DUP11 DUP3 DUP12 ADD PUSH2 0x38F8 JUMP JUMPDEST SWAP6 POP POP PUSH1 0x60 PUSH2 0x3FD5 DUP11 DUP3 DUP12 ADD PUSH2 0x38F8 JUMP JUMPDEST SWAP5 POP POP PUSH1 0x80 PUSH2 0x3FE6 DUP11 DUP3 DUP12 ADD PUSH2 0x36FE JUMP JUMPDEST SWAP4 POP POP PUSH1 0xA0 PUSH2 0x3FF7 DUP11 DUP3 DUP12 ADD PUSH2 0x3F66 JUMP JUMPDEST SWAP3 POP POP PUSH1 0xC0 PUSH2 0x4008 DUP11 DUP3 DUP12 ADD PUSH2 0x3F66 JUMP JUMPDEST SWAP2 POP POP SWAP3 SWAP6 SWAP9 SWAP2 SWAP5 SWAP8 POP SWAP3 SWAP6 POP JUMP JUMPDEST PUSH0 DUP1 PUSH1 0x40 DUP4 DUP6 SUB SLT ISZERO PUSH2 0x402D JUMPI PUSH2 0x402C PUSH2 0x3619 JUMP JUMPDEST JUMPDEST PUSH0 PUSH2 0x403A DUP6 DUP3 DUP7 ADD PUSH2 0x3667 JUMP JUMPDEST SWAP3 POP POP PUSH1 0x20 PUSH2 0x404B DUP6 DUP3 DUP7 ADD PUSH2 0x3667 JUMP JUMPDEST SWAP2 POP POP SWAP3 POP SWAP3 SWAP1 POP JUMP JUMPDEST PUSH32 0x4E46544261636B6564546F6B656E3A20616D6F756E745065724E465420697320 PUSH0 DUP3 ADD MSTORE PUSH32 0x7A65726F00000000000000000000000000000000000000000000000000000000 PUSH1 0x20 DUP3 ADD MSTORE POP JUMP JUMPDEST PUSH0 PUSH2 0x40AF PUSH1 0x24 DUP4 PUSH2 0x3839 JUMP JUMPDEST SWAP2 POP PUSH2 0x40BA DUP3 PUSH2 0x4055 JUMP JUMPDEST PUSH1 0x40 DUP3 ADD SWAP1 POP SWAP2 SWAP1 POP JUMP JUMPDEST PUSH0 PUSH1 0x20 DUP3 ADD SWAP1 POP DUP2 DUP2 SUB PUSH0 DUP4 ADD MSTORE PUSH2 0x40DC DUP2 PUSH2 0x40A3 JUMP JUMPDEST SWAP1 POP SWAP2 SWAP1 POP JUMP JUMPDEST PUSH0 PUSH2 0x40EE DUP4 DUP6 PUSH2 0x3839 JUMP JUMPDEST SWAP4 POP PUSH2 0x40FB DUP4 DUP6 DUP5 PUSH2 0x3C41 JUMP JUMPDEST PUSH2 0x4104 DUP4 PUSH2 0x3871 JUMP JUMPDEST DUP5 ADD SWAP1 POP SWAP4 SWAP3 POP POP POP JUMP JUMPDEST PUSH0 PUSH1 0xE0 DUP3 ADD SWAP1 POP PUSH2 0x4122 PUSH0 DUP4 ADD DUP13 PUSH2 0x3DC7 JUMP JUMPDEST DUP2 DUP2 SUB PUSH1 0x20 DUP4 ADD MSTORE PUSH2 0x4135 DUP2 DUP11 DUP13 PUSH2 0x40E3 JUMP JUMPDEST SWAP1 POP DUP2 DUP2 SUB PUSH1 0x40 DUP4 ADD MSTORE PUSH2 0x414A DUP2 DUP9 DUP11 PUSH2 0x40E3 JUMP JUMPDEST SWAP1 POP PUSH2 0x4159 PUSH1 0x60 DUP4 ADD DUP8 PUSH2 0x3AC8 JUMP JUMPDEST PUSH2 0x4166 PUSH1 0x80 DUP4 ADD DUP7 PUSH2 0x3DC7 JUMP JUMPDEST PUSH2 0x4173 PUSH1 0xA0 DUP4 ADD DUP6 PUSH2 0x3F28 JUMP JUMPDEST PUSH2 0x4180 PUSH1 0xC0 DUP4 ADD DUP5 PUSH2 0x3DC7 JUMP JUMPDEST SWAP11 SWAP10 POP POP POP POP POP POP POP POP POP POP JUMP JUMPDEST PUSH0 DUP2 SWAP1 POP SWAP2 SWAP1 POP JUMP JUMPDEST PUSH0 PUSH8 0xFFFFFFFFFFFFFFFF DUP3 AND SWAP1 POP SWAP2 SWAP1 POP JUMP JUMPDEST PUSH0 PUSH2 0x41C4 PUSH2 0x41BF PUSH2 0x41BA DUP5 PUSH2 0x418E JUMP JUMPDEST PUSH2 0x3B21 JUMP JUMPDEST PUSH2 0x4197 JUMP JUMPDEST SWAP1 POP SWAP2 SWAP1 POP JUMP JUMPDEST PUSH2 0x41D4 DUP2 PUSH2 0x41AA JUMP JUMPDEST DUP3 MSTORE POP POP JUMP JUMPDEST PUSH0 PUSH1 0x20 DUP3 ADD SWAP1 POP PUSH2 0x41ED PUSH0 DUP4 ADD DUP5 PUSH2 0x41CB JUMP JUMPDEST SWAP3 SWAP2 POP POP JUMP JUMPDEST PUSH32 0x4E487B7100000000000000000000000000000000000000000000000000000000 PUSH0 MSTORE PUSH1 0x22 PUSH1 0x4 MSTORE PUSH1 0x24 PUSH0 REVERT JUMPDEST PUSH0 PUSH1 0x2 DUP3 DIV SWAP1 POP PUSH1 0x1 DUP3 AND DUP1 PUSH2 0x4237 JUMPI PUSH1 0x7F DUP3 AND SWAP2 POP JUMPDEST PUSH1 0x20 DUP3 LT DUP2 SUB PUSH2 0x424A JUMPI PUSH2 0x4249 PUSH2 0x41F3 JUMP JUMPDEST JUMPDEST POP SWAP2 SWAP1 POP JUMP JUMPDEST PUSH32 0x4E46544261636B6564546F6B656E3A206C656E677468206D69736D6174636800 PUSH0 DUP3 ADD MSTORE POP JUMP JUMPDEST PUSH0 PUSH2 0x4284 PUSH1 0x1F DUP4 PUSH2 0x3839 JUMP JUMPDEST SWAP2 POP PUSH2 0x428F DUP3 PUSH2 0x4250 JUMP JUMPDEST PUSH1 0x20 DUP3 ADD SWAP1 POP SWAP2 SWAP1 POP JUMP JUMPDEST PUSH0 PUSH1 0x20 DUP3 ADD SWAP1 POP DUP2 DUP2 SUB PUSH0 DUP4 ADD MSTORE PUSH2 0x42B1 DUP2 PUSH2 0x4278 JUMP JUMPDEST SWAP1 POP SWAP2 SWAP1 POP JUMP JUMPDEST PUSH32 0x4E487B7100000000000000000000000000000000000000000000000000000000 PUSH0 MSTORE PUSH1 0x32 PUSH1 0x4 MSTORE PUSH1 0x24 PUSH0 REVERT JUMPDEST PUSH0 PUSH1 0x60 DUP3 ADD SWAP1 POP PUSH2 0x42F8 PUSH0 DUP4 ADD DUP7 PUSH2 0x3DC7 JUMP JUMPDEST PUSH2 0x4305 PUSH1 0x20 DUP4 ADD DUP6 PUSH2 0x3DC7 JUMP JUMPDEST PUSH2 0x4312 PUSH1 0x40 DUP4 ADD DUP5 PUSH2 0x3A50 JUMP JUMPDEST SWAP5 SWAP4 POP POP POP POP JUMP JUMPDEST PUSH32 0x4E487B7100000000000000000000000000000000000000000000000000000000 PUSH0 MSTORE PUSH1 0x11 PUSH1 0x4 MSTORE PUSH1 0x24 PUSH0 REVERT JUMPDEST PUSH0 PUSH2 0x4351 DUP3 PUSH2 0x38D9 JUMP JUMPDEST SWAP2 POP PUSH32 0xFFFFFFFFFFFFFFFFFFFFFFFFFFFFFFFFFFFFFFFFFFFFFFFFFFFFFFFFFFFFFFFF DUP3 SUB PUSH2 0x4383 JUMPI PUSH2 0x4382 PUSH2 0x431A JUMP JUMPDEST JUMPDEST PUSH1 0x1 DUP3 ADD SWAP1 POP SWAP2 SWAP1 POP JUMP JUMPDEST PUSH0 DUP1 REVERT JUMPDEST DUP3 DUP2 DUP4 CALLDATACOPY POP POP POP JUMP JUMPDEST PUSH0 PUSH2 0x43A6 DUP4 DUP6 PUSH2 0x3DE0 JUMP JUMPDEST SWAP4 POP PUSH32 0x7FFFFFFFFFFFFFFFFFFFFFFFFFFFFFFFFFFFFFFFFFFFFFFFFFFFFFFFFFFFFFF DUP4 GT ISZERO PUSH2 0x43D9 JUMPI PUSH2 0x43D8 PUSH2 0x438E JUMP JUMPDEST JUMPDEST PUSH1 0x20 DUP4 MUL SWAP3 POP PUSH2 0x43EA DUP4 DUP6 DUP5 PUSH2 0x4392 JUMP JUMPDEST DUP3 DUP5 ADD SWAP1 POP SWAP4 SWAP3 POP POP POP JUMP JUMPDEST PUSH0 PUSH1 0x40 DUP3 ADD SWAP1 POP DUP2 DUP2 SUB PUSH0 DUP4 ADD MSTORE PUSH2 0x440F DUP2 DUP7 DUP9 PUSH2 0x439B JUMP JUMPDEST SWAP1 POP DUP2 DUP2 SUB PUSH1 0x20 DUP4 ADD MSTORE PUSH2 0x4424 DUP2 DUP5 DUP7 PUSH2 0x439B JUMP JUMPDEST SWAP1 POP SWAP6 SWAP5 POP POP POP POP POP JUMP JUMPDEST PUSH32 0x6D7573742062652061646D696E206F72206F776E657200000000000000000000 PUSH0 DUP3 ADD MSTORE POP JUMP JUMPDEST PUSH0 PUSH2 0x4463 PUSH1 0x16 DUP4 PUSH2 0x3839 JUMP JUMPDEST SWAP2 POP PUSH2 0x446E DUP3 PUSH2 0x442F JUMP JUMPDEST PUSH1 0x20 DUP3 ADD SWAP1 POP SWAP2 SWAP1 POP JUMP JUMPDEST PUSH0 PUSH1 0x20 DUP3 ADD SWAP1 POP DUP2 DUP2 SUB PUSH0 DUP4 ADD MSTORE PUSH2 0x4490 DUP2 PUSH2 0x4457 JUMP JUMPDEST SWAP1 POP SWAP2 SWAP1 POP JUMP JUMPDEST PUSH0 PUSH2 0x44A1 DUP3 PUSH2 0x38D9 JUMP JUMPDEST SWAP2 POP PUSH2 0x44AC DUP4 PUSH2 0x38D9 JUMP JUMPDEST SWAP3 POP DUP3 DUP3 MUL PUSH2 0x44BA DUP2 PUSH2 0x38D9 JUMP JUMPDEST SWAP2 POP DUP3 DUP3 DIV DUP5 EQ DUP4 ISZERO OR PUSH2 0x44D1 JUMPI PUSH2 0x44D0 PUSH2 0x431A JUMP JUMPDEST JUMPDEST POP SWAP3 SWAP2 POP POP JUMP JUMPDEST PUSH0 PUSH1 0x20 DUP3 ADD SWAP1 POP DUP2 DUP2 SUB PUSH0 DUP4 ADD MSTORE PUSH2 0x44F1 DUP2 DUP5 DUP7 PUSH2 0x439B JUMP JUMPDEST SWAP1 POP SWAP4 SWAP3 POP POP POP JUMP JUMPDEST PUSH32 0x4E487B7100000000000000000000000000000000000000000000000000000000 PUSH0 MSTORE PUSH1 0x12 PUSH1 0x4 MSTORE PUSH1 0x24 PUSH0 REVERT JUMPDEST PUSH0 PUSH2 0x4531 DUP3 PUSH2 0x38D9 JUMP JUMPDEST SWAP2 POP PUSH2 0x453C DUP4 PUSH2 0x38D9 JUMP JUMPDEST SWAP3 POP DUP3 PUSH2 0x454C JUMPI PUSH2 0x454B PUSH2 0x44FA JUMP JUMPDEST JUMPDEST DUP3 DUP3 DIV SWAP1 POP SWAP3 SWAP2 POP POP JUMP JUMPDEST PUSH32 0x6D7573742062652061646D696E00000000000000000000000000000000000000 PUSH0 DUP3 ADD MSTORE POP JUMP JUMPDEST PUSH0 PUSH2 0x458B PUSH1 0xD DUP4 PUSH2 0x3839 JUMP JUMPDEST SWAP2 POP PUSH2 0x4596 DUP3 PUSH2 0x4557 JUMP JUMPDEST PUSH1 0x20 DUP3 ADD SWAP1 POP SWAP2 SWAP1 POP JUMP JUMPDEST PUSH0 PUSH1 0x20 DUP3 ADD SWAP1 POP DUP2 DUP2 SUB PUSH0 DUP4 ADD MSTORE PUSH2 0x45B8 DUP2 PUSH2 0x457F JUMP JUMPDEST SWAP1 POP SWAP2 SWAP1 POP JUMP JUMPDEST PUSH32 0x4549503731323A20556E696E697469616C697A65640000000000000000000000 PUSH0 DUP3 ADD MSTORE POP JUMP JUMPDEST PUSH0 PUSH2 0x45F3 PUSH1 0x15 DUP4 PUSH2 0x3839 JUMP JUMPDEST SWAP2 POP PUSH2 0x45FE DUP3 PUSH2 0x45BF JUMP JUMPDEST PUSH1 0x20 DUP3 ADD SWAP1 POP SWAP2 SWAP1 POP JUMP JUMPDEST PUSH0 PUSH1 0x20 DUP3 ADD SWAP1 POP DUP2 DUP2 SUB PUSH0 DUP4 ADD MSTORE PUSH2 0x4620 DUP2 PUSH2 0x45E7 JUMP JUMPDEST SWAP1 POP SWAP2 SWAP1 POP JUMP JUMPDEST PUSH0 PUSH1 0xC0 DUP3 ADD SWAP1 POP PUSH2 0x463A PUSH0 DUP4 ADD DUP10 PUSH2 0x3AF9 JUMP JUMPDEST PUSH2 0x4647 PUSH1 0x20 DUP4 ADD DUP9 PUSH2 0x3DC7 JUMP JUMPDEST PUSH2 0x4654 PUSH1 0x40 DUP4 ADD DUP8 PUSH2 0x3DC7 JUMP JUMPDEST PUSH2 0x4661 PUSH1 0x60 DUP4 ADD DUP7 PUSH2 0x3A50 JUMP JUMPDEST PUSH2 0x466E PUSH1 0x80 DUP4 ADD DUP6 PUSH2 0x3A50 JUMP JUMPDEST PUSH2 0x467B PUSH1 0xA0 DUP4 ADD DUP5 PUSH2 0x3A50 JUMP JUMPDEST SWAP8 SWAP7 POP POP POP POP POP POP POP JUMP JUMPDEST PUSH0 PUSH1 0x40 DUP3 ADD SWAP1 POP PUSH2 0x4699 PUSH0 DUP4 ADD DUP6 PUSH2 0x3DC7 JUMP JUMPDEST PUSH2 0x46A6 PUSH1 0x20 DUP4 ADD DUP5 PUSH2 0x3DC7 JUMP JUMPDEST SWAP4 SWAP3 POP POP POP JUMP JUMPDEST PUSH0 PUSH1 0x60 DUP3 ADD SWAP1 POP PUSH2 0x46C0 PUSH0 DUP4 ADD DUP7 PUSH2 0x3DC7 JUMP JUMPDEST PUSH2 0x46CD PUSH1 0x20 DUP4 ADD DUP6 PUSH2 0x3A50 JUMP JUMPDEST PUSH2 0x46DA PUSH1 0x40 DUP4 ADD DUP5 PUSH2 0x3A50 JUMP JUMPDEST SWAP5 SWAP4 POP POP POP POP JUMP JUMPDEST PUSH32 0x75706772616465732064697361626C6564000000000000000000000000000000 PUSH0 DUP3 ADD MSTORE POP JUMP JUMPDEST PUSH0 PUSH2 0x4716 PUSH1 0x11 DUP4 PUSH2 0x3839 JUMP JUMPDEST SWAP2 POP PUSH2 0x4721 DUP3 PUSH2 0x46E2 JUMP JUMPDEST PUSH1 0x20 DUP3 ADD SWAP1 POP SWAP2 SWAP1 POP JUMP JUMPDEST PUSH0 PUSH1 0x20 DUP3 ADD SWAP1 POP DUP2 DUP2 SUB PUSH0 DUP4 ADD MSTORE PUSH2 0x4743 DUP2 PUSH2 0x470A JUMP JUMPDEST SWAP1 POP SWAP2 SWAP1 POP JUMP JUMPDEST PUSH0 DUP2 MLOAD SWAP1 POP PUSH2 0x4758 DUP2 PUSH2 0x3F50 JUMP JUMPDEST SWAP3 SWAP2 POP POP JUMP JUMPDEST PUSH0 PUSH1 0x20 DUP3 DUP5 SUB SLT ISZERO PUSH2 0x4773 JUMPI PUSH2 0x4772 PUSH2 0x3619 JUMP JUMPDEST JUMPDEST PUSH0 PUSH2 0x4780 DUP5 DUP3 DUP6 ADD PUSH2 0x474A JUMP JUMPDEST SWAP2 POP POP SWAP3 SWAP2 POP POP JUMP JUMPDEST PUSH0 DUP2 SWAP1 POP DUP2 PUSH0 MSTORE PUSH1 0x20 PUSH0 KECCAK256 SWAP1 POP SWAP2 SWAP1 POP JUMP JUMPDEST PUSH0 PUSH1 0x20 PUSH1 0x1F DUP4 ADD DIV SWAP1 POP SWAP2 SWAP1 POP JUMP JUMPDEST PUSH0 DUP3 DUP3 SHL SWAP1 POP SWAP3 SWAP2 POP POP JUMP JUMPDEST PUSH0 PUSH1 0x8 DUP4 MUL PUSH2 0x47E5 PUSH32 0xFFFFFFFFFFFFFFFFFFFFFFFFFFFFFFFFFFFFFFFFFFFFFFFFFFFFFFFFFFFFFFFF DUP3 PUSH2 0x47AA JUMP JUMPDEST PUSH2 0x47EF DUP7 DUP4 PUSH2 0x47AA JUMP JUMPDEST SWAP6 POP DUP1 NOT DUP5 AND SWAP4 POP DUP1 DUP7 AND DUP5 OR SWAP3 POP POP POP SWAP4 SWAP3 POP POP POP JUMP JUMPDEST PUSH0 PUSH2 0x4821 PUSH2 0x481C PUSH2 0x4817 DUP5 PUSH2 0x38D9 JUMP JUMPDEST PUSH2 0x3B21 JUMP JUMPDEST PUSH2 0x38D9 JUMP JUMPDEST SWAP1 POP SWAP2 SWAP1 POP JUMP JUMPDEST PUSH0 DUP2 SWAP1 POP SWAP2 SWAP1 POP JUMP JUMPDEST PUSH2 0x483A DUP4 PUSH2 0x4807 JUMP JUMPDEST PUSH2 0x484E PUSH2 0x4846 DUP3 PUSH2 0x4828 JUMP JUMPDEST DUP5 DUP5 SLOAD PUSH2 0x47B6 JUMP JUMPDEST DUP3 SSTORE POP POP POP POP JUMP JUMPDEST PUSH0 SWAP1 JUMP JUMPDEST PUSH2 0x4862 PUSH2 0x4856 JUMP JUMPDEST PUSH2 0x486D DUP2 DUP5 DUP5 PUSH2 0x4831 JUMP JUMPDEST POP POP POP JUMP JUMPDEST JUMPDEST DUP2 DUP2 LT ISZERO PUSH2 0x4890 JUMPI PUSH2 0x4885 PUSH0 DUP3 PUSH2 0x485A JUMP JUMPDEST PUSH1 0x1 DUP2 ADD SWAP1 POP PUSH2 0x4873 JUMP JUMPDEST POP POP JUMP JUMPDEST PUSH1 0x1F DUP3 GT ISZERO PUSH2 0x48D5 JUMPI PUSH2 0x48A6 DUP2 PUSH2 0x4789 JUMP JUMPDEST PUSH2 0x48AF DUP5 PUSH2 0x479B JUMP JUMPDEST DUP2 ADD PUSH1 0x20 DUP6 LT ISZERO PUSH2 0x48BE JUMPI DUP2 SWAP1 POP JUMPDEST PUSH2 0x48D2 PUSH2 0x48CA DUP6 PUSH2 0x479B JUMP JUMPDEST DUP4 ADD DUP3 PUSH2 0x4872 JUMP JUMPDEST POP POP JUMPDEST POP POP POP JUMP JUMPDEST PUSH0 DUP3 DUP3 SHR SWAP1 POP SWAP3 SWAP2 POP POP JUMP JUMPDEST PUSH0 PUSH2 0x48F5 PUSH0 NOT DUP5 PUSH1 0x8 MUL PUSH2 0x48DA JUMP JUMPDEST NOT DUP1 DUP4 AND SWAP2 POP POP SWAP3 SWAP2 POP POP JUMP JUMPDEST PUSH0 PUSH2 0x490D DUP4 DUP4 PUSH2 0x48E6 JUMP JUMPDEST SWAP2 POP DUP3 PUSH1 0x2 MUL DUP3 OR SWAP1 POP SWAP3 SWAP2 POP POP JUMP JUMPDEST PUSH2 0x4926 DUP3 PUSH2 0x382F JUMP JUMPDEST PUSH8 0xFFFFFFFFFFFFFFFF DUP2 GT ISZERO PUSH2 0x493F JUMPI PUSH2 0x493E PUSH2 0x3B99 JUMP JUMPDEST JUMPDEST PUSH2 0x4949 DUP3 SLOAD PUSH2 0x4220 JUMP JUMPDEST PUSH2 0x4954 DUP3 DUP3 DUP6 PUSH2 0x4894 JUMP JUMPDEST PUSH0 PUSH1 0x20 SWAP1 POP PUSH1 0x1F DUP4 GT PUSH1 0x1 DUP2 EQ PUSH2 0x4985 JUMPI PUSH0 DUP5 ISZERO PUSH2 0x4973 JUMPI DUP3 DUP8 ADD MLOAD SWAP1 POP JUMPDEST PUSH2 0x497D DUP6 DUP3 PUSH2 0x4902 JUMP JUMPDEST DUP7 SSTORE POP PUSH2 0x49E4 JUMP JUMPDEST PUSH1 0x1F NOT DUP5 AND PUSH2 0x4993 DUP7 PUSH2 0x4789 JUMP JUMPDEST PUSH0 JUMPDEST DUP3 DUP2 LT ISZERO PUSH2 0x49BA JUMPI DUP5 DUP10 ADD MLOAD DUP3 SSTORE PUSH1 0x1 DUP3 ADD SWAP2 POP PUSH1 0x20 DUP6 ADD SWAP5 POP PUSH1 0x20 DUP2 ADD SWAP1 POP PUSH2 0x4995 JUMP JUMPDEST DUP7 DUP4 LT ISZERO PUSH2 0x49D7 JUMPI DUP5 DUP10 ADD MLOAD PUSH2 0x49D3 PUSH1 0x1F DUP10 AND DUP3 PUSH2 0x48E6 JUMP JUMPDEST DUP4 SSTORE POP JUMPDEST PUSH1 0x1 PUSH1 0x2 DUP9 MUL ADD DUP9 SSTORE POP POP POP JUMPDEST POP POP POP POP POP POP JUMP JUMPDEST PUSH0 PUSH2 0x49F6 DUP3 PUSH2 0x38D9 JUMP JUMPDEST SWAP2 POP PUSH2 0x4A01 DUP4 PUSH2 0x38D9 JUMP JUMPDEST SWAP3 POP DUP3 DUP3 ADD SWAP1 POP DUP1 DUP3 GT ISZERO PUSH2 0x4A19 JUMPI PUSH2 0x4A18 PUSH2 0x431A JUMP JUMPDEST JUMPDEST SWAP3 SWAP2 POP POP JUMP JUMPDEST PUSH0 PUSH1 0xA0 DUP3 ADD SWAP1 POP PUSH2 0x4A32 PUSH0 DUP4 ADD DUP9 PUSH2 0x3AF9 JUMP JUMPDEST PUSH2 0x4A3F PUSH1 0x20 DUP4 ADD DUP8 PUSH2 0x3AF9 JUMP JUMPDEST PUSH2 0x4A4C PUSH1 0x40 DUP4 ADD DUP7 PUSH2 0x3AF9 JUMP JUMPDEST PUSH2 0x4A59 PUSH1 0x60 DUP4 ADD DUP6 PUSH2 0x3A50 JUMP JUMPDEST PUSH2 0x4A66 PUSH1 0x80 DUP4 ADD DUP5 PUSH2 0x3DC7 JUMP JUMPDEST SWAP7 SWAP6 POP POP POP POP POP POP JUMP JUMPDEST PUSH0 PUSH1 0x80 DUP3 ADD SWAP1 POP PUSH2 0x4A83 PUSH0 DUP4 ADD DUP8 PUSH2 0x3AF9 JUMP JUMPDEST PUSH2 0x4A90 PUSH1 0x20 DUP4 ADD DUP7 PUSH2 0x3AC8 JUMP JUMPDEST PUSH2 0x4A9D PUSH1 0x40 DUP4 ADD DUP6 PUSH2 0x3AF9 JUMP JUMPDEST PUSH2 0x4AAA PUSH1 0x60 DUP4 ADD DUP5 PUSH2 0x3AF9 JUMP JUMPDEST SWAP6 SWAP5 POP POP POP POP POP JUMP JUMPDEST PUSH32 0x4E487B7100000000000000000000000000000000000000000000000000000000 PUSH0 MSTORE PUSH1 0x21 PUSH1 0x4 MSTORE PUSH1 0x24 PUSH0 REVERT JUMPDEST PUSH0 DUP2 MLOAD SWAP1 POP SWAP2 SWAP1 POP JUMP JUMPDEST PUSH0 DUP2 SWAP1 POP SWAP3 SWAP2 POP POP JUMP JUMPDEST PUSH0 PUSH2 0x4AFE DUP3 PUSH2 0x4AE0 JUMP JUMPDEST PUSH2 0x4B08 DUP2 DUP6 PUSH2 0x4AEA JUMP JUMPDEST SWAP4 POP PUSH2 0x4B18 DUP2 DUP6 PUSH1 0x20 DUP7 ADD PUSH2 0x3849 JUMP JUMPDEST DUP1 DUP5 ADD SWAP2 POP POP SWAP3 SWAP2 POP POP JUMP JUMPDEST PUSH0 PUSH2 0x4B2F DUP3 DUP5 PUSH2 0x4AF4 JUMP JUMPDEST SWAP2 POP DUP2 SWAP1 POP SWAP3 SWAP2 POP POP JUMP INVALID LOG2 PUSH5 0x6970667358 0x22 SLT KECCAK256 CREATE 0xE6 AND SHR 0xB8 BLOCKHASH 0xCC 0xFC SWAP10 0xD7 LOG2 0xF6 DUP7 RETURNDATASIZE 0xC7 SELFBALANCE DELEGATECALL BYTE NOT 0xD3 0xD8 PUSH14 0x6F81988EE3FE58B3128464736F6C PUSH4 0x43000814 STOP CALLER "
		},
		"gasEstimates": {
			"creation": {
				"codeDepositCost": "725600",
				"executionCost": "infinite",
				"totalCost": "infinite"
			},
			"external": {
				"deployToken(address,string,string,uint8,address,uint96,address)": "infinite",
				"deployToken(address,string,string,uint8,address,uint96,address,uint8)": "infinite",
				"deployToken(address,string,string,uint8,address,uint96,address,uint8,address)": "infinite",
				"predictTokenAddress(address,address,string,string,uint8,address,uint96,address,uint8)": "infinite",
				"tokenImpl()": "infinite"
			},
			"internal": {
				"salt(address,address,string calldata,string calldata,uint8,address,uint96,address,uint8)": "infinite"
			}
		},
		"methodIdentifiers": {
			"deployToken(address,string,string,uint8,address,uint96,address)": "ce656c74",
			"deployToken(address,string,string,uint8,address,uint96,address,uint8)": "02a7202b",
			"deployToken(address,string,string,uint8,address,uint96,address,uint8,address)": "94e69ef5",
			"predictTokenAddress(address,address,string,string,uint8,address,uint96,address,uint8)": "c5160b76",
			"tokenImpl()": "ffc4992f"
		}
	},
	"abi": [
		{
			"inputs": [],
			"stateMutability": "nonpayable",
			"type": "constructor"
		},
		{
			"anonymous": false,
			"inputs": [
				{
					"indexed": true,
					"internalType": "address",
					"name": "msgSender",
					"type": "address"
				},
				{
					"indexed": true,
					"internalType": "address",
					"name": "owner",
					"type": "address"
				},
				{
					"indexed": false,
					"internalType": "string",
					"name": "name",
					"type": "string"
				},
				{
					"indexed": false,
					"internalType": "string",
					"name": "symbol",
					"type": "string"
				},
				{
					"indexed": false,
					"internalType": "uint8",
					"name": "decimals",
					"type": "uint8"
				},
				{
					"indexed": false,
					"internalType": "address",
					"name": "erc721Token",
					"type": "address"
				},
				{
					"indexed": false,
					"internalType": "uint96",
					"name": "amountPerNFT",
					"type": "uint96"
				},
				{
					"indexed": false,
					"internalType": "address",
					"name": "admin",
					"type": "address"
				},
				{
					"indexed": false,
					"internalType": "uint8",
					"name": "nonce",
					"type": "uint8"
				},
				{
					"indexed": false,
					"internalType": "address",
					"name": "tokenAddress",
					"type": "address"
				}
			],
			"name": "TokenDeployed",
			"type": "event"
		},
		{
			"inputs": [
				{
					"internalType": "address",
					"name": "owner",
					"type": "address"
				},
				{
					"internalType": "string",
					"name": "name",
					"type": "string"
				},
				{
					"internalType": "string",
					"name": "symbol",
					"type": "string"
				},
				{
					"internalType": "uint8",
					"name": "decimals",
					"type": "uint8"
				},
				{
					"internalType": "address",
					"name": "erc721Token",
					"type": "address"
				},
				{
					"internalType": "uint96",
					"name": "amountPerNFT",
					"type": "uint96"
				},
				{
					"internalType": "address",
					"name": "admin",
					"type": "address"
				},
				{
					"internalType": "uint8",
					"name": "nonce",
					"type": "uint8"
				}
			],
			"name": "deployToken",
			"outputs": [
				{
					"internalType": "address",
					"name": "",
					"type": "address"
				}
			],
			"stateMutability": "nonpayable",
			"type": "function"
		},
		{
			"inputs": [
				{
					"internalType": "address",
					"name": "owner",
					"type": "address"
				},
				{
					"internalType": "string",
					"name": "name",
					"type": "string"
				},
				{
					"internalType": "string",
					"name": "symbol",
					"type": "string"
				},
				{
					"internalType": "uint8",
					"name": "decimals",
					"type": "uint8"
				},
				{
					"internalType": "address",
					"name": "erc721Token",
					"type": "address"
				},
				{
					"internalType": "uint96",
					"name": "amountPerNFT",
					"type": "uint96"
				},
				{
					"internalType": "address",
					"name": "admin",
					"type": "address"
				},
				{
					"internalType": "uint8",
					"name": "nonce",
					"type": "uint8"
				},
				{
					"internalType": "address",
					"name": "predictedTokenAddress",
					"type": "address"
				}
			],
			"name": "deployToken",
			"outputs": [
				{
					"internalType": "address",
					"name": "token",
					"type": "address"
				}
			],
			"stateMutability": "nonpayable",
			"type": "function"
		},
		{
			"inputs": [
				{
					"internalType": "address",
					"name": "owner",
					"type": "address"
				},
				{
					"internalType": "string",
					"name": "name",
					"type": "string"
				},
				{
					"internalType": "string",
					"name": "symbol",
					"type": "string"
				},
				{
					"internalType": "uint8",
					"name": "decimals",
					"type": "uint8"
				},
				{
					"internalType": "address",
					"name": "erc721Token",
					"type": "address"
				},
				{
					"internalType": "uint96",
					"name": "amountPerNFT",
					"type": "uint96"
				},
				{
					"internalType": "address",
					"name": "admin",
					"type": "address"
				}
			],
			"name": "deployToken",
			"outputs": [
				{
					"internalType": "address",
					"name": "",
					"type": "address"
				}
			],
			"stateMutability": "nonpayable",
			"type": "function"
		},
		{
			"inputs": [
				{
					"internalType": "address",
					"name": "msgSender",
					"type": "address"
				},
				{
					"internalType": "address",
					"name": "owner",
					"type": "address"
				},
				{
					"internalType": "string",
					"name": "name",
					"type": "string"
				},
				{
					"internalType": "string",
					"name": "symbol",
					"type": "string"
				},
				{
					"internalType": "uint8",
					"name": "decimals",
					"type": "uint8"
				},
				{
					"internalType": "address",
					"name": "erc721Token",
					"type": "address"
				},
				{
					"internalType": "uint96",
					"name": "amountPerNFT",
					"type": "uint96"
				},
				{
					"internalType": "address",
					"name": "admin",
					"type": "address"
				},
				{
					"internalType": "uint8",
					"name": "nonce",
					"type": "uint8"
				}
			],
			"name": "predictTokenAddress",
			"outputs": [
				{
					"internalType": "address",
					"name": "",
					"type": "address"
				}
			],
			"stateMutability": "view",
			"type": "function"
		},
		{
			"inputs": [],
			"name": "tokenImpl",
			"outputs": [
				{
					"internalType": "address",
					"name": "",
					"type": "address"
				}
			],
			"stateMutability": "view",
			"type": "function"
		}
	]
}